{
	"contracts/bridging/EthereumBSCBridge.sol": {
		"caller": {
			"abi": [
				{
					"inputs": [],
					"name": "callConstract",
					"outputs": [],
					"stateMutability": "nonpayable",
					"type": "function"
				}
			],
			"devdoc": {
				"kind": "dev",
				"methods": {},
				"version": 1
			},
			"evm": {
				"assembly": "    /* \"contracts/bridging/EthereumBSCBridge.sol\":1179:1519  contract caller {... */\n  mstore(0x40, 0x80)\n  callvalue\n  dup1\n  iszero\n  tag_1\n  jumpi\n  0x00\n  dup1\n  revert\ntag_1:\n  pop\n  dataSize(sub_0)\n  dup1\n  dataOffset(sub_0)\n  0x00\n  codecopy\n  0x00\n  return\nstop\n\nsub_0: assembly {\n        /* \"contracts/bridging/EthereumBSCBridge.sol\":1179:1519  contract caller {... */\n      mstore(0x40, 0x80)\n      callvalue\n      dup1\n      iszero\n      tag_1\n      jumpi\n      0x00\n      dup1\n      revert\n    tag_1:\n      pop\n      jumpi(tag_2, lt(calldatasize, 0x04))\n      shr(0xe0, calldataload(0x00))\n      dup1\n      0xae376ecb\n      eq\n      tag_3\n      jumpi\n    tag_2:\n      0x00\n      dup1\n      revert\n        /* \"contracts/bridging/EthereumBSCBridge.sol\":1354:1517  function callConstract() public {... */\n    tag_3:\n      tag_4\n      tag_5\n      jump\t// in\n    tag_4:\n      stop\n    tag_5:\n        /* \"contracts/bridging/EthereumBSCBridge.sol\":1435:1451  BSCBridge bridge */\n      0x00\n        /* \"contracts/bridging/EthereumBSCBridge.sol\":1476:1480  this */\n      address\n        /* \"contracts/bridging/EthereumBSCBridge.sol\":1454:1482  new BSCBridge(address(this)) */\n      mload(0x40)\n      tag_7\n      swap1\n      tag_8\n      jump\t// in\n    tag_7:\n      sub(shl(0xa0, 0x01), 0x01)\n        /* \"#utility.yul\":178:210   */\n      swap1\n      swap2\n      and\n        /* \"#utility.yul\":160:211   */\n      dup2\n      mstore\n        /* \"#utility.yul\":148:150   */\n      0x20\n        /* \"#utility.yul\":133:151   */\n      add\n        /* \"contracts/bridging/EthereumBSCBridge.sol\":1454:1482  new BSCBridge(address(this)) */\n      mload(0x40)\n      dup1\n      swap2\n      sub\n      swap1\n      0x00\n      create\n      dup1\n      iszero\n      dup1\n      iszero\n      tag_11\n      jumpi\n      returndatasize\n      0x00\n      dup1\n      returndatacopy\n      revert(0x00, returndatasize)\n    tag_11:\n      pop\n        /* \"contracts/bridging/EthereumBSCBridge.sol\":1492:1510  bridge.deposit(10) */\n      mload(0x40)\n      shl(0xe0, 0xb6b55f25)\n      dup2\n      mstore\n        /* \"contracts/bridging/EthereumBSCBridge.sol\":1507:1509  10 */\n      0x0a\n        /* \"contracts/bridging/EthereumBSCBridge.sol\":1492:1510  bridge.deposit(10) */\n      0x04\n      dup3\n      add\n        /* \"#utility.yul\":377:402   */\n      mstore\n        /* \"contracts/bridging/EthereumBSCBridge.sol\":1435:1482  BSCBridge bridge = new BSCBridge(address(this)) */\n      swap1\n      swap2\n      pop\n      sub(shl(0xa0, 0x01), 0x01)\n        /* \"contracts/bridging/EthereumBSCBridge.sol\":1492:1506  bridge.deposit */\n      dup3\n      and\n      swap1\n      0xb6b55f25\n      swap1\n        /* \"#utility.yul\":350:368   */\n      0x24\n      add\n        /* \"contracts/bridging/EthereumBSCBridge.sol\":1492:1510  bridge.deposit(10) */\n      0x00\n      mload(0x40)\n      dup1\n      dup4\n      sub\n      dup2\n      0x00\n      dup8\n      dup1\n      extcodesize\n      iszero\n      dup1\n      iszero\n      tag_14\n      jumpi\n      0x00\n      dup1\n      revert\n    tag_14:\n      pop\n      gas\n      call\n      iszero\n      dup1\n      iszero\n      tag_16\n      jumpi\n      returndatasize\n      0x00\n      dup1\n      returndatacopy\n      revert(0x00, returndatasize)\n    tag_16:\n      pop\n      pop\n      pop\n      pop\n        /* \"contracts/bridging/EthereumBSCBridge.sol\":1386:1517  {... */\n      pop\n        /* \"contracts/bridging/EthereumBSCBridge.sol\":1354:1517  function callConstract() public {... */\n      jump\t// out\n    tag_8:\n      dataSize(sub_0)\n      dup1\n      dataOffset(sub_0)\n      dup4\n      codecopy\n      add\n      swap1\n      jump\t// out\n    stop\n\n    sub_0: assembly {\n            /* \"contracts/bridging/EthereumBSCBridge.sol\":1055:1177  contract BSCBridge is EthereumBSCBridge {... */\n          mstore(0x40, 0x80)\n            /* \"contracts/bridging/EthereumBSCBridge.sol\":1103:1175  constructor(address _tokenAddress) EthereumBSCBridge (_tokenAddress) { } */\n          callvalue\n          dup1\n          iszero\n          tag_1\n          jumpi\n          0x00\n          dup1\n          revert\n        tag_1:\n          pop\n          mload(0x40)\n          sub(codesize, bytecodeSize)\n          dup1\n          bytecodeSize\n          dup4\n          codecopy\n          dup2\n          add\n          0x40\n          dup2\n          swap1\n          mstore\n          tag_2\n          swap2\n          tag_3\n          jump\t// in\n        tag_2:\n            /* \"contracts/bridging/EthereumBSCBridge.sol\":483:488  owner */\n          0x00\n            /* \"contracts/bridging/EthereumBSCBridge.sol\":483:501  owner = msg.sender */\n          dup1\n          sload\n          not(sub(shl(0xa0, 0x01), 0x01))\n          swap1\n          dup2\n          and\n            /* \"contracts/bridging/EthereumBSCBridge.sol\":491:501  msg.sender */\n          caller\n            /* \"contracts/bridging/EthereumBSCBridge.sol\":483:501  owner = msg.sender */\n          or\n          swap1\n          swap2\n          sstore\n          0x01\n            /* \"contracts/bridging/EthereumBSCBridge.sol\":511:540  token = IERC20(_tokenAddress) */\n          dup1\n          sload\n          sub(shl(0xa0, 0x01), 0x01)\n          swap1\n          swap4\n          and\n          swap3\n          swap1\n          swap2\n          and\n          swap2\n          swap1\n          swap2\n          or\n          swap1\n          sstore\n            /* \"contracts/bridging/EthereumBSCBridge.sol\":1055:1177  contract BSCBridge is EthereumBSCBridge {... */\n          jump(tag_9)\n            /* \"#utility.yul\":14:304   */\n        tag_3:\n            /* \"#utility.yul\":84:90   */\n          0x00\n            /* \"#utility.yul\":137:139   */\n          0x20\n            /* \"#utility.yul\":125:134   */\n          dup3\n            /* \"#utility.yul\":116:123   */\n          dup5\n            /* \"#utility.yul\":112:135   */\n          sub\n            /* \"#utility.yul\":108:140   */\n          slt\n            /* \"#utility.yul\":105:157   */\n          iszero\n          tag_11\n          jumpi\n            /* \"#utility.yul\":153:154   */\n          0x00\n            /* \"#utility.yul\":150:151   */\n          dup1\n            /* \"#utility.yul\":143:155   */\n          revert\n            /* \"#utility.yul\":105:157   */\n        tag_11:\n            /* \"#utility.yul\":179:195   */\n          dup2\n          mload\n          sub(shl(0xa0, 0x01), 0x01)\n            /* \"#utility.yul\":224:255   */\n          dup2\n          and\n            /* \"#utility.yul\":214:256   */\n          dup2\n          eq\n            /* \"#utility.yul\":204:274   */\n          tag_12\n          jumpi\n            /* \"#utility.yul\":270:271   */\n          0x00\n            /* \"#utility.yul\":267:268   */\n          dup1\n            /* \"#utility.yul\":260:272   */\n          revert\n            /* \"#utility.yul\":204:274   */\n        tag_12:\n            /* \"#utility.yul\":293:298   */\n          swap4\n            /* \"#utility.yul\":14:304   */\n          swap3\n          pop\n          pop\n          pop\n          jump\t// out\n        tag_9:\n            /* \"contracts/bridging/EthereumBSCBridge.sol\":1055:1177  contract BSCBridge is EthereumBSCBridge {... */\n          dataSize(sub_0)\n          dup1\n          dataOffset(sub_0)\n          0x00\n          codecopy\n          0x00\n          return\n        stop\n\n        sub_0: assembly {\n                /* \"contracts/bridging/EthereumBSCBridge.sol\":1055:1177  contract BSCBridge is EthereumBSCBridge {... */\n              mstore(0x40, 0x80)\n              callvalue\n              dup1\n              iszero\n              tag_1\n              jumpi\n              0x00\n              dup1\n              revert\n            tag_1:\n              pop\n              jumpi(tag_2, lt(calldatasize, 0x04))\n              shr(0xe0, calldataload(0x00))\n              dup1\n              0x8da5cb5b\n              eq\n              tag_3\n              jumpi\n              dup1\n              0xb6b55f25\n              eq\n              tag_4\n              jumpi\n              dup1\n              0xf3fef3a3\n              eq\n              tag_5\n              jumpi\n              dup1\n              0xfc0c546a\n              eq\n              tag_6\n              jumpi\n            tag_2:\n              0x00\n              dup1\n              revert\n                /* \"contracts/bridging/EthereumBSCBridge.sol\":306:326  address public owner */\n            tag_3:\n              sload(0x00)\n              tag_7\n              swap1\n              sub(shl(0xa0, 0x01), 0x01)\n              and\n              dup2\n              jump\n            tag_7:\n              mload(0x40)\n              sub(shl(0xa0, 0x01), 0x01)\n                /* \"#utility.yul\":178:210   */\n              swap1\n              swap2\n              and\n                /* \"#utility.yul\":160:211   */\n              dup2\n              mstore\n                /* \"#utility.yul\":148:150   */\n              0x20\n                /* \"#utility.yul\":133:151   */\n              add\n                /* \"contracts/bridging/EthereumBSCBridge.sol\":306:326  address public owner */\n              mload(0x40)\n              dup1\n              swap2\n              sub\n              swap1\n              return\n                /* \"contracts/bridging/EthereumBSCBridge.sol\":553:754  function deposit(uint256 _amount) external {... */\n            tag_4:\n              tag_11\n              tag_12\n              calldatasize\n              0x04\n              tag_13\n              jump\t// in\n            tag_12:\n              tag_14\n              jump\t// in\n            tag_11:\n              stop\n                /* \"contracts/bridging/EthereumBSCBridge.sol\":760:1007  function withdraw(address _to, uint256 _amount) external {... */\n            tag_5:\n              tag_11\n              tag_16\n              calldatasize\n              0x04\n              tag_17\n              jump\t// in\n            tag_16:\n              tag_18\n              jump\t// in\n                /* \"contracts/bridging/EthereumBSCBridge.sol\":332:351  IERC20 public token */\n            tag_6:\n              sload(0x01)\n              tag_7\n              swap1\n              sub(shl(0xa0, 0x01), 0x01)\n              and\n              dup2\n              jump\n                /* \"contracts/bridging/EthereumBSCBridge.sol\":553:754  function deposit(uint256 _amount) external {... */\n            tag_14:\n                /* \"contracts/bridging/EthereumBSCBridge.sol\":614:619  token */\n              sload(0x01)\n                /* \"contracts/bridging/EthereumBSCBridge.sol\":614:668  token.transferFrom(msg.sender, address(this), _amount) */\n              mload(0x40)\n              shl(0xe0, 0x23b872dd)\n              dup2\n              mstore\n                /* \"contracts/bridging/EthereumBSCBridge.sol\":633:643  msg.sender */\n              caller\n                /* \"contracts/bridging/EthereumBSCBridge.sol\":614:668  token.transferFrom(msg.sender, address(this), _amount) */\n              0x04\n              dup3\n              add\n                /* \"#utility.yul\":1228:1262   */\n              mstore\n                /* \"contracts/bridging/EthereumBSCBridge.sol\":653:657  this */\n              address\n                /* \"#utility.yul\":1278:1296   */\n              0x24\n              dup3\n              add\n                /* \"#utility.yul\":1271:1314   */\n              mstore\n                /* \"#utility.yul\":1330:1348   */\n              0x44\n              dup2\n              add\n                /* \"#utility.yul\":1323:1357   */\n              dup4\n              swap1\n              mstore\n              sub(shl(0xa0, 0x01), 0x01)\n                /* \"contracts/bridging/EthereumBSCBridge.sol\":614:619  token */\n              swap1\n              swap2\n              and\n              swap1\n                /* \"contracts/bridging/EthereumBSCBridge.sol\":614:632  token.transferFrom */\n              0x23b872dd\n              swap1\n                /* \"#utility.yul\":1163:1181   */\n              0x64\n              add\n                /* \"contracts/bridging/EthereumBSCBridge.sol\":614:668  token.transferFrom(msg.sender, address(this), _amount) */\n              0x20\n              mload(0x40)\n              dup1\n              dup4\n              sub\n              dup2\n              0x00\n              dup8\n              gas\n              call\n              iszero\n              dup1\n              iszero\n              tag_27\n              jumpi\n              returndatasize\n              0x00\n              dup1\n              returndatacopy\n              revert(0x00, returndatasize)\n            tag_27:\n              pop\n              pop\n              pop\n              pop\n              mload(0x40)\n              returndatasize\n              not(0x1f)\n              0x1f\n              dup3\n              add\n              and\n              dup3\n              add\n              dup1\n              0x40\n              mstore\n              pop\n              dup2\n              add\n              swap1\n              tag_28\n              swap2\n              swap1\n              tag_29\n              jump\t// in\n            tag_28:\n                /* \"contracts/bridging/EthereumBSCBridge.sol\":606:688  require(token.transferFrom(msg.sender, address(this), _amount), \"Transfer failed\") */\n              tag_30\n              jumpi\n              mload(0x40)\n              shl(0xe5, 0x461bcd)\n              dup2\n              mstore\n                /* \"#utility.yul\":1852:1854   */\n              0x20\n                /* \"contracts/bridging/EthereumBSCBridge.sol\":606:688  require(token.transferFrom(msg.sender, address(this), _amount), \"Transfer failed\") */\n              0x04\n              dup3\n              add\n                /* \"#utility.yul\":1834:1855   */\n              mstore\n                /* \"#utility.yul\":1891:1893   */\n              0x0f\n                /* \"#utility.yul\":1871:1889   */\n              0x24\n              dup3\n              add\n                /* \"#utility.yul\":1864:1894   */\n              mstore\n              shl(0x8a, 0x151c985b9cd9995c8819985a5b1959)\n                /* \"#utility.yul\":1910:1928   */\n              0x44\n              dup3\n              add\n                /* \"#utility.yul\":1903:1948   */\n              mstore\n                /* \"#utility.yul\":1965:1983   */\n              0x64\n              add\n                /* \"contracts/bridging/EthereumBSCBridge.sol\":606:688  require(token.transferFrom(msg.sender, address(this), _amount), \"Transfer failed\") */\n            tag_31:\n              mload(0x40)\n              dup1\n              swap2\n              sub\n              swap1\n              revert\n            tag_30:\n                /* \"contracts/bridging/EthereumBSCBridge.sol\":703:747  Transfer(msg.sender, address(this), _amount) */\n              mload(0x40)\n                /* \"#utility.yul\":2140:2165   */\n              dup2\n              dup2\n              mstore\n                /* \"contracts/bridging/EthereumBSCBridge.sol\":732:736  this */\n              address\n              swap1\n                /* \"contracts/bridging/EthereumBSCBridge.sol\":712:722  msg.sender */\n              caller\n              swap1\n                /* \"contracts/bridging/EthereumBSCBridge.sol\":703:747  Transfer(msg.sender, address(this), _amount) */\n              0xddf252ad1be2c89b69c2b068fc378daa952ba7f163c4a11628f55a4df523b3ef\n              swap1\n                /* \"#utility.yul\":2128:2130   */\n              0x20\n                /* \"#utility.yul\":2113:2131   */\n              add\n                /* \"contracts/bridging/EthereumBSCBridge.sol\":703:747  Transfer(msg.sender, address(this), _amount) */\n              mload(0x40)\n              dup1\n              swap2\n              sub\n              swap1\n              log3\n                /* \"contracts/bridging/EthereumBSCBridge.sol\":553:754  function deposit(uint256 _amount) external {... */\n              pop\n              jump\t// out\n                /* \"contracts/bridging/EthereumBSCBridge.sol\":760:1007  function withdraw(address _to, uint256 _amount) external {... */\n            tag_18:\n                /* \"contracts/bridging/EthereumBSCBridge.sol\":849:854  owner */\n              and(sub(shl(0xa0, 0x01), 0x01), sload(0x00))\n                /* \"contracts/bridging/EthereumBSCBridge.sol\":835:845  msg.sender */\n              caller\n                /* \"contracts/bridging/EthereumBSCBridge.sol\":835:854  msg.sender == owner */\n              eq\n                /* \"contracts/bridging/EthereumBSCBridge.sol\":827:882  require(msg.sender == owner, \"Only owner can withdraw\") */\n              tag_36\n              jumpi\n              mload(0x40)\n              shl(0xe5, 0x461bcd)\n              dup2\n              mstore\n                /* \"#utility.yul\":2378:2380   */\n              0x20\n                /* \"contracts/bridging/EthereumBSCBridge.sol\":827:882  require(msg.sender == owner, \"Only owner can withdraw\") */\n              0x04\n              dup3\n              add\n                /* \"#utility.yul\":2360:2381   */\n              mstore\n                /* \"#utility.yul\":2417:2419   */\n              0x17\n                /* \"#utility.yul\":2397:2415   */\n              0x24\n              dup3\n              add\n                /* \"#utility.yul\":2390:2420   */\n              mstore\n                /* \"#utility.yul\":2456:2481   */\n              0x4f6e6c79206f776e65722063616e207769746864726177000000000000000000\n                /* \"#utility.yul\":2436:2454   */\n              0x44\n              dup3\n              add\n                /* \"#utility.yul\":2429:2482   */\n              mstore\n                /* \"#utility.yul\":2499:2517   */\n              0x64\n              add\n                /* \"contracts/bridging/EthereumBSCBridge.sol\":827:882  require(msg.sender == owner, \"Only owner can withdraw\") */\n              tag_31\n                /* \"#utility.yul\":2176:2523   */\n              jump\n                /* \"contracts/bridging/EthereumBSCBridge.sol\":827:882  require(msg.sender == owner, \"Only owner can withdraw\") */\n            tag_36:\n                /* \"contracts/bridging/EthereumBSCBridge.sol\":900:905  token */\n              sload(0x01)\n                /* \"contracts/bridging/EthereumBSCBridge.sol\":900:928  token.transfer(_to, _amount) */\n              mload(0x40)\n              shl(0xe0, 0xa9059cbb)\n              dup2\n              mstore\n              sub(shl(0xa0, 0x01), 0x01)\n                /* \"#utility.yul\":2720:2752   */\n              dup5\n              dup2\n              and\n                /* \"contracts/bridging/EthereumBSCBridge.sol\":900:928  token.transfer(_to, _amount) */\n              0x04\n              dup4\n              add\n                /* \"#utility.yul\":2702:2753   */\n              mstore\n                /* \"#utility.yul\":2769:2787   */\n              0x24\n              dup3\n              add\n                /* \"#utility.yul\":2762:2796   */\n              dup5\n              swap1\n              mstore\n                /* \"contracts/bridging/EthereumBSCBridge.sol\":900:905  token */\n              swap1\n              swap2\n              and\n              swap1\n                /* \"contracts/bridging/EthereumBSCBridge.sol\":900:914  token.transfer */\n              0xa9059cbb\n              swap1\n                /* \"#utility.yul\":2675:2693   */\n              0x44\n              add\n                /* \"contracts/bridging/EthereumBSCBridge.sol\":900:928  token.transfer(_to, _amount) */\n              0x20\n              mload(0x40)\n              dup1\n              dup4\n              sub\n              dup2\n              0x00\n              dup8\n              gas\n              call\n              iszero\n              dup1\n              iszero\n              tag_42\n              jumpi\n              returndatasize\n              0x00\n              dup1\n              returndatacopy\n              revert(0x00, returndatasize)\n            tag_42:\n              pop\n              pop\n              pop\n              pop\n              mload(0x40)\n              returndatasize\n              not(0x1f)\n              0x1f\n              dup3\n              add\n              and\n              dup3\n              add\n              dup1\n              0x40\n              mstore\n              pop\n              dup2\n              add\n              swap1\n              tag_43\n              swap2\n              swap1\n              tag_29\n              jump\t// in\n            tag_43:\n                /* \"contracts/bridging/EthereumBSCBridge.sol\":892:948  require(token.transfer(_to, _amount), \"Transfer failed\") */\n              tag_44\n              jumpi\n              mload(0x40)\n              shl(0xe5, 0x461bcd)\n              dup2\n              mstore\n                /* \"#utility.yul\":1852:1854   */\n              0x20\n                /* \"contracts/bridging/EthereumBSCBridge.sol\":892:948  require(token.transfer(_to, _amount), \"Transfer failed\") */\n              0x04\n              dup3\n              add\n                /* \"#utility.yul\":1834:1855   */\n              mstore\n                /* \"#utility.yul\":1891:1893   */\n              0x0f\n                /* \"#utility.yul\":1871:1889   */\n              0x24\n              dup3\n              add\n                /* \"#utility.yul\":1864:1894   */\n              mstore\n              shl(0x8a, 0x151c985b9cd9995c8819985a5b1959)\n                /* \"#utility.yul\":1910:1928   */\n              0x44\n              dup3\n              add\n                /* \"#utility.yul\":1903:1948   */\n              mstore\n                /* \"#utility.yul\":1965:1983   */\n              0x64\n              add\n                /* \"contracts/bridging/EthereumBSCBridge.sol\":892:948  require(token.transfer(_to, _amount), \"Transfer failed\") */\n              tag_31\n                /* \"#utility.yul\":1650:1989   */\n              jump\n                /* \"contracts/bridging/EthereumBSCBridge.sol\":892:948  require(token.transfer(_to, _amount), \"Transfer failed\") */\n            tag_44:\n                /* \"contracts/bridging/EthereumBSCBridge.sol\":963:1000  Transfer(address(this), _to, _amount) */\n              mload(0x40)\n                /* \"#utility.yul\":2140:2165   */\n              dup2\n              dup2\n              mstore\n              sub(shl(0xa0, 0x01), 0x01)\n                /* \"contracts/bridging/EthereumBSCBridge.sol\":963:1000  Transfer(address(this), _to, _amount) */\n              dup4\n              and\n              swap1\n                /* \"contracts/bridging/EthereumBSCBridge.sol\":980:984  this */\n              address\n              swap1\n                /* \"contracts/bridging/EthereumBSCBridge.sol\":963:1000  Transfer(address(this), _to, _amount) */\n              0xddf252ad1be2c89b69c2b068fc378daa952ba7f163c4a11628f55a4df523b3ef\n              swap1\n                /* \"#utility.yul\":2128:2130   */\n              0x20\n                /* \"#utility.yul\":2113:2131   */\n              add\n                /* \"contracts/bridging/EthereumBSCBridge.sol\":963:1000  Transfer(address(this), _to, _amount) */\n              mload(0x40)\n              dup1\n              swap2\n              sub\n              swap1\n              log3\n                /* \"contracts/bridging/EthereumBSCBridge.sol\":760:1007  function withdraw(address _to, uint256 _amount) external {... */\n              pop\n              pop\n              jump\t// out\n                /* \"#utility.yul\":222:402   */\n            tag_13:\n                /* \"#utility.yul\":281:287   */\n              0x00\n                /* \"#utility.yul\":334:336   */\n              0x20\n                /* \"#utility.yul\":322:331   */\n              dup3\n                /* \"#utility.yul\":313:320   */\n              dup5\n                /* \"#utility.yul\":309:332   */\n              sub\n                /* \"#utility.yul\":305:337   */\n              slt\n                /* \"#utility.yul\":302:354   */\n              iszero\n              tag_50\n              jumpi\n                /* \"#utility.yul\":350:351   */\n              0x00\n                /* \"#utility.yul\":347:348   */\n              dup1\n                /* \"#utility.yul\":340:352   */\n              revert\n                /* \"#utility.yul\":302:354   */\n            tag_50:\n              pop\n                /* \"#utility.yul\":373:396   */\n              calldataload\n              swap2\n                /* \"#utility.yul\":222:402   */\n              swap1\n              pop\n              jump\t// out\n                /* \"#utility.yul\":407:761   */\n            tag_17:\n                /* \"#utility.yul\":475:481   */\n              0x00\n                /* \"#utility.yul\":483:489   */\n              dup1\n                /* \"#utility.yul\":536:538   */\n              0x40\n                /* \"#utility.yul\":524:533   */\n              dup4\n                /* \"#utility.yul\":515:522   */\n              dup6\n                /* \"#utility.yul\":511:534   */\n              sub\n                /* \"#utility.yul\":507:539   */\n              slt\n                /* \"#utility.yul\":504:556   */\n              iszero\n              tag_52\n              jumpi\n                /* \"#utility.yul\":552:553   */\n              0x00\n                /* \"#utility.yul\":549:550   */\n              dup1\n                /* \"#utility.yul\":542:554   */\n              revert\n                /* \"#utility.yul\":504:556   */\n            tag_52:\n                /* \"#utility.yul\":578:601   */\n              dup3\n              calldataload\n              sub(shl(0xa0, 0x01), 0x01)\n                /* \"#utility.yul\":630:661   */\n              dup2\n              and\n                /* \"#utility.yul\":620:662   */\n              dup2\n              eq\n                /* \"#utility.yul\":610:680   */\n              tag_53\n              jumpi\n                /* \"#utility.yul\":676:677   */\n              0x00\n                /* \"#utility.yul\":673:674   */\n              dup1\n                /* \"#utility.yul\":666:678   */\n              revert\n                /* \"#utility.yul\":610:680   */\n            tag_53:\n                /* \"#utility.yul\":699:704   */\n              swap5\n                /* \"#utility.yul\":751:753   */\n              0x20\n                /* \"#utility.yul\":736:754   */\n              swap4\n              swap1\n              swap4\n              add\n                /* \"#utility.yul\":723:755   */\n              calldataload\n              swap4\n              pop\n              pop\n              pop\n                /* \"#utility.yul\":407:761   */\n              jump\t// out\n                /* \"#utility.yul\":1368:1645   */\n            tag_29:\n                /* \"#utility.yul\":1435:1441   */\n              0x00\n                /* \"#utility.yul\":1488:1490   */\n              0x20\n                /* \"#utility.yul\":1476:1485   */\n              dup3\n                /* \"#utility.yul\":1467:1474   */\n              dup5\n                /* \"#utility.yul\":1463:1486   */\n              sub\n                /* \"#utility.yul\":1459:1491   */\n              slt\n                /* \"#utility.yul\":1456:1508   */\n              iszero\n              tag_57\n              jumpi\n                /* \"#utility.yul\":1504:1505   */\n              0x00\n                /* \"#utility.yul\":1501:1502   */\n              dup1\n                /* \"#utility.yul\":1494:1506   */\n              revert\n                /* \"#utility.yul\":1456:1508   */\n            tag_57:\n                /* \"#utility.yul\":1536:1545   */\n              dup2\n                /* \"#utility.yul\":1530:1546   */\n              mload\n                /* \"#utility.yul\":1589:1594   */\n              dup1\n                /* \"#utility.yul\":1582:1595   */\n              iszero\n                /* \"#utility.yul\":1575:1596   */\n              iszero\n                /* \"#utility.yul\":1568:1573   */\n              dup2\n                /* \"#utility.yul\":1565:1597   */\n              eq\n                /* \"#utility.yul\":1555:1615   */\n              tag_58\n              jumpi\n                /* \"#utility.yul\":1611:1612   */\n              0x00\n                /* \"#utility.yul\":1608:1609   */\n              dup1\n                /* \"#utility.yul\":1601:1613   */\n              revert\n                /* \"#utility.yul\":1555:1615   */\n            tag_58:\n                /* \"#utility.yul\":1634:1639   */\n              swap4\n                /* \"#utility.yul\":1368:1645   */\n              swap3\n              pop\n              pop\n              pop\n              jump\t// out\n\n            auxdata: 0xa26469706673582212204d9a0f781e08972b34b152368f09c46e062710a2af83fec8c8a94d6235ba530264736f6c63430008150033\n        }\n    }\n\n    auxdata: 0xa2646970667358221220db74e3e898acfed4cf8942c8d4105ff18b269e38a924f0dd0d4b3c93d309f6de64736f6c63430008150033\n}\n",
				"bytecode": {
					"linkReferences": {},
					"object": "608060405234801561000f575f80fd5b5061054a8061001d5f395ff3fe608060405234801561000f575f80fd5b5060043610610029575f3560e01c8063ae376ecb1461002d575b5f80fd5b610035610037565b005b5f30604051610045906100ca565b6001600160a01b039091168152602001604051809103905ff08015801561006e573d5f803e3d5ffd5b5060405163b6b55f2560e01b8152600a60048201529091506001600160a01b0382169063b6b55f25906024015f604051808303815f87803b1580156100b1575f80fd5b505af11580156100c3573d5f803e3d5ffd5b5050505050565b61043d806100d88339019056fe608060405234801561000f575f80fd5b5060405161043d38038061043d83398101604081905261002e91610060565b5f80546001600160a01b03199081163317909155600180546001600160a01b039093169290911691909117905561008d565b5f60208284031215610070575f80fd5b81516001600160a01b0381168114610086575f80fd5b9392505050565b6103a38061009a5f395ff3fe608060405234801561000f575f80fd5b506004361061004a575f3560e01c80638da5cb5b1461004e578063b6b55f251461007c578063f3fef3a314610091578063fc0c546a146100a4575b5f80fd5b5f54610060906001600160a01b031681565b6040516001600160a01b03909116815260200160405180910390f35b61008f61008a3660046102fb565b6100b7565b005b61008f61009f366004610312565b6101ac565b600154610060906001600160a01b031681565b6001546040516323b872dd60e01b8152336004820152306024820152604481018390526001600160a01b03909116906323b872dd906064016020604051808303815f875af115801561010b573d5f803e3d5ffd5b505050506040513d601f19601f8201168201806040525081019061012f9190610347565b6101725760405162461bcd60e51b815260206004820152600f60248201526e151c985b9cd9995c8819985a5b1959608a1b60448201526064015b60405180910390fd5b604051818152309033907fddf252ad1be2c89b69c2b068fc378daa952ba7f163c4a11628f55a4df523b3ef9060200160405180910390a350565b5f546001600160a01b031633146102055760405162461bcd60e51b815260206004820152601760248201527f4f6e6c79206f776e65722063616e2077697468647261770000000000000000006044820152606401610169565b60015460405163a9059cbb60e01b81526001600160a01b038481166004830152602482018490529091169063a9059cbb906044016020604051808303815f875af1158015610255573d5f803e3d5ffd5b505050506040513d601f19601f820116820180604052508101906102799190610347565b6102b75760405162461bcd60e51b815260206004820152600f60248201526e151c985b9cd9995c8819985a5b1959608a1b6044820152606401610169565b6040518181526001600160a01b0383169030907fddf252ad1be2c89b69c2b068fc378daa952ba7f163c4a11628f55a4df523b3ef9060200160405180910390a35050565b5f6020828403121561030b575f80fd5b5035919050565b5f8060408385031215610323575f80fd5b82356001600160a01b0381168114610339575f80fd5b946020939093013593505050565b5f60208284031215610357575f80fd5b81518015158114610366575f80fd5b939250505056fea26469706673582212204d9a0f781e08972b34b152368f09c46e062710a2af83fec8c8a94d6235ba530264736f6c63430008150033a2646970667358221220db74e3e898acfed4cf8942c8d4105ff18b269e38a924f0dd0d4b3c93d309f6de64736f6c63430008150033",
					"opcodes": "PUSH1 0x80 PUSH1 0x40 MSTORE CALLVALUE DUP1 ISZERO PUSH2 0xF JUMPI PUSH0 DUP1 REVERT JUMPDEST POP PUSH2 0x54A DUP1 PUSH2 0x1D PUSH0 CODECOPY PUSH0 RETURN INVALID PUSH1 0x80 PUSH1 0x40 MSTORE CALLVALUE DUP1 ISZERO PUSH2 0xF JUMPI PUSH0 DUP1 REVERT JUMPDEST POP PUSH1 0x4 CALLDATASIZE LT PUSH2 0x29 JUMPI PUSH0 CALLDATALOAD PUSH1 0xE0 SHR DUP1 PUSH4 0xAE376ECB EQ PUSH2 0x2D JUMPI JUMPDEST PUSH0 DUP1 REVERT JUMPDEST PUSH2 0x35 PUSH2 0x37 JUMP JUMPDEST STOP JUMPDEST PUSH0 ADDRESS PUSH1 0x40 MLOAD PUSH2 0x45 SWAP1 PUSH2 0xCA JUMP JUMPDEST PUSH1 0x1 PUSH1 0x1 PUSH1 0xA0 SHL SUB SWAP1 SWAP2 AND DUP2 MSTORE PUSH1 0x20 ADD PUSH1 0x40 MLOAD DUP1 SWAP2 SUB SWAP1 PUSH0 CREATE DUP1 ISZERO DUP1 ISZERO PUSH2 0x6E JUMPI RETURNDATASIZE PUSH0 DUP1 RETURNDATACOPY RETURNDATASIZE PUSH0 REVERT JUMPDEST POP PUSH1 0x40 MLOAD PUSH4 0xB6B55F25 PUSH1 0xE0 SHL DUP2 MSTORE PUSH1 0xA PUSH1 0x4 DUP3 ADD MSTORE SWAP1 SWAP2 POP PUSH1 0x1 PUSH1 0x1 PUSH1 0xA0 SHL SUB DUP3 AND SWAP1 PUSH4 0xB6B55F25 SWAP1 PUSH1 0x24 ADD PUSH0 PUSH1 0x40 MLOAD DUP1 DUP4 SUB DUP2 PUSH0 DUP8 DUP1 EXTCODESIZE ISZERO DUP1 ISZERO PUSH2 0xB1 JUMPI PUSH0 DUP1 REVERT JUMPDEST POP GAS CALL ISZERO DUP1 ISZERO PUSH2 0xC3 JUMPI RETURNDATASIZE PUSH0 DUP1 RETURNDATACOPY RETURNDATASIZE PUSH0 REVERT JUMPDEST POP POP POP POP POP JUMP JUMPDEST PUSH2 0x43D DUP1 PUSH2 0xD8 DUP4 CODECOPY ADD SWAP1 JUMP INVALID PUSH1 0x80 PUSH1 0x40 MSTORE CALLVALUE DUP1 ISZERO PUSH2 0xF JUMPI PUSH0 DUP1 REVERT JUMPDEST POP PUSH1 0x40 MLOAD PUSH2 0x43D CODESIZE SUB DUP1 PUSH2 0x43D DUP4 CODECOPY DUP2 ADD PUSH1 0x40 DUP2 SWAP1 MSTORE PUSH2 0x2E SWAP2 PUSH2 0x60 JUMP JUMPDEST PUSH0 DUP1 SLOAD PUSH1 0x1 PUSH1 0x1 PUSH1 0xA0 SHL SUB NOT SWAP1 DUP2 AND CALLER OR SWAP1 SWAP2 SSTORE PUSH1 0x1 DUP1 SLOAD PUSH1 0x1 PUSH1 0x1 PUSH1 0xA0 SHL SUB SWAP1 SWAP4 AND SWAP3 SWAP1 SWAP2 AND SWAP2 SWAP1 SWAP2 OR SWAP1 SSTORE PUSH2 0x8D JUMP JUMPDEST PUSH0 PUSH1 0x20 DUP3 DUP5 SUB SLT ISZERO PUSH2 0x70 JUMPI PUSH0 DUP1 REVERT JUMPDEST DUP2 MLOAD PUSH1 0x1 PUSH1 0x1 PUSH1 0xA0 SHL SUB DUP2 AND DUP2 EQ PUSH2 0x86 JUMPI PUSH0 DUP1 REVERT JUMPDEST SWAP4 SWAP3 POP POP POP JUMP JUMPDEST PUSH2 0x3A3 DUP1 PUSH2 0x9A PUSH0 CODECOPY PUSH0 RETURN INVALID PUSH1 0x80 PUSH1 0x40 MSTORE CALLVALUE DUP1 ISZERO PUSH2 0xF JUMPI PUSH0 DUP1 REVERT JUMPDEST POP PUSH1 0x4 CALLDATASIZE LT PUSH2 0x4A JUMPI PUSH0 CALLDATALOAD PUSH1 0xE0 SHR DUP1 PUSH4 0x8DA5CB5B EQ PUSH2 0x4E JUMPI DUP1 PUSH4 0xB6B55F25 EQ PUSH2 0x7C JUMPI DUP1 PUSH4 0xF3FEF3A3 EQ PUSH2 0x91 JUMPI DUP1 PUSH4 0xFC0C546A EQ PUSH2 0xA4 JUMPI JUMPDEST PUSH0 DUP1 REVERT JUMPDEST PUSH0 SLOAD PUSH2 0x60 SWAP1 PUSH1 0x1 PUSH1 0x1 PUSH1 0xA0 SHL SUB AND DUP2 JUMP JUMPDEST PUSH1 0x40 MLOAD PUSH1 0x1 PUSH1 0x1 PUSH1 0xA0 SHL SUB SWAP1 SWAP2 AND DUP2 MSTORE PUSH1 0x20 ADD PUSH1 0x40 MLOAD DUP1 SWAP2 SUB SWAP1 RETURN JUMPDEST PUSH2 0x8F PUSH2 0x8A CALLDATASIZE PUSH1 0x4 PUSH2 0x2FB JUMP JUMPDEST PUSH2 0xB7 JUMP JUMPDEST STOP JUMPDEST PUSH2 0x8F PUSH2 0x9F CALLDATASIZE PUSH1 0x4 PUSH2 0x312 JUMP JUMPDEST PUSH2 0x1AC JUMP JUMPDEST PUSH1 0x1 SLOAD PUSH2 0x60 SWAP1 PUSH1 0x1 PUSH1 0x1 PUSH1 0xA0 SHL SUB AND DUP2 JUMP JUMPDEST PUSH1 0x1 SLOAD PUSH1 0x40 MLOAD PUSH4 0x23B872DD PUSH1 0xE0 SHL DUP2 MSTORE CALLER PUSH1 0x4 DUP3 ADD MSTORE ADDRESS PUSH1 0x24 DUP3 ADD MSTORE PUSH1 0x44 DUP2 ADD DUP4 SWAP1 MSTORE PUSH1 0x1 PUSH1 0x1 PUSH1 0xA0 SHL SUB SWAP1 SWAP2 AND SWAP1 PUSH4 0x23B872DD SWAP1 PUSH1 0x64 ADD PUSH1 0x20 PUSH1 0x40 MLOAD DUP1 DUP4 SUB DUP2 PUSH0 DUP8 GAS CALL ISZERO DUP1 ISZERO PUSH2 0x10B JUMPI RETURNDATASIZE PUSH0 DUP1 RETURNDATACOPY RETURNDATASIZE PUSH0 REVERT JUMPDEST POP POP POP POP PUSH1 0x40 MLOAD RETURNDATASIZE PUSH1 0x1F NOT PUSH1 0x1F DUP3 ADD AND DUP3 ADD DUP1 PUSH1 0x40 MSTORE POP DUP2 ADD SWAP1 PUSH2 0x12F SWAP2 SWAP1 PUSH2 0x347 JUMP JUMPDEST PUSH2 0x172 JUMPI PUSH1 0x40 MLOAD PUSH3 0x461BCD PUSH1 0xE5 SHL DUP2 MSTORE PUSH1 0x20 PUSH1 0x4 DUP3 ADD MSTORE PUSH1 0xF PUSH1 0x24 DUP3 ADD MSTORE PUSH15 0x151C985B9CD9995C8819985A5B1959 PUSH1 0x8A SHL PUSH1 0x44 DUP3 ADD MSTORE PUSH1 0x64 ADD JUMPDEST PUSH1 0x40 MLOAD DUP1 SWAP2 SUB SWAP1 REVERT JUMPDEST PUSH1 0x40 MLOAD DUP2 DUP2 MSTORE ADDRESS SWAP1 CALLER SWAP1 PUSH32 0xDDF252AD1BE2C89B69C2B068FC378DAA952BA7F163C4A11628F55A4DF523B3EF SWAP1 PUSH1 0x20 ADD PUSH1 0x40 MLOAD DUP1 SWAP2 SUB SWAP1 LOG3 POP JUMP JUMPDEST PUSH0 SLOAD PUSH1 0x1 PUSH1 0x1 PUSH1 0xA0 SHL SUB AND CALLER EQ PUSH2 0x205 JUMPI PUSH1 0x40 MLOAD PUSH3 0x461BCD PUSH1 0xE5 SHL DUP2 MSTORE PUSH1 0x20 PUSH1 0x4 DUP3 ADD MSTORE PUSH1 0x17 PUSH1 0x24 DUP3 ADD MSTORE PUSH32 0x4F6E6C79206F776E65722063616E207769746864726177000000000000000000 PUSH1 0x44 DUP3 ADD MSTORE PUSH1 0x64 ADD PUSH2 0x169 JUMP JUMPDEST PUSH1 0x1 SLOAD PUSH1 0x40 MLOAD PUSH4 0xA9059CBB PUSH1 0xE0 SHL DUP2 MSTORE PUSH1 0x1 PUSH1 0x1 PUSH1 0xA0 SHL SUB DUP5 DUP2 AND PUSH1 0x4 DUP4 ADD MSTORE PUSH1 0x24 DUP3 ADD DUP5 SWAP1 MSTORE SWAP1 SWAP2 AND SWAP1 PUSH4 0xA9059CBB SWAP1 PUSH1 0x44 ADD PUSH1 0x20 PUSH1 0x40 MLOAD DUP1 DUP4 SUB DUP2 PUSH0 DUP8 GAS CALL ISZERO DUP1 ISZERO PUSH2 0x255 JUMPI RETURNDATASIZE PUSH0 DUP1 RETURNDATACOPY RETURNDATASIZE PUSH0 REVERT JUMPDEST POP POP POP POP PUSH1 0x40 MLOAD RETURNDATASIZE PUSH1 0x1F NOT PUSH1 0x1F DUP3 ADD AND DUP3 ADD DUP1 PUSH1 0x40 MSTORE POP DUP2 ADD SWAP1 PUSH2 0x279 SWAP2 SWAP1 PUSH2 0x347 JUMP JUMPDEST PUSH2 0x2B7 JUMPI PUSH1 0x40 MLOAD PUSH3 0x461BCD PUSH1 0xE5 SHL DUP2 MSTORE PUSH1 0x20 PUSH1 0x4 DUP3 ADD MSTORE PUSH1 0xF PUSH1 0x24 DUP3 ADD MSTORE PUSH15 0x151C985B9CD9995C8819985A5B1959 PUSH1 0x8A SHL PUSH1 0x44 DUP3 ADD MSTORE PUSH1 0x64 ADD PUSH2 0x169 JUMP JUMPDEST PUSH1 0x40 MLOAD DUP2 DUP2 MSTORE PUSH1 0x1 PUSH1 0x1 PUSH1 0xA0 SHL SUB DUP4 AND SWAP1 ADDRESS SWAP1 PUSH32 0xDDF252AD1BE2C89B69C2B068FC378DAA952BA7F163C4A11628F55A4DF523B3EF SWAP1 PUSH1 0x20 ADD PUSH1 0x40 MLOAD DUP1 SWAP2 SUB SWAP1 LOG3 POP POP JUMP JUMPDEST PUSH0 PUSH1 0x20 DUP3 DUP5 SUB SLT ISZERO PUSH2 0x30B JUMPI PUSH0 DUP1 REVERT JUMPDEST POP CALLDATALOAD SWAP2 SWAP1 POP JUMP JUMPDEST PUSH0 DUP1 PUSH1 0x40 DUP4 DUP6 SUB SLT ISZERO PUSH2 0x323 JUMPI PUSH0 DUP1 REVERT JUMPDEST DUP3 CALLDATALOAD PUSH1 0x1 PUSH1 0x1 PUSH1 0xA0 SHL SUB DUP2 AND DUP2 EQ PUSH2 0x339 JUMPI PUSH0 DUP1 REVERT JUMPDEST SWAP5 PUSH1 0x20 SWAP4 SWAP1 SWAP4 ADD CALLDATALOAD SWAP4 POP POP POP JUMP JUMPDEST PUSH0 PUSH1 0x20 DUP3 DUP5 SUB SLT ISZERO PUSH2 0x357 JUMPI PUSH0 DUP1 REVERT JUMPDEST DUP2 MLOAD DUP1 ISZERO ISZERO DUP2 EQ PUSH2 0x366 JUMPI PUSH0 DUP1 REVERT JUMPDEST SWAP4 SWAP3 POP POP POP JUMP INVALID LOG2 PUSH5 0x6970667358 0x22 SLT KECCAK256 0x4D SWAP11 0xF PUSH25 0x1E08972B34B152368F09C46E062710A2AF83FEC8C8A94D6235 0xBA MSTORE8 MUL PUSH5 0x736F6C6343 STOP ADDMOD ISZERO STOP CALLER LOG2 PUSH5 0x6970667358 0x22 SLT KECCAK256 0xDB PUSH21 0xE3E898ACFED4CF8942C8D4105FF18B269E38A924F0 0xDD 0xD 0x4B EXTCODECOPY SWAP4 0xD3 MULMOD 0xF6 0xDE PUSH5 0x736F6C6343 STOP ADDMOD ISZERO STOP CALLER "
				},
				"gasEstimates": {
					"creation": {
						"codeDepositCost": "270800",
						"executionCost": "310",
						"totalCost": "271110"
					},
					"external": {
						"callConstract()": "infinite"
					}
				},
				"methodIdentifiers": {
					"callConstract()": "ae376ecb"
				}
			},
			"storageLayout": {
				"storage": [],
				"types": null
			},
			"userdoc": {
				"kind": "user",
				"methods": {},
				"version": 1
			}
		}
	}
}