{
	"contracts/EtherStore.sol": {
		"EtherStore": {
			"abi": [
				{
					"inputs": [
						{
							"internalType": "address",
							"name": "",
							"type": "address"
						}
					],
					"name": "balances",
					"outputs": [
						{
							"internalType": "uint256",
							"name": "",
							"type": "uint256"
						}
					],
					"stateMutability": "view",
					"type": "function"
				},
				{
					"inputs": [],
					"name": "depositFunds",
					"outputs": [],
					"stateMutability": "payable",
					"type": "function"
				},
				{
					"inputs": [
						{
							"internalType": "address",
							"name": "",
							"type": "address"
						}
					],
					"name": "lastWithdrawTime",
					"outputs": [
						{
							"internalType": "uint256",
							"name": "",
							"type": "uint256"
						}
					],
					"stateMutability": "view",
					"type": "function"
				},
				{
					"inputs": [
						{
							"internalType": "uint256",
							"name": "_weiToWithdraw",
							"type": "uint256"
						}
					],
					"name": "withdrawFunds",
					"outputs": [],
					"stateMutability": "nonpayable",
					"type": "function"
				},
				{
					"inputs": [],
					"name": "withdrawLimit",
					"outputs": [
						{
							"internalType": "uint256",
							"name": "",
							"type": "uint256"
						}
					],
					"stateMutability": "view",
					"type": "function"
				}
			],
			"devdoc": {
				"kind": "dev",
				"methods": {},
				"version": 1
			},
			"evm": {
				"assembly": "    /* \"contracts/EtherStore.sol\":70:829  contract EtherStore {... */\n  mstore(0x40, 0x80)\n    /* \"contracts/EtherStore.sol\":132:139  1 ether */\n  0x0de0b6b3a7640000\n    /* \"contracts/EtherStore.sol\":101:139  uint256 public withdrawLimit = 1 ether */\n  0x00\n  sstore\n    /* \"contracts/EtherStore.sol\":70:829  contract EtherStore {... */\n  callvalue\n  dup1\n  iszero\n  tag_1\n  jumpi\n  0x00\n  dup1\n  revert\ntag_1:\n  pop\n  dataSize(sub_0)\n  dup1\n  dataOffset(sub_0)\n  0x00\n  codecopy\n  0x00\n  return\nstop\n\nsub_0: assembly {\n        /* \"contracts/EtherStore.sol\":70:829  contract EtherStore {... */\n      mstore(0x40, 0x80)\n      jumpi(tag_1, lt(calldatasize, 0x04))\n      shr(0xe0, calldataload(0x00))\n      dup1\n      0x1031ec31\n      eq\n      tag_2\n      jumpi\n      dup1\n      0x155dd5ee\n      eq\n      tag_3\n      jumpi\n      dup1\n      0x27e235e3\n      eq\n      tag_4\n      jumpi\n      dup1\n      0xe2c41dbc\n      eq\n      tag_5\n      jumpi\n      dup1\n      0xf848d541\n      eq\n      tag_6\n      jumpi\n    tag_1:\n      0x00\n      dup1\n      revert\n        /* \"contracts/EtherStore.sol\":145:197  mapping (address => uint256) public lastWithdrawTime */\n    tag_2:\n      callvalue\n      dup1\n      iszero\n      tag_7\n      jumpi\n      0x00\n      dup1\n      revert\n    tag_7:\n      pop\n      tag_8\n      0x04\n      dup1\n      calldatasize\n      sub\n      dup2\n      add\n      swap1\n      tag_9\n      swap2\n      swap1\n      tag_10\n      jump\t// in\n    tag_9:\n      tag_11\n      jump\t// in\n    tag_8:\n      mload(0x40)\n      tag_12\n      swap2\n      swap1\n      tag_13\n      jump\t// in\n    tag_12:\n      mload(0x40)\n      dup1\n      swap2\n      sub\n      swap1\n      return\n        /* \"contracts/EtherStore.sol\":394:826  function withdrawFunds(uint256 _weiToWithdraw) public {... */\n    tag_3:\n      callvalue\n      dup1\n      iszero\n      tag_14\n      jumpi\n      0x00\n      dup1\n      revert\n    tag_14:\n      pop\n      tag_15\n      0x04\n      dup1\n      calldatasize\n      sub\n      dup2\n      add\n      swap1\n      tag_16\n      swap2\n      swap1\n      tag_17\n      jump\t// in\n    tag_16:\n      tag_18\n      jump\t// in\n    tag_15:\n      stop\n        /* \"contracts/EtherStore.sol\":203:247  mapping (address => uint256) public balances */\n    tag_4:\n      callvalue\n      dup1\n      iszero\n      tag_19\n      jumpi\n      0x00\n      dup1\n      revert\n    tag_19:\n      pop\n      tag_20\n      0x04\n      dup1\n      calldatasize\n      sub\n      dup2\n      add\n      swap1\n      tag_21\n      swap2\n      swap1\n      tag_10\n      jump\t// in\n    tag_21:\n      tag_22\n      jump\t// in\n    tag_20:\n      mload(0x40)\n      tag_23\n      swap2\n      swap1\n      tag_13\n      jump\t// in\n    tag_23:\n      mload(0x40)\n      dup1\n      swap2\n      sub\n      swap1\n      return\n        /* \"contracts/EtherStore.sol\":255:388  function depositFunds() public payable {... */\n    tag_5:\n      tag_24\n      tag_25\n      jump\t// in\n    tag_24:\n      stop\n        /* \"contracts/EtherStore.sol\":101:139  uint256 public withdrawLimit = 1 ether */\n    tag_6:\n      callvalue\n      dup1\n      iszero\n      tag_26\n      jumpi\n      0x00\n      dup1\n      revert\n    tag_26:\n      pop\n      tag_27\n      tag_28\n      jump\t// in\n    tag_27:\n      mload(0x40)\n      tag_29\n      swap2\n      swap1\n      tag_13\n      jump\t// in\n    tag_29:\n      mload(0x40)\n      dup1\n      swap2\n      sub\n      swap1\n      return\n        /* \"contracts/EtherStore.sol\":145:197  mapping (address => uint256) public lastWithdrawTime */\n    tag_11:\n      mstore(0x20, 0x01)\n      dup1\n      0x00\n      mstore\n      keccak256(0x00, 0x40)\n      0x00\n      swap2\n      pop\n      swap1\n      pop\n      sload\n      dup2\n      jump\t// out\n        /* \"contracts/EtherStore.sol\":394:826  function withdrawFunds(uint256 _weiToWithdraw) public {... */\n    tag_18:\n        /* \"contracts/EtherStore.sol\":545:559  _weiToWithdraw */\n      dup1\n        /* \"contracts/EtherStore.sol\":521:529  balances */\n      0x02\n        /* \"contracts/EtherStore.sol\":521:541  balances[msg.sender] */\n      0x00\n        /* \"contracts/EtherStore.sol\":530:540  msg.sender */\n      caller\n        /* \"contracts/EtherStore.sol\":521:541  balances[msg.sender] */\n      0xffffffffffffffffffffffffffffffffffffffff\n      and\n      0xffffffffffffffffffffffffffffffffffffffff\n      and\n      dup2\n      mstore\n      0x20\n      add\n      swap1\n      dup2\n      mstore\n      0x20\n      add\n      0x00\n      keccak256\n      sload\n        /* \"contracts/EtherStore.sol\":521:559  balances[msg.sender] >= _weiToWithdraw */\n      lt\n      iszero\n        /* \"contracts/EtherStore.sol\":513:560  require(balances[msg.sender] >= _weiToWithdraw) */\n      tag_31\n      jumpi\n      0x00\n      dup1\n      revert\n    tag_31:\n        /* \"contracts/EtherStore.sol\":596:609  withdrawLimit */\n      sload(0x00)\n        /* \"contracts/EtherStore.sol\":578:592  _weiToWithdraw */\n      dup2\n        /* \"contracts/EtherStore.sol\":578:609  _weiToWithdraw <= withdrawLimit */\n      gt\n      iszero\n        /* \"contracts/EtherStore.sol\":570:610  require(_weiToWithdraw <= withdrawLimit) */\n      tag_32\n      jumpi\n      0x00\n      dup1\n      revert\n    tag_32:\n        /* \"contracts/EtherStore.sol\":678:685  1 weeks */\n      0x093a80\n        /* \"contracts/EtherStore.sol\":647:663  lastWithdrawTime */\n      0x01\n        /* \"contracts/EtherStore.sol\":647:675  lastWithdrawTime[msg.sender] */\n      0x00\n        /* \"contracts/EtherStore.sol\":664:674  msg.sender */\n      caller\n        /* \"contracts/EtherStore.sol\":647:675  lastWithdrawTime[msg.sender] */\n      0xffffffffffffffffffffffffffffffffffffffff\n      and\n      0xffffffffffffffffffffffffffffffffffffffff\n      and\n      dup2\n      mstore\n      0x20\n      add\n      swap1\n      dup2\n      mstore\n      0x20\n      add\n      0x00\n      keccak256\n      sload\n        /* \"contracts/EtherStore.sol\":647:685  lastWithdrawTime[msg.sender] + 1 weeks */\n      tag_33\n      swap2\n      swap1\n      tag_34\n      jump\t// in\n    tag_33:\n        /* \"contracts/EtherStore.sol\":628:643  block.timestamp */\n      timestamp\n        /* \"contracts/EtherStore.sol\":628:685  block.timestamp >= lastWithdrawTime[msg.sender] + 1 weeks */\n      lt\n      iszero\n        /* \"contracts/EtherStore.sol\":620:686  require(block.timestamp >= lastWithdrawTime[msg.sender] + 1 weeks) */\n      tag_35\n      jumpi\n      0x00\n      dup1\n      revert\n    tag_35:\n        /* \"contracts/EtherStore.sol\":749:763  _weiToWithdraw */\n      dup1\n        /* \"contracts/EtherStore.sol\":725:733  balances */\n      0x02\n        /* \"contracts/EtherStore.sol\":725:745  balances[msg.sender] */\n      0x00\n        /* \"contracts/EtherStore.sol\":734:744  msg.sender */\n      caller\n        /* \"contracts/EtherStore.sol\":725:745  balances[msg.sender] */\n      0xffffffffffffffffffffffffffffffffffffffff\n      and\n      0xffffffffffffffffffffffffffffffffffffffff\n      and\n      dup2\n      mstore\n      0x20\n      add\n      swap1\n      dup2\n      mstore\n      0x20\n      add\n      0x00\n      keccak256\n      0x00\n        /* \"contracts/EtherStore.sol\":725:763  balances[msg.sender] -= _weiToWithdraw */\n      dup3\n      dup3\n      sload\n      tag_36\n      swap2\n      swap1\n      tag_37\n      jump\t// in\n    tag_36:\n      swap3\n      pop\n      pop\n      dup2\n      swap1\n      sstore\n      pop\n        /* \"contracts/EtherStore.sol\":804:819  block.timestamp */\n      timestamp\n        /* \"contracts/EtherStore.sol\":773:789  lastWithdrawTime */\n      0x01\n        /* \"contracts/EtherStore.sol\":773:801  lastWithdrawTime[msg.sender] */\n      0x00\n        /* \"contracts/EtherStore.sol\":790:800  msg.sender */\n      caller\n        /* \"contracts/EtherStore.sol\":773:801  lastWithdrawTime[msg.sender] */\n      0xffffffffffffffffffffffffffffffffffffffff\n      and\n      0xffffffffffffffffffffffffffffffffffffffff\n      and\n      dup2\n      mstore\n      0x20\n      add\n      swap1\n      dup2\n      mstore\n      0x20\n      add\n      0x00\n      keccak256\n        /* \"contracts/EtherStore.sol\":773:819  lastWithdrawTime[msg.sender] = block.timestamp */\n      dup2\n      swap1\n      sstore\n      pop\n        /* \"contracts/EtherStore.sol\":394:826  function withdrawFunds(uint256 _weiToWithdraw) public {... */\n      pop\n      jump\t// out\n        /* \"contracts/EtherStore.sol\":203:247  mapping (address => uint256) public balances */\n    tag_22:\n      mstore(0x20, 0x02)\n      dup1\n      0x00\n      mstore\n      keccak256(0x00, 0x40)\n      0x00\n      swap2\n      pop\n      swap1\n      pop\n      sload\n      dup2\n      jump\t// out\n        /* \"contracts/EtherStore.sol\":255:388  function depositFunds() public payable {... */\n    tag_25:\n        /* \"contracts/EtherStore.sol\":372:381  msg.value */\n      callvalue\n        /* \"contracts/EtherStore.sol\":348:356  balances */\n      0x02\n        /* \"contracts/EtherStore.sol\":348:368  balances[msg.sender] */\n      0x00\n        /* \"contracts/EtherStore.sol\":357:367  msg.sender */\n      caller\n        /* \"contracts/EtherStore.sol\":348:368  balances[msg.sender] */\n      0xffffffffffffffffffffffffffffffffffffffff\n      and\n      0xffffffffffffffffffffffffffffffffffffffff\n      and\n      dup2\n      mstore\n      0x20\n      add\n      swap1\n      dup2\n      mstore\n      0x20\n      add\n      0x00\n      keccak256\n      0x00\n        /* \"contracts/EtherStore.sol\":348:381  balances[msg.sender] += msg.value */\n      dup3\n      dup3\n      sload\n      tag_39\n      swap2\n      swap1\n      tag_34\n      jump\t// in\n    tag_39:\n      swap3\n      pop\n      pop\n      dup2\n      swap1\n      sstore\n      pop\n        /* \"contracts/EtherStore.sol\":255:388  function depositFunds() public payable {... */\n      jump\t// out\n        /* \"contracts/EtherStore.sol\":101:139  uint256 public withdrawLimit = 1 ether */\n    tag_28:\n      sload(0x00)\n      dup2\n      jump\t// out\n        /* \"#utility.yul\":7:146   */\n    tag_41:\n        /* \"#utility.yul\":53:58   */\n      0x00\n        /* \"#utility.yul\":91:97   */\n      dup2\n        /* \"#utility.yul\":78:98   */\n      calldataload\n        /* \"#utility.yul\":69:98   */\n      swap1\n      pop\n        /* \"#utility.yul\":107:140   */\n      tag_43\n        /* \"#utility.yul\":134:139   */\n      dup2\n        /* \"#utility.yul\":107:140   */\n      tag_44\n      jump\t// in\n    tag_43:\n        /* \"#utility.yul\":7:146   */\n      swap3\n      swap2\n      pop\n      pop\n      jump\t// out\n        /* \"#utility.yul\":152:291   */\n    tag_45:\n        /* \"#utility.yul\":198:203   */\n      0x00\n        /* \"#utility.yul\":236:242   */\n      dup2\n        /* \"#utility.yul\":223:243   */\n      calldataload\n        /* \"#utility.yul\":214:243   */\n      swap1\n      pop\n        /* \"#utility.yul\":252:285   */\n      tag_47\n        /* \"#utility.yul\":279:284   */\n      dup2\n        /* \"#utility.yul\":252:285   */\n      tag_48\n      jump\t// in\n    tag_47:\n        /* \"#utility.yul\":152:291   */\n      swap3\n      swap2\n      pop\n      pop\n      jump\t// out\n        /* \"#utility.yul\":297:626   */\n    tag_10:\n        /* \"#utility.yul\":356:362   */\n      0x00\n        /* \"#utility.yul\":405:407   */\n      0x20\n        /* \"#utility.yul\":393:402   */\n      dup3\n        /* \"#utility.yul\":384:391   */\n      dup5\n        /* \"#utility.yul\":380:403   */\n      sub\n        /* \"#utility.yul\":376:408   */\n      slt\n        /* \"#utility.yul\":373:492   */\n      iszero\n      tag_50\n      jumpi\n        /* \"#utility.yul\":411:490   */\n      tag_51\n      tag_52\n      jump\t// in\n    tag_51:\n        /* \"#utility.yul\":373:492   */\n    tag_50:\n        /* \"#utility.yul\":531:532   */\n      0x00\n        /* \"#utility.yul\":556:609   */\n      tag_53\n        /* \"#utility.yul\":601:608   */\n      dup5\n        /* \"#utility.yul\":592:598   */\n      dup3\n        /* \"#utility.yul\":581:590   */\n      dup6\n        /* \"#utility.yul\":577:599   */\n      add\n        /* \"#utility.yul\":556:609   */\n      tag_41\n      jump\t// in\n    tag_53:\n        /* \"#utility.yul\":546:609   */\n      swap2\n      pop\n        /* \"#utility.yul\":502:619   */\n      pop\n        /* \"#utility.yul\":297:626   */\n      swap3\n      swap2\n      pop\n      pop\n      jump\t// out\n        /* \"#utility.yul\":632:961   */\n    tag_17:\n        /* \"#utility.yul\":691:697   */\n      0x00\n        /* \"#utility.yul\":740:742   */\n      0x20\n        /* \"#utility.yul\":728:737   */\n      dup3\n        /* \"#utility.yul\":719:726   */\n      dup5\n        /* \"#utility.yul\":715:738   */\n      sub\n        /* \"#utility.yul\":711:743   */\n      slt\n        /* \"#utility.yul\":708:827   */\n      iszero\n      tag_55\n      jumpi\n        /* \"#utility.yul\":746:825   */\n      tag_56\n      tag_52\n      jump\t// in\n    tag_56:\n        /* \"#utility.yul\":708:827   */\n    tag_55:\n        /* \"#utility.yul\":866:867   */\n      0x00\n        /* \"#utility.yul\":891:944   */\n      tag_57\n        /* \"#utility.yul\":936:943   */\n      dup5\n        /* \"#utility.yul\":927:933   */\n      dup3\n        /* \"#utility.yul\":916:925   */\n      dup6\n        /* \"#utility.yul\":912:934   */\n      add\n        /* \"#utility.yul\":891:944   */\n      tag_45\n      jump\t// in\n    tag_57:\n        /* \"#utility.yul\":881:944   */\n      swap2\n      pop\n        /* \"#utility.yul\":837:954   */\n      pop\n        /* \"#utility.yul\":632:961   */\n      swap3\n      swap2\n      pop\n      pop\n      jump\t// out\n        /* \"#utility.yul\":967:1085   */\n    tag_58:\n        /* \"#utility.yul\":1054:1078   */\n      tag_60\n        /* \"#utility.yul\":1072:1077   */\n      dup2\n        /* \"#utility.yul\":1054:1078   */\n      tag_61\n      jump\t// in\n    tag_60:\n        /* \"#utility.yul\":1049:1052   */\n      dup3\n        /* \"#utility.yul\":1042:1079   */\n      mstore\n        /* \"#utility.yul\":967:1085   */\n      pop\n      pop\n      jump\t// out\n        /* \"#utility.yul\":1091:1313   */\n    tag_13:\n        /* \"#utility.yul\":1184:1188   */\n      0x00\n        /* \"#utility.yul\":1222:1224   */\n      0x20\n        /* \"#utility.yul\":1211:1220   */\n      dup3\n        /* \"#utility.yul\":1207:1225   */\n      add\n        /* \"#utility.yul\":1199:1225   */\n      swap1\n      pop\n        /* \"#utility.yul\":1235:1306   */\n      tag_63\n        /* \"#utility.yul\":1303:1304   */\n      0x00\n        /* \"#utility.yul\":1292:1301   */\n      dup4\n        /* \"#utility.yul\":1288:1305   */\n      add\n        /* \"#utility.yul\":1279:1285   */\n      dup5\n        /* \"#utility.yul\":1235:1306   */\n      tag_58\n      jump\t// in\n    tag_63:\n        /* \"#utility.yul\":1091:1313   */\n      swap3\n      swap2\n      pop\n      pop\n      jump\t// out\n        /* \"#utility.yul\":1400:1705   */\n    tag_34:\n        /* \"#utility.yul\":1440:1443   */\n      0x00\n        /* \"#utility.yul\":1459:1479   */\n      tag_67\n        /* \"#utility.yul\":1477:1478   */\n      dup3\n        /* \"#utility.yul\":1459:1479   */\n      tag_61\n      jump\t// in\n    tag_67:\n        /* \"#utility.yul\":1454:1479   */\n      swap2\n      pop\n        /* \"#utility.yul\":1493:1513   */\n      tag_68\n        /* \"#utility.yul\":1511:1512   */\n      dup4\n        /* \"#utility.yul\":1493:1513   */\n      tag_61\n      jump\t// in\n    tag_68:\n        /* \"#utility.yul\":1488:1513   */\n      swap3\n      pop\n        /* \"#utility.yul\":1647:1648   */\n      dup3\n        /* \"#utility.yul\":1579:1645   */\n      0xffffffffffffffffffffffffffffffffffffffffffffffffffffffffffffffff\n        /* \"#utility.yul\":1575:1649   */\n      sub\n        /* \"#utility.yul\":1572:1573   */\n      dup3\n        /* \"#utility.yul\":1569:1650   */\n      gt\n        /* \"#utility.yul\":1566:1673   */\n      iszero\n      tag_69\n      jumpi\n        /* \"#utility.yul\":1653:1671   */\n      tag_70\n      tag_71\n      jump\t// in\n    tag_70:\n        /* \"#utility.yul\":1566:1673   */\n    tag_69:\n        /* \"#utility.yul\":1697:1698   */\n      dup3\n        /* \"#utility.yul\":1694:1695   */\n      dup3\n        /* \"#utility.yul\":1690:1699   */\n      add\n        /* \"#utility.yul\":1683:1699   */\n      swap1\n      pop\n        /* \"#utility.yul\":1400:1705   */\n      swap3\n      swap2\n      pop\n      pop\n      jump\t// out\n        /* \"#utility.yul\":1711:1902   */\n    tag_37:\n        /* \"#utility.yul\":1751:1755   */\n      0x00\n        /* \"#utility.yul\":1771:1791   */\n      tag_73\n        /* \"#utility.yul\":1789:1790   */\n      dup3\n        /* \"#utility.yul\":1771:1791   */\n      tag_61\n      jump\t// in\n    tag_73:\n        /* \"#utility.yul\":1766:1791   */\n      swap2\n      pop\n        /* \"#utility.yul\":1805:1825   */\n      tag_74\n        /* \"#utility.yul\":1823:1824   */\n      dup4\n        /* \"#utility.yul\":1805:1825   */\n      tag_61\n      jump\t// in\n    tag_74:\n        /* \"#utility.yul\":1800:1825   */\n      swap3\n      pop\n        /* \"#utility.yul\":1844:1845   */\n      dup3\n        /* \"#utility.yul\":1841:1842   */\n      dup3\n        /* \"#utility.yul\":1838:1846   */\n      lt\n        /* \"#utility.yul\":1835:1869   */\n      iszero\n      tag_75\n      jumpi\n        /* \"#utility.yul\":1849:1867   */\n      tag_76\n      tag_71\n      jump\t// in\n    tag_76:\n        /* \"#utility.yul\":1835:1869   */\n    tag_75:\n        /* \"#utility.yul\":1894:1895   */\n      dup3\n        /* \"#utility.yul\":1891:1892   */\n      dup3\n        /* \"#utility.yul\":1887:1896   */\n      sub\n        /* \"#utility.yul\":1879:1896   */\n      swap1\n      pop\n        /* \"#utility.yul\":1711:1902   */\n      swap3\n      swap2\n      pop\n      pop\n      jump\t// out\n        /* \"#utility.yul\":1908:2004   */\n    tag_77:\n        /* \"#utility.yul\":1945:1952   */\n      0x00\n        /* \"#utility.yul\":1974:1998   */\n      tag_79\n        /* \"#utility.yul\":1992:1997   */\n      dup3\n        /* \"#utility.yul\":1974:1998   */\n      tag_80\n      jump\t// in\n    tag_79:\n        /* \"#utility.yul\":1963:1998   */\n      swap1\n      pop\n        /* \"#utility.yul\":1908:2004   */\n      swap2\n      swap1\n      pop\n      jump\t// out\n        /* \"#utility.yul\":2010:2136   */\n    tag_80:\n        /* \"#utility.yul\":2047:2054   */\n      0x00\n        /* \"#utility.yul\":2087:2129   */\n      0xffffffffffffffffffffffffffffffffffffffff\n        /* \"#utility.yul\":2080:2085   */\n      dup3\n        /* \"#utility.yul\":2076:2130   */\n      and\n        /* \"#utility.yul\":2065:2130   */\n      swap1\n      pop\n        /* \"#utility.yul\":2010:2136   */\n      swap2\n      swap1\n      pop\n      jump\t// out\n        /* \"#utility.yul\":2142:2219   */\n    tag_61:\n        /* \"#utility.yul\":2179:2186   */\n      0x00\n        /* \"#utility.yul\":2208:2213   */\n      dup2\n        /* \"#utility.yul\":2197:2213   */\n      swap1\n      pop\n        /* \"#utility.yul\":2142:2219   */\n      swap2\n      swap1\n      pop\n      jump\t// out\n        /* \"#utility.yul\":2225:2405   */\n    tag_71:\n        /* \"#utility.yul\":2273:2350   */\n      0x4e487b7100000000000000000000000000000000000000000000000000000000\n        /* \"#utility.yul\":2270:2271   */\n      0x00\n        /* \"#utility.yul\":2263:2351   */\n      mstore\n        /* \"#utility.yul\":2370:2374   */\n      0x11\n        /* \"#utility.yul\":2367:2368   */\n      0x04\n        /* \"#utility.yul\":2360:2375   */\n      mstore\n        /* \"#utility.yul\":2394:2398   */\n      0x24\n        /* \"#utility.yul\":2391:2392   */\n      0x00\n        /* \"#utility.yul\":2384:2399   */\n      revert\n        /* \"#utility.yul\":2534:2651   */\n    tag_52:\n        /* \"#utility.yul\":2643:2644   */\n      0x00\n        /* \"#utility.yul\":2640:2641   */\n      dup1\n        /* \"#utility.yul\":2633:2645   */\n      revert\n        /* \"#utility.yul\":2657:2779   */\n    tag_44:\n        /* \"#utility.yul\":2730:2754   */\n      tag_88\n        /* \"#utility.yul\":2748:2753   */\n      dup2\n        /* \"#utility.yul\":2730:2754   */\n      tag_77\n      jump\t// in\n    tag_88:\n        /* \"#utility.yul\":2723:2728   */\n      dup2\n        /* \"#utility.yul\":2720:2755   */\n      eq\n        /* \"#utility.yul\":2710:2773   */\n      tag_89\n      jumpi\n        /* \"#utility.yul\":2769:2770   */\n      0x00\n        /* \"#utility.yul\":2766:2767   */\n      dup1\n        /* \"#utility.yul\":2759:2771   */\n      revert\n        /* \"#utility.yul\":2710:2773   */\n    tag_89:\n        /* \"#utility.yul\":2657:2779   */\n      pop\n      jump\t// out\n        /* \"#utility.yul\":2785:2907   */\n    tag_48:\n        /* \"#utility.yul\":2858:2882   */\n      tag_91\n        /* \"#utility.yul\":2876:2881   */\n      dup2\n        /* \"#utility.yul\":2858:2882   */\n      tag_61\n      jump\t// in\n    tag_91:\n        /* \"#utility.yul\":2851:2856   */\n      dup2\n        /* \"#utility.yul\":2848:2883   */\n      eq\n        /* \"#utility.yul\":2838:2901   */\n      tag_92\n      jumpi\n        /* \"#utility.yul\":2897:2898   */\n      0x00\n        /* \"#utility.yul\":2894:2895   */\n      dup1\n        /* \"#utility.yul\":2887:2899   */\n      revert\n        /* \"#utility.yul\":2838:2901   */\n    tag_92:\n        /* \"#utility.yul\":2785:2907   */\n      pop\n      jump\t// out\n\n    auxdata: 0xa2646970667358221220a6966485a9d1763e20146effe2b82efacfbd3dac3e35aec487580a2f9fa9c34164736f6c63430008070033\n}\n",
				"bytecode": {
					"linkReferences": {},
					"object": "6080604052670de0b6b3a764000060005534801561001c57600080fd5b506105138061002c6000396000f3fe60806040526004361061004a5760003560e01c80631031ec311461004f578063155dd5ee1461008c57806327e235e3146100b5578063e2c41dbc146100f2578063f848d541146100fc575b600080fd5b34801561005b57600080fd5b5061007660048036038101906100719190610331565b610127565b604051610083919061039a565b60405180910390f35b34801561009857600080fd5b506100b360048036038101906100ae919061035e565b61013f565b005b3480156100c157600080fd5b506100dc60048036038101906100d79190610331565b610291565b6040516100e9919061039a565b60405180910390f35b6100fa6102a9565b005b34801561010857600080fd5b50610111610301565b60405161011e919061039a565b60405180910390f35b60016020528060005260406000206000915090505481565b80600260003373ffffffffffffffffffffffffffffffffffffffff1673ffffffffffffffffffffffffffffffffffffffff16815260200190815260200160002054101561018b57600080fd5b60005481111561019a57600080fd5b62093a80600160003373ffffffffffffffffffffffffffffffffffffffff1673ffffffffffffffffffffffffffffffffffffffff168152602001908152602001600020546101e891906103b5565b4210156101f457600080fd5b80600260003373ffffffffffffffffffffffffffffffffffffffff1673ffffffffffffffffffffffffffffffffffffffff1681526020019081526020016000206000828254610243919061040b565b9250508190555042600160003373ffffffffffffffffffffffffffffffffffffffff1673ffffffffffffffffffffffffffffffffffffffff1681526020019081526020016000208190555050565b60026020528060005260406000206000915090505481565b34600260003373ffffffffffffffffffffffffffffffffffffffff1673ffffffffffffffffffffffffffffffffffffffff16815260200190815260200160002060008282546102f891906103b5565b92505081905550565b60005481565b600081359050610316816104af565b92915050565b60008135905061032b816104c6565b92915050565b600060208284031215610347576103466104aa565b5b600061035584828501610307565b91505092915050565b600060208284031215610374576103736104aa565b5b60006103828482850161031c565b91505092915050565b61039481610471565b82525050565b60006020820190506103af600083018461038b565b92915050565b60006103c082610471565b91506103cb83610471565b9250827fffffffffffffffffffffffffffffffffffffffffffffffffffffffffffffffff03821115610400576103ff61047b565b5b828201905092915050565b600061041682610471565b915061042183610471565b9250828210156104345761043361047b565b5b828203905092915050565b600061044a82610451565b9050919050565b600073ffffffffffffffffffffffffffffffffffffffff82169050919050565b6000819050919050565b7f4e487b7100000000000000000000000000000000000000000000000000000000600052601160045260246000fd5b600080fd5b6104b88161043f565b81146104c357600080fd5b50565b6104cf81610471565b81146104da57600080fd5b5056fea2646970667358221220a6966485a9d1763e20146effe2b82efacfbd3dac3e35aec487580a2f9fa9c34164736f6c63430008070033",
					"opcodes": "PUSH1 0x80 PUSH1 0x40 MSTORE PUSH8 0xDE0B6B3A7640000 PUSH1 0x0 SSTORE CALLVALUE DUP1 ISZERO PUSH2 0x1C JUMPI PUSH1 0x0 DUP1 REVERT JUMPDEST POP PUSH2 0x513 DUP1 PUSH2 0x2C PUSH1 0x0 CODECOPY PUSH1 0x0 RETURN INVALID PUSH1 0x80 PUSH1 0x40 MSTORE PUSH1 0x4 CALLDATASIZE LT PUSH2 0x4A JUMPI PUSH1 0x0 CALLDATALOAD PUSH1 0xE0 SHR DUP1 PUSH4 0x1031EC31 EQ PUSH2 0x4F JUMPI DUP1 PUSH4 0x155DD5EE EQ PUSH2 0x8C JUMPI DUP1 PUSH4 0x27E235E3 EQ PUSH2 0xB5 JUMPI DUP1 PUSH4 0xE2C41DBC EQ PUSH2 0xF2 JUMPI DUP1 PUSH4 0xF848D541 EQ PUSH2 0xFC JUMPI JUMPDEST PUSH1 0x0 DUP1 REVERT JUMPDEST CALLVALUE DUP1 ISZERO PUSH2 0x5B JUMPI PUSH1 0x0 DUP1 REVERT JUMPDEST POP PUSH2 0x76 PUSH1 0x4 DUP1 CALLDATASIZE SUB DUP2 ADD SWAP1 PUSH2 0x71 SWAP2 SWAP1 PUSH2 0x331 JUMP JUMPDEST PUSH2 0x127 JUMP JUMPDEST PUSH1 0x40 MLOAD PUSH2 0x83 SWAP2 SWAP1 PUSH2 0x39A JUMP JUMPDEST PUSH1 0x40 MLOAD DUP1 SWAP2 SUB SWAP1 RETURN JUMPDEST CALLVALUE DUP1 ISZERO PUSH2 0x98 JUMPI PUSH1 0x0 DUP1 REVERT JUMPDEST POP PUSH2 0xB3 PUSH1 0x4 DUP1 CALLDATASIZE SUB DUP2 ADD SWAP1 PUSH2 0xAE SWAP2 SWAP1 PUSH2 0x35E JUMP JUMPDEST PUSH2 0x13F JUMP JUMPDEST STOP JUMPDEST CALLVALUE DUP1 ISZERO PUSH2 0xC1 JUMPI PUSH1 0x0 DUP1 REVERT JUMPDEST POP PUSH2 0xDC PUSH1 0x4 DUP1 CALLDATASIZE SUB DUP2 ADD SWAP1 PUSH2 0xD7 SWAP2 SWAP1 PUSH2 0x331 JUMP JUMPDEST PUSH2 0x291 JUMP JUMPDEST PUSH1 0x40 MLOAD PUSH2 0xE9 SWAP2 SWAP1 PUSH2 0x39A JUMP JUMPDEST PUSH1 0x40 MLOAD DUP1 SWAP2 SUB SWAP1 RETURN JUMPDEST PUSH2 0xFA PUSH2 0x2A9 JUMP JUMPDEST STOP JUMPDEST CALLVALUE DUP1 ISZERO PUSH2 0x108 JUMPI PUSH1 0x0 DUP1 REVERT JUMPDEST POP PUSH2 0x111 PUSH2 0x301 JUMP JUMPDEST PUSH1 0x40 MLOAD PUSH2 0x11E SWAP2 SWAP1 PUSH2 0x39A JUMP JUMPDEST PUSH1 0x40 MLOAD DUP1 SWAP2 SUB SWAP1 RETURN JUMPDEST PUSH1 0x1 PUSH1 0x20 MSTORE DUP1 PUSH1 0x0 MSTORE PUSH1 0x40 PUSH1 0x0 KECCAK256 PUSH1 0x0 SWAP2 POP SWAP1 POP SLOAD DUP2 JUMP JUMPDEST DUP1 PUSH1 0x2 PUSH1 0x0 CALLER PUSH20 0xFFFFFFFFFFFFFFFFFFFFFFFFFFFFFFFFFFFFFFFF AND PUSH20 0xFFFFFFFFFFFFFFFFFFFFFFFFFFFFFFFFFFFFFFFF AND DUP2 MSTORE PUSH1 0x20 ADD SWAP1 DUP2 MSTORE PUSH1 0x20 ADD PUSH1 0x0 KECCAK256 SLOAD LT ISZERO PUSH2 0x18B JUMPI PUSH1 0x0 DUP1 REVERT JUMPDEST PUSH1 0x0 SLOAD DUP2 GT ISZERO PUSH2 0x19A JUMPI PUSH1 0x0 DUP1 REVERT JUMPDEST PUSH3 0x93A80 PUSH1 0x1 PUSH1 0x0 CALLER PUSH20 0xFFFFFFFFFFFFFFFFFFFFFFFFFFFFFFFFFFFFFFFF AND PUSH20 0xFFFFFFFFFFFFFFFFFFFFFFFFFFFFFFFFFFFFFFFF AND DUP2 MSTORE PUSH1 0x20 ADD SWAP1 DUP2 MSTORE PUSH1 0x20 ADD PUSH1 0x0 KECCAK256 SLOAD PUSH2 0x1E8 SWAP2 SWAP1 PUSH2 0x3B5 JUMP JUMPDEST TIMESTAMP LT ISZERO PUSH2 0x1F4 JUMPI PUSH1 0x0 DUP1 REVERT JUMPDEST DUP1 PUSH1 0x2 PUSH1 0x0 CALLER PUSH20 0xFFFFFFFFFFFFFFFFFFFFFFFFFFFFFFFFFFFFFFFF AND PUSH20 0xFFFFFFFFFFFFFFFFFFFFFFFFFFFFFFFFFFFFFFFF AND DUP2 MSTORE PUSH1 0x20 ADD SWAP1 DUP2 MSTORE PUSH1 0x20 ADD PUSH1 0x0 KECCAK256 PUSH1 0x0 DUP3 DUP3 SLOAD PUSH2 0x243 SWAP2 SWAP1 PUSH2 0x40B JUMP JUMPDEST SWAP3 POP POP DUP2 SWAP1 SSTORE POP TIMESTAMP PUSH1 0x1 PUSH1 0x0 CALLER PUSH20 0xFFFFFFFFFFFFFFFFFFFFFFFFFFFFFFFFFFFFFFFF AND PUSH20 0xFFFFFFFFFFFFFFFFFFFFFFFFFFFFFFFFFFFFFFFF AND DUP2 MSTORE PUSH1 0x20 ADD SWAP1 DUP2 MSTORE PUSH1 0x20 ADD PUSH1 0x0 KECCAK256 DUP2 SWAP1 SSTORE POP POP JUMP JUMPDEST PUSH1 0x2 PUSH1 0x20 MSTORE DUP1 PUSH1 0x0 MSTORE PUSH1 0x40 PUSH1 0x0 KECCAK256 PUSH1 0x0 SWAP2 POP SWAP1 POP SLOAD DUP2 JUMP JUMPDEST CALLVALUE PUSH1 0x2 PUSH1 0x0 CALLER PUSH20 0xFFFFFFFFFFFFFFFFFFFFFFFFFFFFFFFFFFFFFFFF AND PUSH20 0xFFFFFFFFFFFFFFFFFFFFFFFFFFFFFFFFFFFFFFFF AND DUP2 MSTORE PUSH1 0x20 ADD SWAP1 DUP2 MSTORE PUSH1 0x20 ADD PUSH1 0x0 KECCAK256 PUSH1 0x0 DUP3 DUP3 SLOAD PUSH2 0x2F8 SWAP2 SWAP1 PUSH2 0x3B5 JUMP JUMPDEST SWAP3 POP POP DUP2 SWAP1 SSTORE POP JUMP JUMPDEST PUSH1 0x0 SLOAD DUP2 JUMP JUMPDEST PUSH1 0x0 DUP2 CALLDATALOAD SWAP1 POP PUSH2 0x316 DUP2 PUSH2 0x4AF JUMP JUMPDEST SWAP3 SWAP2 POP POP JUMP JUMPDEST PUSH1 0x0 DUP2 CALLDATALOAD SWAP1 POP PUSH2 0x32B DUP2 PUSH2 0x4C6 JUMP JUMPDEST SWAP3 SWAP2 POP POP JUMP JUMPDEST PUSH1 0x0 PUSH1 0x20 DUP3 DUP5 SUB SLT ISZERO PUSH2 0x347 JUMPI PUSH2 0x346 PUSH2 0x4AA JUMP JUMPDEST JUMPDEST PUSH1 0x0 PUSH2 0x355 DUP5 DUP3 DUP6 ADD PUSH2 0x307 JUMP JUMPDEST SWAP2 POP POP SWAP3 SWAP2 POP POP JUMP JUMPDEST PUSH1 0x0 PUSH1 0x20 DUP3 DUP5 SUB SLT ISZERO PUSH2 0x374 JUMPI PUSH2 0x373 PUSH2 0x4AA JUMP JUMPDEST JUMPDEST PUSH1 0x0 PUSH2 0x382 DUP5 DUP3 DUP6 ADD PUSH2 0x31C JUMP JUMPDEST SWAP2 POP POP SWAP3 SWAP2 POP POP JUMP JUMPDEST PUSH2 0x394 DUP2 PUSH2 0x471 JUMP JUMPDEST DUP3 MSTORE POP POP JUMP JUMPDEST PUSH1 0x0 PUSH1 0x20 DUP3 ADD SWAP1 POP PUSH2 0x3AF PUSH1 0x0 DUP4 ADD DUP5 PUSH2 0x38B JUMP JUMPDEST SWAP3 SWAP2 POP POP JUMP JUMPDEST PUSH1 0x0 PUSH2 0x3C0 DUP3 PUSH2 0x471 JUMP JUMPDEST SWAP2 POP PUSH2 0x3CB DUP4 PUSH2 0x471 JUMP JUMPDEST SWAP3 POP DUP3 PUSH32 0xFFFFFFFFFFFFFFFFFFFFFFFFFFFFFFFFFFFFFFFFFFFFFFFFFFFFFFFFFFFFFFFF SUB DUP3 GT ISZERO PUSH2 0x400 JUMPI PUSH2 0x3FF PUSH2 0x47B JUMP JUMPDEST JUMPDEST DUP3 DUP3 ADD SWAP1 POP SWAP3 SWAP2 POP POP JUMP JUMPDEST PUSH1 0x0 PUSH2 0x416 DUP3 PUSH2 0x471 JUMP JUMPDEST SWAP2 POP PUSH2 0x421 DUP4 PUSH2 0x471 JUMP JUMPDEST SWAP3 POP DUP3 DUP3 LT ISZERO PUSH2 0x434 JUMPI PUSH2 0x433 PUSH2 0x47B JUMP JUMPDEST JUMPDEST DUP3 DUP3 SUB SWAP1 POP SWAP3 SWAP2 POP POP JUMP JUMPDEST PUSH1 0x0 PUSH2 0x44A DUP3 PUSH2 0x451 JUMP JUMPDEST SWAP1 POP SWAP2 SWAP1 POP JUMP JUMPDEST PUSH1 0x0 PUSH20 0xFFFFFFFFFFFFFFFFFFFFFFFFFFFFFFFFFFFFFFFF DUP3 AND SWAP1 POP SWAP2 SWAP1 POP JUMP JUMPDEST PUSH1 0x0 DUP2 SWAP1 POP SWAP2 SWAP1 POP JUMP JUMPDEST PUSH32 0x4E487B7100000000000000000000000000000000000000000000000000000000 PUSH1 0x0 MSTORE PUSH1 0x11 PUSH1 0x4 MSTORE PUSH1 0x24 PUSH1 0x0 REVERT JUMPDEST PUSH1 0x0 DUP1 REVERT JUMPDEST PUSH2 0x4B8 DUP2 PUSH2 0x43F JUMP JUMPDEST DUP2 EQ PUSH2 0x4C3 JUMPI PUSH1 0x0 DUP1 REVERT JUMPDEST POP JUMP JUMPDEST PUSH2 0x4CF DUP2 PUSH2 0x471 JUMP JUMPDEST DUP2 EQ PUSH2 0x4DA JUMPI PUSH1 0x0 DUP1 REVERT JUMPDEST POP JUMP INVALID LOG2 PUSH5 0x6970667358 0x22 SLT KECCAK256 0xA6 SWAP7 PUSH5 0x85A9D1763E KECCAK256 EQ PUSH15 0xFFE2B82EFACFBD3DAC3E35AEC48758 EXP 0x2F SWAP16 0xA9 0xC3 COINBASE PUSH5 0x736F6C6343 STOP ADDMOD SMOD STOP CALLER "
				},
				"gasEstimates": {
					"creation": {
						"codeDepositCost": "259800",
						"executionCost": "22406",
						"totalCost": "282206"
					},
					"external": {
						"balances(address)": "2836",
						"depositFunds()": "infinite",
						"lastWithdrawTime(address)": "2792",
						"withdrawFunds(uint256)": "infinite",
						"withdrawLimit()": "2495"
					}
				},
				"methodIdentifiers": {
					"balances(address)": "27e235e3",
					"depositFunds()": "e2c41dbc",
					"lastWithdrawTime(address)": "1031ec31",
					"withdrawFunds(uint256)": "155dd5ee",
					"withdrawLimit()": "f848d541"
				}
			},
			"storageLayout": {
				"storage": [
					{
						"astId": 4,
						"contract": "contracts/EtherStore.sol:EtherStore",
						"label": "withdrawLimit",
						"offset": 0,
						"slot": "0",
						"type": "t_uint256"
					},
					{
						"astId": 8,
						"contract": "contracts/EtherStore.sol:EtherStore",
						"label": "lastWithdrawTime",
						"offset": 0,
						"slot": "1",
						"type": "t_mapping(t_address,t_uint256)"
					},
					{
						"astId": 12,
						"contract": "contracts/EtherStore.sol:EtherStore",
						"label": "balances",
						"offset": 0,
						"slot": "2",
						"type": "t_mapping(t_address,t_uint256)"
					}
				],
				"types": {
					"t_address": {
						"encoding": "inplace",
						"label": "address",
						"numberOfBytes": "20"
					},
					"t_mapping(t_address,t_uint256)": {
						"encoding": "mapping",
						"key": "t_address",
						"label": "mapping(address => uint256)",
						"numberOfBytes": "32",
						"value": "t_uint256"
					},
					"t_uint256": {
						"encoding": "inplace",
						"label": "uint256",
						"numberOfBytes": "32"
					}
				}
			},
			"userdoc": {
				"kind": "user",
				"methods": {},
				"version": 1
			}
		}
	}
}