{
	"data": {
		"bytecode": {
			"linkReferences": {},
			"object": "60806040526729a2241af62c0000600055671bc16d674ec80000600155674563918244f400006002556729a2241af62c0000600355678ac7230489e80000600455674563918244f4000060055534801561005857600080fd5b5061054c806100686000396000f3fe60806040526004361061007b5760003560e01c806382d4a75c1161004e57806382d4a75c1461012c5780638c6f37591461015757806393e84cd914610182578063b88a802f1461018c5761007b565b806316a1883a146100805780631c95cfc1146100ab57806333c2a9f8146100d65780636e1d553714610101575b600080fd5b34801561008c57600080fd5b506100956101a3565b6040516100a2919061046c565b60405180910390f35b3480156100b757600080fd5b506100c06101a9565b6040516100cd919061046c565b60405180910390f35b3480156100e257600080fd5b506100eb6101af565b6040516100f8919061046c565b60405180910390f35b34801561010d57600080fd5b506101166101b5565b604051610123919061046c565b60405180910390f35b34801561013857600080fd5b506101416101bb565b60405161014e919061046c565b60405180910390f35b34801561016357600080fd5b5061016c6101c1565b604051610179919061046c565b60405180910390f35b61018a6101c7565b005b34801561019857600080fd5b506101a1610330565b005b60045481565b60025481565b60005481565b60055481565b60015481565b60035481565b6706f05b59d3b2000034146101db57600080fd5b600034476101e99190610487565b90506004548111156101fa57600080fd5b60005481141561026157600154600660003373ffffffffffffffffffffffffffffffffffffffff1673ffffffffffffffffffffffffffffffffffffffff16815260200190815260200160002060008282546102559190610487565b9250508190555061032d565b6002548114156102c857600354600660003373ffffffffffffffffffffffffffffffffffffffff1673ffffffffffffffffffffffffffffffffffffffff16815260200190815260200160002060008282546102bc9190610487565b9250508190555061032c565b60045481141561032b57600554600660003373ffffffffffffffffffffffffffffffffffffffff1673ffffffffffffffffffffffffffffffffffffffff16815260200190815260200160002060008282546103239190610487565b925050819055505b5b5b50565b600454471461033e57600080fd5b6000600660003373ffffffffffffffffffffffffffffffffffffffff1673ffffffffffffffffffffffffffffffffffffffff168152602001908152602001600020541161038a57600080fd5b6000600660003373ffffffffffffffffffffffffffffffffffffffff1673ffffffffffffffffffffffffffffffffffffffff1681526020019081526020016000205490506000600660003373ffffffffffffffffffffffffffffffffffffffff1673ffffffffffffffffffffffffffffffffffffffff168152602001908152602001600020819055503373ffffffffffffffffffffffffffffffffffffffff166108fc829081150290604051600060405180830381858888f19350505050158015610459573d6000803e3d6000fd5b5050565b610466816104dd565b82525050565b6000602082019050610481600083018461045d565b92915050565b6000610492826104dd565b915061049d836104dd565b9250827fffffffffffffffffffffffffffffffffffffffffffffffffffffffffffffffff038211156104d2576104d16104e7565b5b828201905092915050565b6000819050919050565b7f4e487b7100000000000000000000000000000000000000000000000000000000600052601160045260246000fdfea2646970667358221220d75077481a6852771db0d01dce4166cfce93c53cebc5b340c38c65d32ec4a05264736f6c63430008070033",
			"opcodes": "PUSH1 0x80 PUSH1 0x40 MSTORE PUSH8 0x29A2241AF62C0000 PUSH1 0x0 SSTORE PUSH8 0x1BC16D674EC80000 PUSH1 0x1 SSTORE PUSH8 0x4563918244F40000 PUSH1 0x2 SSTORE PUSH8 0x29A2241AF62C0000 PUSH1 0x3 SSTORE PUSH8 0x8AC7230489E80000 PUSH1 0x4 SSTORE PUSH8 0x4563918244F40000 PUSH1 0x5 SSTORE CALLVALUE DUP1 ISZERO PUSH2 0x58 JUMPI PUSH1 0x0 DUP1 REVERT JUMPDEST POP PUSH2 0x54C DUP1 PUSH2 0x68 PUSH1 0x0 CODECOPY PUSH1 0x0 RETURN INVALID PUSH1 0x80 PUSH1 0x40 MSTORE PUSH1 0x4 CALLDATASIZE LT PUSH2 0x7B JUMPI PUSH1 0x0 CALLDATALOAD PUSH1 0xE0 SHR DUP1 PUSH4 0x82D4A75C GT PUSH2 0x4E JUMPI DUP1 PUSH4 0x82D4A75C EQ PUSH2 0x12C JUMPI DUP1 PUSH4 0x8C6F3759 EQ PUSH2 0x157 JUMPI DUP1 PUSH4 0x93E84CD9 EQ PUSH2 0x182 JUMPI DUP1 PUSH4 0xB88A802F EQ PUSH2 0x18C JUMPI PUSH2 0x7B JUMP JUMPDEST DUP1 PUSH4 0x16A1883A EQ PUSH2 0x80 JUMPI DUP1 PUSH4 0x1C95CFC1 EQ PUSH2 0xAB JUMPI DUP1 PUSH4 0x33C2A9F8 EQ PUSH2 0xD6 JUMPI DUP1 PUSH4 0x6E1D5537 EQ PUSH2 0x101 JUMPI JUMPDEST PUSH1 0x0 DUP1 REVERT JUMPDEST CALLVALUE DUP1 ISZERO PUSH2 0x8C JUMPI PUSH1 0x0 DUP1 REVERT JUMPDEST POP PUSH2 0x95 PUSH2 0x1A3 JUMP JUMPDEST PUSH1 0x40 MLOAD PUSH2 0xA2 SWAP2 SWAP1 PUSH2 0x46C JUMP JUMPDEST PUSH1 0x40 MLOAD DUP1 SWAP2 SUB SWAP1 RETURN JUMPDEST CALLVALUE DUP1 ISZERO PUSH2 0xB7 JUMPI PUSH1 0x0 DUP1 REVERT JUMPDEST POP PUSH2 0xC0 PUSH2 0x1A9 JUMP JUMPDEST PUSH1 0x40 MLOAD PUSH2 0xCD SWAP2 SWAP1 PUSH2 0x46C JUMP JUMPDEST PUSH1 0x40 MLOAD DUP1 SWAP2 SUB SWAP1 RETURN JUMPDEST CALLVALUE DUP1 ISZERO PUSH2 0xE2 JUMPI PUSH1 0x0 DUP1 REVERT JUMPDEST POP PUSH2 0xEB PUSH2 0x1AF JUMP JUMPDEST PUSH1 0x40 MLOAD PUSH2 0xF8 SWAP2 SWAP1 PUSH2 0x46C JUMP JUMPDEST PUSH1 0x40 MLOAD DUP1 SWAP2 SUB SWAP1 RETURN JUMPDEST CALLVALUE DUP1 ISZERO PUSH2 0x10D JUMPI PUSH1 0x0 DUP1 REVERT JUMPDEST POP PUSH2 0x116 PUSH2 0x1B5 JUMP JUMPDEST PUSH1 0x40 MLOAD PUSH2 0x123 SWAP2 SWAP1 PUSH2 0x46C JUMP JUMPDEST PUSH1 0x40 MLOAD DUP1 SWAP2 SUB SWAP1 RETURN JUMPDEST CALLVALUE DUP1 ISZERO PUSH2 0x138 JUMPI PUSH1 0x0 DUP1 REVERT JUMPDEST POP PUSH2 0x141 PUSH2 0x1BB JUMP JUMPDEST PUSH1 0x40 MLOAD PUSH2 0x14E SWAP2 SWAP1 PUSH2 0x46C JUMP JUMPDEST PUSH1 0x40 MLOAD DUP1 SWAP2 SUB SWAP1 RETURN JUMPDEST CALLVALUE DUP1 ISZERO PUSH2 0x163 JUMPI PUSH1 0x0 DUP1 REVERT JUMPDEST POP PUSH2 0x16C PUSH2 0x1C1 JUMP JUMPDEST PUSH1 0x40 MLOAD PUSH2 0x179 SWAP2 SWAP1 PUSH2 0x46C JUMP JUMPDEST PUSH1 0x40 MLOAD DUP1 SWAP2 SUB SWAP1 RETURN JUMPDEST PUSH2 0x18A PUSH2 0x1C7 JUMP JUMPDEST STOP JUMPDEST CALLVALUE DUP1 ISZERO PUSH2 0x198 JUMPI PUSH1 0x0 DUP1 REVERT JUMPDEST POP PUSH2 0x1A1 PUSH2 0x330 JUMP JUMPDEST STOP JUMPDEST PUSH1 0x4 SLOAD DUP2 JUMP JUMPDEST PUSH1 0x2 SLOAD DUP2 JUMP JUMPDEST PUSH1 0x0 SLOAD DUP2 JUMP JUMPDEST PUSH1 0x5 SLOAD DUP2 JUMP JUMPDEST PUSH1 0x1 SLOAD DUP2 JUMP JUMPDEST PUSH1 0x3 SLOAD DUP2 JUMP JUMPDEST PUSH8 0x6F05B59D3B20000 CALLVALUE EQ PUSH2 0x1DB JUMPI PUSH1 0x0 DUP1 REVERT JUMPDEST PUSH1 0x0 CALLVALUE SELFBALANCE PUSH2 0x1E9 SWAP2 SWAP1 PUSH2 0x487 JUMP JUMPDEST SWAP1 POP PUSH1 0x4 SLOAD DUP2 GT ISZERO PUSH2 0x1FA JUMPI PUSH1 0x0 DUP1 REVERT JUMPDEST PUSH1 0x0 SLOAD DUP2 EQ ISZERO PUSH2 0x261 JUMPI PUSH1 0x1 SLOAD PUSH1 0x6 PUSH1 0x0 CALLER PUSH20 0xFFFFFFFFFFFFFFFFFFFFFFFFFFFFFFFFFFFFFFFF AND PUSH20 0xFFFFFFFFFFFFFFFFFFFFFFFFFFFFFFFFFFFFFFFF AND DUP2 MSTORE PUSH1 0x20 ADD SWAP1 DUP2 MSTORE PUSH1 0x20 ADD PUSH1 0x0 KECCAK256 PUSH1 0x0 DUP3 DUP3 SLOAD PUSH2 0x255 SWAP2 SWAP1 PUSH2 0x487 JUMP JUMPDEST SWAP3 POP POP DUP2 SWAP1 SSTORE POP PUSH2 0x32D JUMP JUMPDEST PUSH1 0x2 SLOAD DUP2 EQ ISZERO PUSH2 0x2C8 JUMPI PUSH1 0x3 SLOAD PUSH1 0x6 PUSH1 0x0 CALLER PUSH20 0xFFFFFFFFFFFFFFFFFFFFFFFFFFFFFFFFFFFFFFFF AND PUSH20 0xFFFFFFFFFFFFFFFFFFFFFFFFFFFFFFFFFFFFFFFF AND DUP2 MSTORE PUSH1 0x20 ADD SWAP1 DUP2 MSTORE PUSH1 0x20 ADD PUSH1 0x0 KECCAK256 PUSH1 0x0 DUP3 DUP3 SLOAD PUSH2 0x2BC SWAP2 SWAP1 PUSH2 0x487 JUMP JUMPDEST SWAP3 POP POP DUP2 SWAP1 SSTORE POP PUSH2 0x32C JUMP JUMPDEST PUSH1 0x4 SLOAD DUP2 EQ ISZERO PUSH2 0x32B JUMPI PUSH1 0x5 SLOAD PUSH1 0x6 PUSH1 0x0 CALLER PUSH20 0xFFFFFFFFFFFFFFFFFFFFFFFFFFFFFFFFFFFFFFFF AND PUSH20 0xFFFFFFFFFFFFFFFFFFFFFFFFFFFFFFFFFFFFFFFF AND DUP2 MSTORE PUSH1 0x20 ADD SWAP1 DUP2 MSTORE PUSH1 0x20 ADD PUSH1 0x0 KECCAK256 PUSH1 0x0 DUP3 DUP3 SLOAD PUSH2 0x323 SWAP2 SWAP1 PUSH2 0x487 JUMP JUMPDEST SWAP3 POP POP DUP2 SWAP1 SSTORE POP JUMPDEST JUMPDEST JUMPDEST POP JUMP JUMPDEST PUSH1 0x4 SLOAD SELFBALANCE EQ PUSH2 0x33E JUMPI PUSH1 0x0 DUP1 REVERT JUMPDEST PUSH1 0x0 PUSH1 0x6 PUSH1 0x0 CALLER PUSH20 0xFFFFFFFFFFFFFFFFFFFFFFFFFFFFFFFFFFFFFFFF AND PUSH20 0xFFFFFFFFFFFFFFFFFFFFFFFFFFFFFFFFFFFFFFFF AND DUP2 MSTORE PUSH1 0x20 ADD SWAP1 DUP2 MSTORE PUSH1 0x20 ADD PUSH1 0x0 KECCAK256 SLOAD GT PUSH2 0x38A JUMPI PUSH1 0x0 DUP1 REVERT JUMPDEST PUSH1 0x0 PUSH1 0x6 PUSH1 0x0 CALLER PUSH20 0xFFFFFFFFFFFFFFFFFFFFFFFFFFFFFFFFFFFFFFFF AND PUSH20 0xFFFFFFFFFFFFFFFFFFFFFFFFFFFFFFFFFFFFFFFF AND DUP2 MSTORE PUSH1 0x20 ADD SWAP1 DUP2 MSTORE PUSH1 0x20 ADD PUSH1 0x0 KECCAK256 SLOAD SWAP1 POP PUSH1 0x0 PUSH1 0x6 PUSH1 0x0 CALLER PUSH20 0xFFFFFFFFFFFFFFFFFFFFFFFFFFFFFFFFFFFFFFFF AND PUSH20 0xFFFFFFFFFFFFFFFFFFFFFFFFFFFFFFFFFFFFFFFF AND DUP2 MSTORE PUSH1 0x20 ADD SWAP1 DUP2 MSTORE PUSH1 0x20 ADD PUSH1 0x0 KECCAK256 DUP2 SWAP1 SSTORE POP CALLER PUSH20 0xFFFFFFFFFFFFFFFFFFFFFFFFFFFFFFFFFFFFFFFF AND PUSH2 0x8FC DUP3 SWAP1 DUP2 ISZERO MUL SWAP1 PUSH1 0x40 MLOAD PUSH1 0x0 PUSH1 0x40 MLOAD DUP1 DUP4 SUB DUP2 DUP6 DUP9 DUP9 CALL SWAP4 POP POP POP POP ISZERO DUP1 ISZERO PUSH2 0x459 JUMPI RETURNDATASIZE PUSH1 0x0 DUP1 RETURNDATACOPY RETURNDATASIZE PUSH1 0x0 REVERT JUMPDEST POP POP JUMP JUMPDEST PUSH2 0x466 DUP2 PUSH2 0x4DD JUMP JUMPDEST DUP3 MSTORE POP POP JUMP JUMPDEST PUSH1 0x0 PUSH1 0x20 DUP3 ADD SWAP1 POP PUSH2 0x481 PUSH1 0x0 DUP4 ADD DUP5 PUSH2 0x45D JUMP JUMPDEST SWAP3 SWAP2 POP POP JUMP JUMPDEST PUSH1 0x0 PUSH2 0x492 DUP3 PUSH2 0x4DD JUMP JUMPDEST SWAP2 POP PUSH2 0x49D DUP4 PUSH2 0x4DD JUMP JUMPDEST SWAP3 POP DUP3 PUSH32 0xFFFFFFFFFFFFFFFFFFFFFFFFFFFFFFFFFFFFFFFFFFFFFFFFFFFFFFFFFFFFFFFF SUB DUP3 GT ISZERO PUSH2 0x4D2 JUMPI PUSH2 0x4D1 PUSH2 0x4E7 JUMP JUMPDEST JUMPDEST DUP3 DUP3 ADD SWAP1 POP SWAP3 SWAP2 POP POP JUMP JUMPDEST PUSH1 0x0 DUP2 SWAP1 POP SWAP2 SWAP1 POP JUMP JUMPDEST PUSH32 0x4E487B7100000000000000000000000000000000000000000000000000000000 PUSH1 0x0 MSTORE PUSH1 0x11 PUSH1 0x4 MSTORE PUSH1 0x24 PUSH1 0x0 REVERT INVALID LOG2 PUSH5 0x6970667358 0x22 SLT KECCAK256 0xD7 POP PUSH24 0x481A6852771DB0D01DCE4166CFCE93C53CEBC5B340C38C65 0xD3 0x2E 0xC4 LOG0 MSTORE PUSH5 0x736F6C6343 STOP ADDMOD SMOD STOP CALLER "
		},
		"gasEstimates": {
			"creation": {
				"codeDepositCost": "271200",
				"executionCost": "132948",
				"totalCost": "404148"
			},
			"external": {
				"claimReward()": "infinite",
				"finalMileStone()": "2430",
				"finalReward()": "2496",
				"mileStone1Reward()": "2429",
				"mileStone2Reward()": "2451",
				"payoutMileStone1()": "2474",
				"payoutMileStone2()": "2452",
				"play()": "infinite"
			}
		},
		"methodIdentifiers": {
			"claimReward()": "b88a802f",
			"finalMileStone()": "16a1883a",
			"finalReward()": "6e1d5537",
			"mileStone1Reward()": "82d4a75c",
			"mileStone2Reward()": "8c6f3759",
			"payoutMileStone1()": "33c2a9f8",
			"payoutMileStone2()": "1c95cfc1",
			"play()": "93e84cd9"
		}
	},
	"abi": [
		{
			"inputs": [],
			"name": "claimReward",
			"outputs": [],
			"stateMutability": "nonpayable",
			"type": "function"
		},
		{
			"inputs": [],
			"name": "finalMileStone",
			"outputs": [
				{
					"internalType": "uint256",
					"name": "",
					"type": "uint256"
				}
			],
			"stateMutability": "view",
			"type": "function"
		},
		{
			"inputs": [],
			"name": "finalReward",
			"outputs": [
				{
					"internalType": "uint256",
					"name": "",
					"type": "uint256"
				}
			],
			"stateMutability": "view",
			"type": "function"
		},
		{
			"inputs": [],
			"name": "mileStone1Reward",
			"outputs": [
				{
					"internalType": "uint256",
					"name": "",
					"type": "uint256"
				}
			],
			"stateMutability": "view",
			"type": "function"
		},
		{
			"inputs": [],
			"name": "mileStone2Reward",
			"outputs": [
				{
					"internalType": "uint256",
					"name": "",
					"type": "uint256"
				}
			],
			"stateMutability": "view",
			"type": "function"
		},
		{
			"inputs": [],
			"name": "payoutMileStone1",
			"outputs": [
				{
					"internalType": "uint256",
					"name": "",
					"type": "uint256"
				}
			],
			"stateMutability": "view",
			"type": "function"
		},
		{
			"inputs": [],
			"name": "payoutMileStone2",
			"outputs": [
				{
					"internalType": "uint256",
					"name": "",
					"type": "uint256"
				}
			],
			"stateMutability": "view",
			"type": "function"
		},
		{
			"inputs": [],
			"name": "play",
			"outputs": [],
			"stateMutability": "payable",
			"type": "function"
		}
	]
}