{
	"contracts/audits/EtherGame.sol": {
		"EtherGame": {
			"abi": [
				{
					"inputs": [],
					"name": "claimReward",
					"outputs": [],
					"stateMutability": "nonpayable",
					"type": "function"
				},
				{
					"inputs": [],
					"name": "finalMileStone",
					"outputs": [
						{
							"internalType": "uint256",
							"name": "",
							"type": "uint256"
						}
					],
					"stateMutability": "view",
					"type": "function"
				},
				{
					"inputs": [],
					"name": "finalReward",
					"outputs": [
						{
							"internalType": "uint256",
							"name": "",
							"type": "uint256"
						}
					],
					"stateMutability": "view",
					"type": "function"
				},
				{
					"inputs": [],
					"name": "mileStone1Reward",
					"outputs": [
						{
							"internalType": "uint256",
							"name": "",
							"type": "uint256"
						}
					],
					"stateMutability": "view",
					"type": "function"
				},
				{
					"inputs": [],
					"name": "mileStone2Reward",
					"outputs": [
						{
							"internalType": "uint256",
							"name": "",
							"type": "uint256"
						}
					],
					"stateMutability": "view",
					"type": "function"
				},
				{
					"inputs": [],
					"name": "payoutMileStone1",
					"outputs": [
						{
							"internalType": "uint256",
							"name": "",
							"type": "uint256"
						}
					],
					"stateMutability": "view",
					"type": "function"
				},
				{
					"inputs": [],
					"name": "payoutMileStone2",
					"outputs": [
						{
							"internalType": "uint256",
							"name": "",
							"type": "uint256"
						}
					],
					"stateMutability": "view",
					"type": "function"
				},
				{
					"inputs": [],
					"name": "play",
					"outputs": [],
					"stateMutability": "payable",
					"type": "function"
				}
			],
			"devdoc": {
				"kind": "dev",
				"methods": {},
				"version": 1
			},
			"evm": {
				"assembly": "    /* \"contracts/audits/EtherGame.sol\":66:1829  contract EtherGame {... */\n  mstore(0x40, 0x80)\n    /* \"contracts/audits/EtherGame.sol\":123:130  3 ether */\n  0x29a2241af62c0000\n    /* \"contracts/audits/EtherGame.sol\":92:130  uint public payoutMileStone1 = 3 ether */\n  0x00\n  sstore\n    /* \"contracts/audits/EtherGame.sol\":167:174  2 ether */\n  0x1bc16d674ec80000\n    /* \"contracts/audits/EtherGame.sol\":136:174  uint public mileStone1Reward = 2 ether */\n  0x01\n  sstore\n    /* \"contracts/audits/EtherGame.sol\":211:218  5 ether */\n  0x4563918244f40000\n    /* \"contracts/audits/EtherGame.sol\":180:218  uint public payoutMileStone2 = 5 ether */\n  0x02\n  sstore\n    /* \"contracts/audits/EtherGame.sol\":255:262  3 ether */\n  0x29a2241af62c0000\n    /* \"contracts/audits/EtherGame.sol\":224:262  uint public mileStone2Reward = 3 ether */\n  0x03\n  sstore\n    /* \"contracts/audits/EtherGame.sol\":297:305  10 ether */\n  0x8ac7230489e80000\n    /* \"contracts/audits/EtherGame.sol\":268:305  uint public finalMileStone = 10 ether */\n  0x04\n  sstore\n    /* \"contracts/audits/EtherGame.sol\":337:344  5 ether */\n  0x4563918244f40000\n    /* \"contracts/audits/EtherGame.sol\":311:344  uint public finalReward = 5 ether */\n  0x05\n  sstore\n    /* \"contracts/audits/EtherGame.sol\":66:1829  contract EtherGame {... */\n  callvalue\n  dup1\n  iszero\n  tag_1\n  jumpi\n  0x00\n  dup1\n  revert\ntag_1:\n  pop\n  dataSize(sub_0)\n  dup1\n  dataOffset(sub_0)\n  0x00\n  codecopy\n  0x00\n  return\nstop\n\nsub_0: assembly {\n        /* \"contracts/audits/EtherGame.sol\":66:1829  contract EtherGame {... */\n      mstore(0x40, 0x80)\n      jumpi(tag_1, lt(calldatasize, 0x04))\n      shr(0xe0, calldataload(0x00))\n      dup1\n      0x82d4a75c\n      gt\n      tag_10\n      jumpi\n      dup1\n      0x82d4a75c\n      eq\n      tag_6\n      jumpi\n      dup1\n      0x8c6f3759\n      eq\n      tag_7\n      jumpi\n      dup1\n      0x93e84cd9\n      eq\n      tag_8\n      jumpi\n      dup1\n      0xb88a802f\n      eq\n      tag_9\n      jumpi\n      jump(tag_1)\n    tag_10:\n      dup1\n      0x16a1883a\n      eq\n      tag_2\n      jumpi\n      dup1\n      0x1c95cfc1\n      eq\n      tag_3\n      jumpi\n      dup1\n      0x33c2a9f8\n      eq\n      tag_4\n      jumpi\n      dup1\n      0x6e1d5537\n      eq\n      tag_5\n      jumpi\n    tag_1:\n      0x00\n      dup1\n      revert\n        /* \"contracts/audits/EtherGame.sol\":268:305  uint public finalMileStone = 10 ether */\n    tag_2:\n      callvalue\n      dup1\n      iszero\n      tag_11\n      jumpi\n      0x00\n      dup1\n      revert\n    tag_11:\n      pop\n      tag_12\n      tag_13\n      jump\t// in\n    tag_12:\n      mload(0x40)\n      tag_14\n      swap2\n      swap1\n      tag_15\n      jump\t// in\n    tag_14:\n      mload(0x40)\n      dup1\n      swap2\n      sub\n      swap1\n      return\n        /* \"contracts/audits/EtherGame.sol\":180:218  uint public payoutMileStone2 = 5 ether */\n    tag_3:\n      callvalue\n      dup1\n      iszero\n      tag_16\n      jumpi\n      0x00\n      dup1\n      revert\n    tag_16:\n      pop\n      tag_17\n      tag_18\n      jump\t// in\n    tag_17:\n      mload(0x40)\n      tag_19\n      swap2\n      swap1\n      tag_15\n      jump\t// in\n    tag_19:\n      mload(0x40)\n      dup1\n      swap2\n      sub\n      swap1\n      return\n        /* \"contracts/audits/EtherGame.sol\":92:130  uint public payoutMileStone1 = 3 ether */\n    tag_4:\n      callvalue\n      dup1\n      iszero\n      tag_20\n      jumpi\n      0x00\n      dup1\n      revert\n    tag_20:\n      pop\n      tag_21\n      tag_22\n      jump\t// in\n    tag_21:\n      mload(0x40)\n      tag_23\n      swap2\n      swap1\n      tag_15\n      jump\t// in\n    tag_23:\n      mload(0x40)\n      dup1\n      swap2\n      sub\n      swap1\n      return\n        /* \"contracts/audits/EtherGame.sol\":311:344  uint public finalReward = 5 ether */\n    tag_5:\n      callvalue\n      dup1\n      iszero\n      tag_24\n      jumpi\n      0x00\n      dup1\n      revert\n    tag_24:\n      pop\n      tag_25\n      tag_26\n      jump\t// in\n    tag_25:\n      mload(0x40)\n      tag_27\n      swap2\n      swap1\n      tag_15\n      jump\t// in\n    tag_27:\n      mload(0x40)\n      dup1\n      swap2\n      sub\n      swap1\n      return\n        /* \"contracts/audits/EtherGame.sol\":136:174  uint public mileStone1Reward = 2 ether */\n    tag_6:\n      callvalue\n      dup1\n      iszero\n      tag_28\n      jumpi\n      0x00\n      dup1\n      revert\n    tag_28:\n      pop\n      tag_29\n      tag_30\n      jump\t// in\n    tag_29:\n      mload(0x40)\n      tag_31\n      swap2\n      swap1\n      tag_15\n      jump\t// in\n    tag_31:\n      mload(0x40)\n      dup1\n      swap2\n      sub\n      swap1\n      return\n        /* \"contracts/audits/EtherGame.sol\":224:262  uint public mileStone2Reward = 3 ether */\n    tag_7:\n      callvalue\n      dup1\n      iszero\n      tag_32\n      jumpi\n      0x00\n      dup1\n      revert\n    tag_32:\n      pop\n      tag_33\n      tag_34\n      jump\t// in\n    tag_33:\n      mload(0x40)\n      tag_35\n      swap2\n      swap1\n      tag_15\n      jump\t// in\n    tag_35:\n      mload(0x40)\n      dup1\n      swap2\n      sub\n      swap1\n      return\n        /* \"contracts/audits/EtherGame.sol\":519:1363  function play() public payable {... */\n    tag_8:\n      tag_36\n      tag_37\n      jump\t// in\n    tag_36:\n      stop\n        /* \"contracts/audits/EtherGame.sol\":1369:1826  function claimReward() public {... */\n    tag_9:\n      callvalue\n      dup1\n      iszero\n      tag_38\n      jumpi\n      0x00\n      dup1\n      revert\n    tag_38:\n      pop\n      tag_39\n      tag_40\n      jump\t// in\n    tag_39:\n      stop\n        /* \"contracts/audits/EtherGame.sol\":268:305  uint public finalMileStone = 10 ether */\n    tag_13:\n      sload(0x04)\n      dup2\n      jump\t// out\n        /* \"contracts/audits/EtherGame.sol\":180:218  uint public payoutMileStone2 = 5 ether */\n    tag_18:\n      sload(0x02)\n      dup2\n      jump\t// out\n        /* \"contracts/audits/EtherGame.sol\":92:130  uint public payoutMileStone1 = 3 ether */\n    tag_22:\n      sload(0x00)\n      dup2\n      jump\t// out\n        /* \"contracts/audits/EtherGame.sol\":311:344  uint public finalReward = 5 ether */\n    tag_26:\n      sload(0x05)\n      dup2\n      jump\t// out\n        /* \"contracts/audits/EtherGame.sol\":136:174  uint public mileStone1Reward = 2 ether */\n    tag_30:\n      sload(0x01)\n      dup2\n      jump\t// out\n        /* \"contracts/audits/EtherGame.sol\":224:262  uint public mileStone2Reward = 3 ether */\n    tag_34:\n      sload(0x03)\n      dup2\n      jump\t// out\n        /* \"contracts/audits/EtherGame.sol\":519:1363  function play() public payable {... */\n    tag_37:\n        /* \"contracts/audits/EtherGame.sol\":581:590  0.5 ether */\n      0x06f05b59d3b20000\n        /* \"contracts/audits/EtherGame.sol\":568:577  msg.value */\n      callvalue\n        /* \"contracts/audits/EtherGame.sol\":568:590  msg.value == 0.5 ether */\n      eq\n        /* \"contracts/audits/EtherGame.sol\":560:591  require(msg.value == 0.5 ether) */\n      tag_42\n      jumpi\n      0x00\n      dup1\n      revert\n    tag_42:\n        /* \"contracts/audits/EtherGame.sol\":627:646  uint currentBalance */\n      0x00\n        /* \"contracts/audits/EtherGame.sol\":673:682  msg.value */\n      callvalue\n        /* \"contracts/audits/EtherGame.sol\":649:670  address(this).balance */\n      selfbalance\n        /* \"contracts/audits/EtherGame.sol\":649:682  address(this).balance + msg.value */\n      tag_43\n      swap2\n      swap1\n      tag_44\n      jump\t// in\n    tag_43:\n        /* \"contracts/audits/EtherGame.sol\":627:682  uint currentBalance = address(this).balance + msg.value */\n      swap1\n      pop\n        /* \"contracts/audits/EtherGame.sol\":849:863  finalMileStone */\n      sload(0x04)\n        /* \"contracts/audits/EtherGame.sol\":831:845  currentBalance */\n      dup2\n        /* \"contracts/audits/EtherGame.sol\":831:863  currentBalance <= finalMileStone */\n      gt\n      iszero\n        /* \"contracts/audits/EtherGame.sol\":823:864  require(currentBalance <= finalMileStone) */\n      tag_45\n      jumpi\n      0x00\n      dup1\n      revert\n    tag_45:\n        /* \"contracts/audits/EtherGame.sol\":952:968  payoutMileStone1 */\n      sload(0x00)\n        /* \"contracts/audits/EtherGame.sol\":934:948  currentBalance */\n      dup2\n        /* \"contracts/audits/EtherGame.sol\":934:968  currentBalance == payoutMileStone1 */\n      eq\n        /* \"contracts/audits/EtherGame.sol\":930:1288  if (currentBalance == payoutMileStone1) {... */\n      iszero\n      tag_46\n      jumpi\n        /* \"contracts/audits/EtherGame.sol\":1015:1031  mileStone1Reward */\n      sload(0x01)\n        /* \"contracts/audits/EtherGame.sol\":984:999  redeemableEther */\n      0x06\n        /* \"contracts/audits/EtherGame.sol\":984:1011  redeemableEther[msg.sender] */\n      0x00\n        /* \"contracts/audits/EtherGame.sol\":1000:1010  msg.sender */\n      caller\n        /* \"contracts/audits/EtherGame.sol\":984:1011  redeemableEther[msg.sender] */\n      0xffffffffffffffffffffffffffffffffffffffff\n      and\n      0xffffffffffffffffffffffffffffffffffffffff\n      and\n      dup2\n      mstore\n      0x20\n      add\n      swap1\n      dup2\n      mstore\n      0x20\n      add\n      0x00\n      keccak256\n      0x00\n        /* \"contracts/audits/EtherGame.sol\":984:1031  redeemableEther[msg.sender] += mileStone1Reward */\n      dup3\n      dup3\n      sload\n      tag_47\n      swap2\n      swap1\n      tag_44\n      jump\t// in\n    tag_47:\n      swap3\n      pop\n      pop\n      dup2\n      swap1\n      sstore\n      pop\n        /* \"contracts/audits/EtherGame.sol\":930:1288  if (currentBalance == payoutMileStone1) {... */\n      jump(tag_48)\n    tag_46:\n        /* \"contracts/audits/EtherGame.sol\":1078:1094  payoutMileStone2 */\n      sload(0x02)\n        /* \"contracts/audits/EtherGame.sol\":1060:1074  currentBalance */\n      dup2\n        /* \"contracts/audits/EtherGame.sol\":1060:1094  currentBalance == payoutMileStone2 */\n      eq\n        /* \"contracts/audits/EtherGame.sol\":1056:1288  if (currentBalance == payoutMileStone2) {... */\n      iszero\n      tag_49\n      jumpi\n        /* \"contracts/audits/EtherGame.sol\":1141:1157  mileStone2Reward */\n      sload(0x03)\n        /* \"contracts/audits/EtherGame.sol\":1110:1125  redeemableEther */\n      0x06\n        /* \"contracts/audits/EtherGame.sol\":1110:1137  redeemableEther[msg.sender] */\n      0x00\n        /* \"contracts/audits/EtherGame.sol\":1126:1136  msg.sender */\n      caller\n        /* \"contracts/audits/EtherGame.sol\":1110:1137  redeemableEther[msg.sender] */\n      0xffffffffffffffffffffffffffffffffffffffff\n      and\n      0xffffffffffffffffffffffffffffffffffffffff\n      and\n      dup2\n      mstore\n      0x20\n      add\n      swap1\n      dup2\n      mstore\n      0x20\n      add\n      0x00\n      keccak256\n      0x00\n        /* \"contracts/audits/EtherGame.sol\":1110:1157  redeemableEther[msg.sender] += mileStone2Reward */\n      dup3\n      dup3\n      sload\n      tag_50\n      swap2\n      swap1\n      tag_44\n      jump\t// in\n    tag_50:\n      swap3\n      pop\n      pop\n      dup2\n      swap1\n      sstore\n      pop\n        /* \"contracts/audits/EtherGame.sol\":1056:1288  if (currentBalance == payoutMileStone2) {... */\n      jump(tag_51)\n    tag_49:\n        /* \"contracts/audits/EtherGame.sol\":1204:1218  finalMileStone */\n      sload(0x04)\n        /* \"contracts/audits/EtherGame.sol\":1186:1200  currentBalance */\n      dup2\n        /* \"contracts/audits/EtherGame.sol\":1186:1218  currentBalance == finalMileStone */\n      eq\n        /* \"contracts/audits/EtherGame.sol\":1182:1288  if (currentBalance == finalMileStone ) {... */\n      iszero\n      tag_52\n      jumpi\n        /* \"contracts/audits/EtherGame.sol\":1266:1277  finalReward */\n      sload(0x05)\n        /* \"contracts/audits/EtherGame.sol\":1235:1250  redeemableEther */\n      0x06\n        /* \"contracts/audits/EtherGame.sol\":1235:1262  redeemableEther[msg.sender] */\n      0x00\n        /* \"contracts/audits/EtherGame.sol\":1251:1261  msg.sender */\n      caller\n        /* \"contracts/audits/EtherGame.sol\":1235:1262  redeemableEther[msg.sender] */\n      0xffffffffffffffffffffffffffffffffffffffff\n      and\n      0xffffffffffffffffffffffffffffffffffffffff\n      and\n      dup2\n      mstore\n      0x20\n      add\n      swap1\n      dup2\n      mstore\n      0x20\n      add\n      0x00\n      keccak256\n      0x00\n        /* \"contracts/audits/EtherGame.sol\":1235:1277  redeemableEther[msg.sender] += finalReward */\n      dup3\n      dup3\n      sload\n      tag_53\n      swap2\n      swap1\n      tag_44\n      jump\t// in\n    tag_53:\n      swap3\n      pop\n      pop\n      dup2\n      swap1\n      sstore\n      pop\n        /* \"contracts/audits/EtherGame.sol\":1182:1288  if (currentBalance == finalMileStone ) {... */\n    tag_52:\n        /* \"contracts/audits/EtherGame.sol\":1056:1288  if (currentBalance == payoutMileStone2) {... */\n    tag_51:\n        /* \"contracts/audits/EtherGame.sol\":930:1288  if (currentBalance == payoutMileStone1) {... */\n    tag_48:\n        /* \"contracts/audits/EtherGame.sol\":1350:1357  return; */\n      pop\n        /* \"contracts/audits/EtherGame.sol\":519:1363  function play() public payable {... */\n      jump\t// out\n        /* \"contracts/audits/EtherGame.sol\":1369:1826  function claimReward() public {... */\n    tag_40:\n        /* \"contracts/audits/EtherGame.sol\":1481:1495  finalMileStone */\n      sload(0x04)\n        /* \"contracts/audits/EtherGame.sol\":1456:1477  address(this).balance */\n      selfbalance\n        /* \"contracts/audits/EtherGame.sol\":1456:1495  address(this).balance == finalMileStone */\n      eq\n        /* \"contracts/audits/EtherGame.sol\":1448:1496  require(address(this).balance == finalMileStone) */\n      tag_55\n      jumpi\n      0x00\n      dup1\n      revert\n    tag_55:\n        /* \"contracts/audits/EtherGame.sol\":1656:1657  0 */\n      0x00\n        /* \"contracts/audits/EtherGame.sol\":1626:1641  redeemableEther */\n      0x06\n        /* \"contracts/audits/EtherGame.sol\":1626:1653  redeemableEther[msg.sender] */\n      0x00\n        /* \"contracts/audits/EtherGame.sol\":1642:1652  msg.sender */\n      caller\n        /* \"contracts/audits/EtherGame.sol\":1626:1653  redeemableEther[msg.sender] */\n      0xffffffffffffffffffffffffffffffffffffffff\n      and\n      0xffffffffffffffffffffffffffffffffffffffff\n      and\n      dup2\n      mstore\n      0x20\n      add\n      swap1\n      dup2\n      mstore\n      0x20\n      add\n      0x00\n      keccak256\n      sload\n        /* \"contracts/audits/EtherGame.sol\":1626:1657  redeemableEther[msg.sender] > 0 */\n      gt\n        /* \"contracts/audits/EtherGame.sol\":1618:1658  require(redeemableEther[msg.sender] > 0) */\n      tag_56\n      jumpi\n      0x00\n      dup1\n      revert\n    tag_56:\n        /* \"contracts/audits/EtherGame.sol\":1668:1686  uint transferValue */\n      0x00\n        /* \"contracts/audits/EtherGame.sol\":1689:1704  redeemableEther */\n      0x06\n        /* \"contracts/audits/EtherGame.sol\":1689:1716  redeemableEther[msg.sender] */\n      0x00\n        /* \"contracts/audits/EtherGame.sol\":1705:1715  msg.sender */\n      caller\n        /* \"contracts/audits/EtherGame.sol\":1689:1716  redeemableEther[msg.sender] */\n      0xffffffffffffffffffffffffffffffffffffffff\n      and\n      0xffffffffffffffffffffffffffffffffffffffff\n      and\n      dup2\n      mstore\n      0x20\n      add\n      swap1\n      dup2\n      mstore\n      0x20\n      add\n      0x00\n      keccak256\n      sload\n        /* \"contracts/audits/EtherGame.sol\":1668:1716  uint transferValue = redeemableEther[msg.sender] */\n      swap1\n      pop\n        /* \"contracts/audits/EtherGame.sol\":1756:1757  0 */\n      0x00\n        /* \"contracts/audits/EtherGame.sol\":1726:1741  redeemableEther */\n      0x06\n        /* \"contracts/audits/EtherGame.sol\":1726:1753  redeemableEther[msg.sender] */\n      0x00\n        /* \"contracts/audits/EtherGame.sol\":1742:1752  msg.sender */\n      caller\n        /* \"contracts/audits/EtherGame.sol\":1726:1753  redeemableEther[msg.sender] */\n      0xffffffffffffffffffffffffffffffffffffffff\n      and\n      0xffffffffffffffffffffffffffffffffffffffff\n      and\n      dup2\n      mstore\n      0x20\n      add\n      swap1\n      dup2\n      mstore\n      0x20\n      add\n      0x00\n      keccak256\n        /* \"contracts/audits/EtherGame.sol\":1726:1757  redeemableEther[msg.sender] = 0 */\n      dup2\n      swap1\n      sstore\n      pop\n        /* \"contracts/audits/EtherGame.sol\":1783:1793  msg.sender */\n      caller\n        /* \"contracts/audits/EtherGame.sol\":1767:1804  payable(address(msg.sender)).transfer */\n      0xffffffffffffffffffffffffffffffffffffffff\n      and\n        /* \"contracts/audits/EtherGame.sol\":1767:1819  payable(address(msg.sender)).transfer(transferValue) */\n      0x08fc\n        /* \"contracts/audits/EtherGame.sol\":1805:1818  transferValue */\n      dup3\n        /* \"contracts/audits/EtherGame.sol\":1767:1819  payable(address(msg.sender)).transfer(transferValue) */\n      swap1\n      dup2\n      iszero\n      mul\n      swap1\n      mload(0x40)\n      0x00\n      mload(0x40)\n      dup1\n      dup4\n      sub\n      dup2\n      dup6\n      dup9\n      dup9\n      call\n      swap4\n      pop\n      pop\n      pop\n      pop\n      iszero\n      dup1\n      iszero\n      tag_58\n      jumpi\n      returndatasize\n      0x00\n      dup1\n      returndatacopy\n      revert(0x00, returndatasize)\n    tag_58:\n      pop\n        /* \"contracts/audits/EtherGame.sol\":1399:1826  {... */\n      pop\n        /* \"contracts/audits/EtherGame.sol\":1369:1826  function claimReward() public {... */\n      jump\t// out\n        /* \"#utility.yul\":7:125   */\n    tag_60:\n        /* \"#utility.yul\":94:118   */\n      tag_62\n        /* \"#utility.yul\":112:117   */\n      dup2\n        /* \"#utility.yul\":94:118   */\n      tag_63\n      jump\t// in\n    tag_62:\n        /* \"#utility.yul\":89:92   */\n      dup3\n        /* \"#utility.yul\":82:119   */\n      mstore\n        /* \"#utility.yul\":7:125   */\n      pop\n      pop\n      jump\t// out\n        /* \"#utility.yul\":131:353   */\n    tag_15:\n        /* \"#utility.yul\":224:228   */\n      0x00\n        /* \"#utility.yul\":262:264   */\n      0x20\n        /* \"#utility.yul\":251:260   */\n      dup3\n        /* \"#utility.yul\":247:265   */\n      add\n        /* \"#utility.yul\":239:265   */\n      swap1\n      pop\n        /* \"#utility.yul\":275:346   */\n      tag_65\n        /* \"#utility.yul\":343:344   */\n      0x00\n        /* \"#utility.yul\":332:341   */\n      dup4\n        /* \"#utility.yul\":328:345   */\n      add\n        /* \"#utility.yul\":319:325   */\n      dup5\n        /* \"#utility.yul\":275:346   */\n      tag_60\n      jump\t// in\n    tag_65:\n        /* \"#utility.yul\":131:353   */\n      swap3\n      swap2\n      pop\n      pop\n      jump\t// out\n        /* \"#utility.yul\":359:664   */\n    tag_44:\n        /* \"#utility.yul\":399:402   */\n      0x00\n        /* \"#utility.yul\":418:438   */\n      tag_67\n        /* \"#utility.yul\":436:437   */\n      dup3\n        /* \"#utility.yul\":418:438   */\n      tag_63\n      jump\t// in\n    tag_67:\n        /* \"#utility.yul\":413:438   */\n      swap2\n      pop\n        /* \"#utility.yul\":452:472   */\n      tag_68\n        /* \"#utility.yul\":470:471   */\n      dup4\n        /* \"#utility.yul\":452:472   */\n      tag_63\n      jump\t// in\n    tag_68:\n        /* \"#utility.yul\":447:472   */\n      swap3\n      pop\n        /* \"#utility.yul\":606:607   */\n      dup3\n        /* \"#utility.yul\":538:604   */\n      0xffffffffffffffffffffffffffffffffffffffffffffffffffffffffffffffff\n        /* \"#utility.yul\":534:608   */\n      sub\n        /* \"#utility.yul\":531:532   */\n      dup3\n        /* \"#utility.yul\":528:609   */\n      gt\n        /* \"#utility.yul\":525:632   */\n      iszero\n      tag_69\n      jumpi\n        /* \"#utility.yul\":612:630   */\n      tag_70\n      tag_71\n      jump\t// in\n    tag_70:\n        /* \"#utility.yul\":525:632   */\n    tag_69:\n        /* \"#utility.yul\":656:657   */\n      dup3\n        /* \"#utility.yul\":653:654   */\n      dup3\n        /* \"#utility.yul\":649:658   */\n      add\n        /* \"#utility.yul\":642:658   */\n      swap1\n      pop\n        /* \"#utility.yul\":359:664   */\n      swap3\n      swap2\n      pop\n      pop\n      jump\t// out\n        /* \"#utility.yul\":670:747   */\n    tag_63:\n        /* \"#utility.yul\":707:714   */\n      0x00\n        /* \"#utility.yul\":736:741   */\n      dup2\n        /* \"#utility.yul\":725:741   */\n      swap1\n      pop\n        /* \"#utility.yul\":670:747   */\n      swap2\n      swap1\n      pop\n      jump\t// out\n        /* \"#utility.yul\":753:933   */\n    tag_71:\n        /* \"#utility.yul\":801:878   */\n      0x4e487b7100000000000000000000000000000000000000000000000000000000\n        /* \"#utility.yul\":798:799   */\n      0x00\n        /* \"#utility.yul\":791:879   */\n      mstore\n        /* \"#utility.yul\":898:902   */\n      0x11\n        /* \"#utility.yul\":895:896   */\n      0x04\n        /* \"#utility.yul\":888:903   */\n      mstore\n        /* \"#utility.yul\":922:926   */\n      0x24\n        /* \"#utility.yul\":919:920   */\n      0x00\n        /* \"#utility.yul\":912:927   */\n      revert\n\n    auxdata: 0xa2646970667358221220d75077481a6852771db0d01dce4166cfce93c53cebc5b340c38c65d32ec4a05264736f6c63430008070033\n}\n",
				"bytecode": {
					"linkReferences": {},
					"object": "60806040526729a2241af62c0000600055671bc16d674ec80000600155674563918244f400006002556729a2241af62c0000600355678ac7230489e80000600455674563918244f4000060055534801561005857600080fd5b5061054c806100686000396000f3fe60806040526004361061007b5760003560e01c806382d4a75c1161004e57806382d4a75c1461012c5780638c6f37591461015757806393e84cd914610182578063b88a802f1461018c5761007b565b806316a1883a146100805780631c95cfc1146100ab57806333c2a9f8146100d65780636e1d553714610101575b600080fd5b34801561008c57600080fd5b506100956101a3565b6040516100a2919061046c565b60405180910390f35b3480156100b757600080fd5b506100c06101a9565b6040516100cd919061046c565b60405180910390f35b3480156100e257600080fd5b506100eb6101af565b6040516100f8919061046c565b60405180910390f35b34801561010d57600080fd5b506101166101b5565b604051610123919061046c565b60405180910390f35b34801561013857600080fd5b506101416101bb565b60405161014e919061046c565b60405180910390f35b34801561016357600080fd5b5061016c6101c1565b604051610179919061046c565b60405180910390f35b61018a6101c7565b005b34801561019857600080fd5b506101a1610330565b005b60045481565b60025481565b60005481565b60055481565b60015481565b60035481565b6706f05b59d3b2000034146101db57600080fd5b600034476101e99190610487565b90506004548111156101fa57600080fd5b60005481141561026157600154600660003373ffffffffffffffffffffffffffffffffffffffff1673ffffffffffffffffffffffffffffffffffffffff16815260200190815260200160002060008282546102559190610487565b9250508190555061032d565b6002548114156102c857600354600660003373ffffffffffffffffffffffffffffffffffffffff1673ffffffffffffffffffffffffffffffffffffffff16815260200190815260200160002060008282546102bc9190610487565b9250508190555061032c565b60045481141561032b57600554600660003373ffffffffffffffffffffffffffffffffffffffff1673ffffffffffffffffffffffffffffffffffffffff16815260200190815260200160002060008282546103239190610487565b925050819055505b5b5b50565b600454471461033e57600080fd5b6000600660003373ffffffffffffffffffffffffffffffffffffffff1673ffffffffffffffffffffffffffffffffffffffff168152602001908152602001600020541161038a57600080fd5b6000600660003373ffffffffffffffffffffffffffffffffffffffff1673ffffffffffffffffffffffffffffffffffffffff1681526020019081526020016000205490506000600660003373ffffffffffffffffffffffffffffffffffffffff1673ffffffffffffffffffffffffffffffffffffffff168152602001908152602001600020819055503373ffffffffffffffffffffffffffffffffffffffff166108fc829081150290604051600060405180830381858888f19350505050158015610459573d6000803e3d6000fd5b5050565b610466816104dd565b82525050565b6000602082019050610481600083018461045d565b92915050565b6000610492826104dd565b915061049d836104dd565b9250827fffffffffffffffffffffffffffffffffffffffffffffffffffffffffffffffff038211156104d2576104d16104e7565b5b828201905092915050565b6000819050919050565b7f4e487b7100000000000000000000000000000000000000000000000000000000600052601160045260246000fdfea2646970667358221220d75077481a6852771db0d01dce4166cfce93c53cebc5b340c38c65d32ec4a05264736f6c63430008070033",
					"opcodes": "PUSH1 0x80 PUSH1 0x40 MSTORE PUSH8 0x29A2241AF62C0000 PUSH1 0x0 SSTORE PUSH8 0x1BC16D674EC80000 PUSH1 0x1 SSTORE PUSH8 0x4563918244F40000 PUSH1 0x2 SSTORE PUSH8 0x29A2241AF62C0000 PUSH1 0x3 SSTORE PUSH8 0x8AC7230489E80000 PUSH1 0x4 SSTORE PUSH8 0x4563918244F40000 PUSH1 0x5 SSTORE CALLVALUE DUP1 ISZERO PUSH2 0x58 JUMPI PUSH1 0x0 DUP1 REVERT JUMPDEST POP PUSH2 0x54C DUP1 PUSH2 0x68 PUSH1 0x0 CODECOPY PUSH1 0x0 RETURN INVALID PUSH1 0x80 PUSH1 0x40 MSTORE PUSH1 0x4 CALLDATASIZE LT PUSH2 0x7B JUMPI PUSH1 0x0 CALLDATALOAD PUSH1 0xE0 SHR DUP1 PUSH4 0x82D4A75C GT PUSH2 0x4E JUMPI DUP1 PUSH4 0x82D4A75C EQ PUSH2 0x12C JUMPI DUP1 PUSH4 0x8C6F3759 EQ PUSH2 0x157 JUMPI DUP1 PUSH4 0x93E84CD9 EQ PUSH2 0x182 JUMPI DUP1 PUSH4 0xB88A802F EQ PUSH2 0x18C JUMPI PUSH2 0x7B JUMP JUMPDEST DUP1 PUSH4 0x16A1883A EQ PUSH2 0x80 JUMPI DUP1 PUSH4 0x1C95CFC1 EQ PUSH2 0xAB JUMPI DUP1 PUSH4 0x33C2A9F8 EQ PUSH2 0xD6 JUMPI DUP1 PUSH4 0x6E1D5537 EQ PUSH2 0x101 JUMPI JUMPDEST PUSH1 0x0 DUP1 REVERT JUMPDEST CALLVALUE DUP1 ISZERO PUSH2 0x8C JUMPI PUSH1 0x0 DUP1 REVERT JUMPDEST POP PUSH2 0x95 PUSH2 0x1A3 JUMP JUMPDEST PUSH1 0x40 MLOAD PUSH2 0xA2 SWAP2 SWAP1 PUSH2 0x46C JUMP JUMPDEST PUSH1 0x40 MLOAD DUP1 SWAP2 SUB SWAP1 RETURN JUMPDEST CALLVALUE DUP1 ISZERO PUSH2 0xB7 JUMPI PUSH1 0x0 DUP1 REVERT JUMPDEST POP PUSH2 0xC0 PUSH2 0x1A9 JUMP JUMPDEST PUSH1 0x40 MLOAD PUSH2 0xCD SWAP2 SWAP1 PUSH2 0x46C JUMP JUMPDEST PUSH1 0x40 MLOAD DUP1 SWAP2 SUB SWAP1 RETURN JUMPDEST CALLVALUE DUP1 ISZERO PUSH2 0xE2 JUMPI PUSH1 0x0 DUP1 REVERT JUMPDEST POP PUSH2 0xEB PUSH2 0x1AF JUMP JUMPDEST PUSH1 0x40 MLOAD PUSH2 0xF8 SWAP2 SWAP1 PUSH2 0x46C JUMP JUMPDEST PUSH1 0x40 MLOAD DUP1 SWAP2 SUB SWAP1 RETURN JUMPDEST CALLVALUE DUP1 ISZERO PUSH2 0x10D JUMPI PUSH1 0x0 DUP1 REVERT JUMPDEST POP PUSH2 0x116 PUSH2 0x1B5 JUMP JUMPDEST PUSH1 0x40 MLOAD PUSH2 0x123 SWAP2 SWAP1 PUSH2 0x46C JUMP JUMPDEST PUSH1 0x40 MLOAD DUP1 SWAP2 SUB SWAP1 RETURN JUMPDEST CALLVALUE DUP1 ISZERO PUSH2 0x138 JUMPI PUSH1 0x0 DUP1 REVERT JUMPDEST POP PUSH2 0x141 PUSH2 0x1BB JUMP JUMPDEST PUSH1 0x40 MLOAD PUSH2 0x14E SWAP2 SWAP1 PUSH2 0x46C JUMP JUMPDEST PUSH1 0x40 MLOAD DUP1 SWAP2 SUB SWAP1 RETURN JUMPDEST CALLVALUE DUP1 ISZERO PUSH2 0x163 JUMPI PUSH1 0x0 DUP1 REVERT JUMPDEST POP PUSH2 0x16C PUSH2 0x1C1 JUMP JUMPDEST PUSH1 0x40 MLOAD PUSH2 0x179 SWAP2 SWAP1 PUSH2 0x46C JUMP JUMPDEST PUSH1 0x40 MLOAD DUP1 SWAP2 SUB SWAP1 RETURN JUMPDEST PUSH2 0x18A PUSH2 0x1C7 JUMP JUMPDEST STOP JUMPDEST CALLVALUE DUP1 ISZERO PUSH2 0x198 JUMPI PUSH1 0x0 DUP1 REVERT JUMPDEST POP PUSH2 0x1A1 PUSH2 0x330 JUMP JUMPDEST STOP JUMPDEST PUSH1 0x4 SLOAD DUP2 JUMP JUMPDEST PUSH1 0x2 SLOAD DUP2 JUMP JUMPDEST PUSH1 0x0 SLOAD DUP2 JUMP JUMPDEST PUSH1 0x5 SLOAD DUP2 JUMP JUMPDEST PUSH1 0x1 SLOAD DUP2 JUMP JUMPDEST PUSH1 0x3 SLOAD DUP2 JUMP JUMPDEST PUSH8 0x6F05B59D3B20000 CALLVALUE EQ PUSH2 0x1DB JUMPI PUSH1 0x0 DUP1 REVERT JUMPDEST PUSH1 0x0 CALLVALUE SELFBALANCE PUSH2 0x1E9 SWAP2 SWAP1 PUSH2 0x487 JUMP JUMPDEST SWAP1 POP PUSH1 0x4 SLOAD DUP2 GT ISZERO PUSH2 0x1FA JUMPI PUSH1 0x0 DUP1 REVERT JUMPDEST PUSH1 0x0 SLOAD DUP2 EQ ISZERO PUSH2 0x261 JUMPI PUSH1 0x1 SLOAD PUSH1 0x6 PUSH1 0x0 CALLER PUSH20 0xFFFFFFFFFFFFFFFFFFFFFFFFFFFFFFFFFFFFFFFF AND PUSH20 0xFFFFFFFFFFFFFFFFFFFFFFFFFFFFFFFFFFFFFFFF AND DUP2 MSTORE PUSH1 0x20 ADD SWAP1 DUP2 MSTORE PUSH1 0x20 ADD PUSH1 0x0 KECCAK256 PUSH1 0x0 DUP3 DUP3 SLOAD PUSH2 0x255 SWAP2 SWAP1 PUSH2 0x487 JUMP JUMPDEST SWAP3 POP POP DUP2 SWAP1 SSTORE POP PUSH2 0x32D JUMP JUMPDEST PUSH1 0x2 SLOAD DUP2 EQ ISZERO PUSH2 0x2C8 JUMPI PUSH1 0x3 SLOAD PUSH1 0x6 PUSH1 0x0 CALLER PUSH20 0xFFFFFFFFFFFFFFFFFFFFFFFFFFFFFFFFFFFFFFFF AND PUSH20 0xFFFFFFFFFFFFFFFFFFFFFFFFFFFFFFFFFFFFFFFF AND DUP2 MSTORE PUSH1 0x20 ADD SWAP1 DUP2 MSTORE PUSH1 0x20 ADD PUSH1 0x0 KECCAK256 PUSH1 0x0 DUP3 DUP3 SLOAD PUSH2 0x2BC SWAP2 SWAP1 PUSH2 0x487 JUMP JUMPDEST SWAP3 POP POP DUP2 SWAP1 SSTORE POP PUSH2 0x32C JUMP JUMPDEST PUSH1 0x4 SLOAD DUP2 EQ ISZERO PUSH2 0x32B JUMPI PUSH1 0x5 SLOAD PUSH1 0x6 PUSH1 0x0 CALLER PUSH20 0xFFFFFFFFFFFFFFFFFFFFFFFFFFFFFFFFFFFFFFFF AND PUSH20 0xFFFFFFFFFFFFFFFFFFFFFFFFFFFFFFFFFFFFFFFF AND DUP2 MSTORE PUSH1 0x20 ADD SWAP1 DUP2 MSTORE PUSH1 0x20 ADD PUSH1 0x0 KECCAK256 PUSH1 0x0 DUP3 DUP3 SLOAD PUSH2 0x323 SWAP2 SWAP1 PUSH2 0x487 JUMP JUMPDEST SWAP3 POP POP DUP2 SWAP1 SSTORE POP JUMPDEST JUMPDEST JUMPDEST POP JUMP JUMPDEST PUSH1 0x4 SLOAD SELFBALANCE EQ PUSH2 0x33E JUMPI PUSH1 0x0 DUP1 REVERT JUMPDEST PUSH1 0x0 PUSH1 0x6 PUSH1 0x0 CALLER PUSH20 0xFFFFFFFFFFFFFFFFFFFFFFFFFFFFFFFFFFFFFFFF AND PUSH20 0xFFFFFFFFFFFFFFFFFFFFFFFFFFFFFFFFFFFFFFFF AND DUP2 MSTORE PUSH1 0x20 ADD SWAP1 DUP2 MSTORE PUSH1 0x20 ADD PUSH1 0x0 KECCAK256 SLOAD GT PUSH2 0x38A JUMPI PUSH1 0x0 DUP1 REVERT JUMPDEST PUSH1 0x0 PUSH1 0x6 PUSH1 0x0 CALLER PUSH20 0xFFFFFFFFFFFFFFFFFFFFFFFFFFFFFFFFFFFFFFFF AND PUSH20 0xFFFFFFFFFFFFFFFFFFFFFFFFFFFFFFFFFFFFFFFF AND DUP2 MSTORE PUSH1 0x20 ADD SWAP1 DUP2 MSTORE PUSH1 0x20 ADD PUSH1 0x0 KECCAK256 SLOAD SWAP1 POP PUSH1 0x0 PUSH1 0x6 PUSH1 0x0 CALLER PUSH20 0xFFFFFFFFFFFFFFFFFFFFFFFFFFFFFFFFFFFFFFFF AND PUSH20 0xFFFFFFFFFFFFFFFFFFFFFFFFFFFFFFFFFFFFFFFF AND DUP2 MSTORE PUSH1 0x20 ADD SWAP1 DUP2 MSTORE PUSH1 0x20 ADD PUSH1 0x0 KECCAK256 DUP2 SWAP1 SSTORE POP CALLER PUSH20 0xFFFFFFFFFFFFFFFFFFFFFFFFFFFFFFFFFFFFFFFF AND PUSH2 0x8FC DUP3 SWAP1 DUP2 ISZERO MUL SWAP1 PUSH1 0x40 MLOAD PUSH1 0x0 PUSH1 0x40 MLOAD DUP1 DUP4 SUB DUP2 DUP6 DUP9 DUP9 CALL SWAP4 POP POP POP POP ISZERO DUP1 ISZERO PUSH2 0x459 JUMPI RETURNDATASIZE PUSH1 0x0 DUP1 RETURNDATACOPY RETURNDATASIZE PUSH1 0x0 REVERT JUMPDEST POP POP JUMP JUMPDEST PUSH2 0x466 DUP2 PUSH2 0x4DD JUMP JUMPDEST DUP3 MSTORE POP POP JUMP JUMPDEST PUSH1 0x0 PUSH1 0x20 DUP3 ADD SWAP1 POP PUSH2 0x481 PUSH1 0x0 DUP4 ADD DUP5 PUSH2 0x45D JUMP JUMPDEST SWAP3 SWAP2 POP POP JUMP JUMPDEST PUSH1 0x0 PUSH2 0x492 DUP3 PUSH2 0x4DD JUMP JUMPDEST SWAP2 POP PUSH2 0x49D DUP4 PUSH2 0x4DD JUMP JUMPDEST SWAP3 POP DUP3 PUSH32 0xFFFFFFFFFFFFFFFFFFFFFFFFFFFFFFFFFFFFFFFFFFFFFFFFFFFFFFFFFFFFFFFF SUB DUP3 GT ISZERO PUSH2 0x4D2 JUMPI PUSH2 0x4D1 PUSH2 0x4E7 JUMP JUMPDEST JUMPDEST DUP3 DUP3 ADD SWAP1 POP SWAP3 SWAP2 POP POP JUMP JUMPDEST PUSH1 0x0 DUP2 SWAP1 POP SWAP2 SWAP1 POP JUMP JUMPDEST PUSH32 0x4E487B7100000000000000000000000000000000000000000000000000000000 PUSH1 0x0 MSTORE PUSH1 0x11 PUSH1 0x4 MSTORE PUSH1 0x24 PUSH1 0x0 REVERT INVALID LOG2 PUSH5 0x6970667358 0x22 SLT KECCAK256 0xD7 POP PUSH24 0x481A6852771DB0D01DCE4166CFCE93C53CEBC5B340C38C65 0xD3 0x2E 0xC4 LOG0 MSTORE PUSH5 0x736F6C6343 STOP ADDMOD SMOD STOP CALLER "
				},
				"gasEstimates": {
					"creation": {
						"codeDepositCost": "271200",
						"executionCost": "132948",
						"totalCost": "404148"
					},
					"external": {
						"claimReward()": "infinite",
						"finalMileStone()": "2430",
						"finalReward()": "2496",
						"mileStone1Reward()": "2429",
						"mileStone2Reward()": "2451",
						"payoutMileStone1()": "2474",
						"payoutMileStone2()": "2452",
						"play()": "infinite"
					}
				},
				"methodIdentifiers": {
					"claimReward()": "b88a802f",
					"finalMileStone()": "16a1883a",
					"finalReward()": "6e1d5537",
					"mileStone1Reward()": "82d4a75c",
					"mileStone2Reward()": "8c6f3759",
					"payoutMileStone1()": "33c2a9f8",
					"payoutMileStone2()": "1c95cfc1",
					"play()": "93e84cd9"
				}
			},
			"storageLayout": {
				"storage": [
					{
						"astId": 4,
						"contract": "contracts/audits/EtherGame.sol:EtherGame",
						"label": "payoutMileStone1",
						"offset": 0,
						"slot": "0",
						"type": "t_uint256"
					},
					{
						"astId": 7,
						"contract": "contracts/audits/EtherGame.sol:EtherGame",
						"label": "mileStone1Reward",
						"offset": 0,
						"slot": "1",
						"type": "t_uint256"
					},
					{
						"astId": 10,
						"contract": "contracts/audits/EtherGame.sol:EtherGame",
						"label": "payoutMileStone2",
						"offset": 0,
						"slot": "2",
						"type": "t_uint256"
					},
					{
						"astId": 13,
						"contract": "contracts/audits/EtherGame.sol:EtherGame",
						"label": "mileStone2Reward",
						"offset": 0,
						"slot": "3",
						"type": "t_uint256"
					},
					{
						"astId": 16,
						"contract": "contracts/audits/EtherGame.sol:EtherGame",
						"label": "finalMileStone",
						"offset": 0,
						"slot": "4",
						"type": "t_uint256"
					},
					{
						"astId": 19,
						"contract": "contracts/audits/EtherGame.sol:EtherGame",
						"label": "finalReward",
						"offset": 0,
						"slot": "5",
						"type": "t_uint256"
					},
					{
						"astId": 23,
						"contract": "contracts/audits/EtherGame.sol:EtherGame",
						"label": "redeemableEther",
						"offset": 0,
						"slot": "6",
						"type": "t_mapping(t_address,t_uint256)"
					}
				],
				"types": {
					"t_address": {
						"encoding": "inplace",
						"label": "address",
						"numberOfBytes": "20"
					},
					"t_mapping(t_address,t_uint256)": {
						"encoding": "mapping",
						"key": "t_address",
						"label": "mapping(address => uint256)",
						"numberOfBytes": "32",
						"value": "t_uint256"
					},
					"t_uint256": {
						"encoding": "inplace",
						"label": "uint256",
						"numberOfBytes": "32"
					}
				}
			},
			"userdoc": {
				"kind": "user",
				"methods": {},
				"version": 1
			}
		}
	}
}