{
	"contracts/audits/FibonacciLib.sol": {
		"FibonacciLib": {
			"abi": [
				{
					"inputs": [],
					"name": "calculatedFibNumber",
					"outputs": [
						{
							"internalType": "uint256",
							"name": "",
							"type": "uint256"
						}
					],
					"stateMutability": "view",
					"type": "function"
				},
				{
					"inputs": [
						{
							"internalType": "uint256",
							"name": "n",
							"type": "uint256"
						}
					],
					"name": "setFibonacci",
					"outputs": [],
					"stateMutability": "nonpayable",
					"type": "function"
				},
				{
					"inputs": [
						{
							"internalType": "uint256",
							"name": "_start",
							"type": "uint256"
						}
					],
					"name": "setStart",
					"outputs": [],
					"stateMutability": "nonpayable",
					"type": "function"
				},
				{
					"inputs": [],
					"name": "start",
					"outputs": [
						{
							"internalType": "uint256",
							"name": "",
							"type": "uint256"
						}
					],
					"stateMutability": "view",
					"type": "function"
				}
			],
			"devdoc": {
				"kind": "dev",
				"methods": {},
				"version": 1
			},
			"evm": {
				"assembly": "    /* \"contracts/audits/FibonacciLib.sol\":127:680  contract FibonacciLib {... */\n  mstore(0x40, 0x80)\n  callvalue\n  dup1\n  iszero\n  tag_1\n  jumpi\n  0x00\n  dup1\n  revert\ntag_1:\n  pop\n  dataSize(sub_0)\n  dup1\n  dataOffset(sub_0)\n  0x00\n  codecopy\n  0x00\n  return\nstop\n\nsub_0: assembly {\n        /* \"contracts/audits/FibonacciLib.sol\":127:680  contract FibonacciLib {... */\n      mstore(0x40, 0x80)\n      callvalue\n      dup1\n      iszero\n      tag_1\n      jumpi\n      0x00\n      dup1\n      revert\n    tag_1:\n      pop\n      jumpi(tag_2, lt(calldatasize, 0x04))\n      shr(0xe0, calldataload(0x00))\n      dup1\n      0xbbe1d75b\n      eq\n      tag_3\n      jumpi\n      dup1\n      0xbe9a6555\n      eq\n      tag_4\n      jumpi\n      dup1\n      0xf6a03ebf\n      eq\n      tag_5\n      jumpi\n      dup1\n      0xfe75faab\n      eq\n      tag_6\n      jumpi\n    tag_2:\n      0x00\n      dup1\n      revert\n        /* \"contracts/audits/FibonacciLib.sol\":231:262  uint public calculatedFibNumber */\n    tag_3:\n      tag_7\n      tag_8\n      jump\t// in\n    tag_7:\n      mload(0x40)\n      tag_9\n      swap2\n      swap1\n      tag_10\n      jump\t// in\n    tag_9:\n      mload(0x40)\n      dup1\n      swap2\n      sub\n      swap1\n      return\n        /* \"contracts/audits/FibonacciLib.sol\":208:225  uint public start */\n    tag_4:\n      tag_11\n      tag_12\n      jump\t// in\n    tag_11:\n      mload(0x40)\n      tag_13\n      swap2\n      swap1\n      tag_10\n      jump\t// in\n    tag_13:\n      mload(0x40)\n      dup1\n      swap2\n      sub\n      swap1\n      return\n        /* \"contracts/audits/FibonacciLib.sol\":317:386  function setStart(uint _start) public {... */\n    tag_5:\n      tag_14\n      0x04\n      dup1\n      calldatasize\n      sub\n      dup2\n      add\n      swap1\n      tag_15\n      swap2\n      swap1\n      tag_16\n      jump\t// in\n    tag_15:\n      tag_17\n      jump\t// in\n    tag_14:\n      stop\n        /* \"contracts/audits/FibonacciLib.sol\":392:480  function setFibonacci(uint n) public {... */\n    tag_6:\n      tag_18\n      0x04\n      dup1\n      calldatasize\n      sub\n      dup2\n      add\n      swap1\n      tag_19\n      swap2\n      swap1\n      tag_16\n      jump\t// in\n    tag_19:\n      tag_20\n      jump\t// in\n    tag_18:\n      stop\n        /* \"contracts/audits/FibonacciLib.sol\":231:262  uint public calculatedFibNumber */\n    tag_8:\n      sload(0x01)\n      dup2\n      jump\t// out\n        /* \"contracts/audits/FibonacciLib.sol\":208:225  uint public start */\n    tag_12:\n      sload(0x00)\n      dup2\n      jump\t// out\n        /* \"contracts/audits/FibonacciLib.sol\":317:386  function setStart(uint _start) public {... */\n    tag_17:\n        /* \"contracts/audits/FibonacciLib.sol\":373:379  _start */\n      dup1\n        /* \"contracts/audits/FibonacciLib.sol\":365:370  start */\n      0x00\n        /* \"contracts/audits/FibonacciLib.sol\":365:379  start = _start */\n      dup2\n      swap1\n      sstore\n      pop\n        /* \"contracts/audits/FibonacciLib.sol\":317:386  function setStart(uint _start) public {... */\n      pop\n      jump\t// out\n        /* \"contracts/audits/FibonacciLib.sol\":392:480  function setFibonacci(uint n) public {... */\n    tag_20:\n        /* \"contracts/audits/FibonacciLib.sol\":461:473  fibonacci(n) */\n      tag_23\n        /* \"contracts/audits/FibonacciLib.sol\":471:472  n */\n      dup2\n        /* \"contracts/audits/FibonacciLib.sol\":461:470  fibonacci */\n      tag_24\n        /* \"contracts/audits/FibonacciLib.sol\":461:473  fibonacci(n) */\n      jump\t// in\n    tag_23:\n        /* \"contracts/audits/FibonacciLib.sol\":439:458  calculatedFibNumber */\n      0x01\n        /* \"contracts/audits/FibonacciLib.sol\":439:473  calculatedFibNumber = fibonacci(n) */\n      dup2\n      swap1\n      sstore\n      pop\n        /* \"contracts/audits/FibonacciLib.sol\":392:480  function setFibonacci(uint n) public {... */\n      pop\n      jump\t// out\n        /* \"contracts/audits/FibonacciLib.sol\":486:678  function fibonacci(uint n) internal returns (uint) {... */\n    tag_24:\n        /* \"contracts/audits/FibonacciLib.sol\":531:535  uint */\n      0x00\n        /* \"contracts/audits/FibonacciLib.sol\":556:557  0 */\n      dup1\n        /* \"contracts/audits/FibonacciLib.sol\":551:552  n */\n      dup3\n        /* \"contracts/audits/FibonacciLib.sol\":551:557  n == 0 */\n      eq\n        /* \"contracts/audits/FibonacciLib.sol\":547:671  if (n == 0) return start;... */\n      iszero\n      tag_26\n      jumpi\n        /* \"contracts/audits/FibonacciLib.sol\":566:571  start */\n      sload(0x00)\n        /* \"contracts/audits/FibonacciLib.sol\":559:571  return start */\n      swap1\n      pop\n      jump(tag_25)\n        /* \"contracts/audits/FibonacciLib.sol\":547:671  if (n == 0) return start;... */\n    tag_26:\n        /* \"contracts/audits/FibonacciLib.sol\":595:596  1 */\n      0x01\n        /* \"contracts/audits/FibonacciLib.sol\":590:591  n */\n      dup3\n        /* \"contracts/audits/FibonacciLib.sol\":590:596  n == 1 */\n      eq\n        /* \"contracts/audits/FibonacciLib.sol\":586:671  if (n == 1) return start + 1;... */\n      iszero\n      tag_28\n      jumpi\n        /* \"contracts/audits/FibonacciLib.sol\":613:614  1 */\n      0x01\n        /* \"contracts/audits/FibonacciLib.sol\":605:610  start */\n      sload(0x00)\n        /* \"contracts/audits/FibonacciLib.sol\":605:614  start + 1 */\n      tag_29\n      swap2\n      swap1\n      tag_30\n      jump\t// in\n    tag_29:\n        /* \"contracts/audits/FibonacciLib.sol\":598:614  return start + 1 */\n      swap1\n      pop\n      jump(tag_25)\n        /* \"contracts/audits/FibonacciLib.sol\":586:671  if (n == 1) return start + 1;... */\n    tag_28:\n        /* \"contracts/audits/FibonacciLib.sol\":655:671  fibonacci(n - 2) */\n      tag_32\n        /* \"contracts/audits/FibonacciLib.sol\":669:670  2 */\n      0x02\n        /* \"contracts/audits/FibonacciLib.sol\":665:666  n */\n      dup4\n        /* \"contracts/audits/FibonacciLib.sol\":665:670  n - 2 */\n      tag_33\n      swap2\n      swap1\n      tag_34\n      jump\t// in\n    tag_33:\n        /* \"contracts/audits/FibonacciLib.sol\":655:664  fibonacci */\n      tag_24\n        /* \"contracts/audits/FibonacciLib.sol\":655:671  fibonacci(n - 2) */\n      jump\t// in\n    tag_32:\n        /* \"contracts/audits/FibonacciLib.sol\":636:652  fibonacci(n - 1) */\n      tag_35\n        /* \"contracts/audits/FibonacciLib.sol\":650:651  1 */\n      0x01\n        /* \"contracts/audits/FibonacciLib.sol\":646:647  n */\n      dup5\n        /* \"contracts/audits/FibonacciLib.sol\":646:651  n - 1 */\n      tag_36\n      swap2\n      swap1\n      tag_34\n      jump\t// in\n    tag_36:\n        /* \"contracts/audits/FibonacciLib.sol\":636:645  fibonacci */\n      tag_24\n        /* \"contracts/audits/FibonacciLib.sol\":636:652  fibonacci(n - 1) */\n      jump\t// in\n    tag_35:\n        /* \"contracts/audits/FibonacciLib.sol\":636:671  fibonacci(n - 1) + fibonacci(n - 2) */\n      tag_37\n      swap2\n      swap1\n      tag_30\n      jump\t// in\n    tag_37:\n        /* \"contracts/audits/FibonacciLib.sol\":629:671  return fibonacci(n - 1) + fibonacci(n - 2) */\n      swap1\n      pop\n        /* \"contracts/audits/FibonacciLib.sol\":486:678  function fibonacci(uint n) internal returns (uint) {... */\n    tag_25:\n      swap2\n      swap1\n      pop\n      jump\t// out\n        /* \"#utility.yul\":7:146   */\n    tag_39:\n        /* \"#utility.yul\":53:58   */\n      0x00\n        /* \"#utility.yul\":91:97   */\n      dup2\n        /* \"#utility.yul\":78:98   */\n      calldataload\n        /* \"#utility.yul\":69:98   */\n      swap1\n      pop\n        /* \"#utility.yul\":107:140   */\n      tag_41\n        /* \"#utility.yul\":134:139   */\n      dup2\n        /* \"#utility.yul\":107:140   */\n      tag_42\n      jump\t// in\n    tag_41:\n        /* \"#utility.yul\":7:146   */\n      swap3\n      swap2\n      pop\n      pop\n      jump\t// out\n        /* \"#utility.yul\":152:481   */\n    tag_16:\n        /* \"#utility.yul\":211:217   */\n      0x00\n        /* \"#utility.yul\":260:262   */\n      0x20\n        /* \"#utility.yul\":248:257   */\n      dup3\n        /* \"#utility.yul\":239:246   */\n      dup5\n        /* \"#utility.yul\":235:258   */\n      sub\n        /* \"#utility.yul\":231:263   */\n      slt\n        /* \"#utility.yul\":228:347   */\n      iszero\n      tag_44\n      jumpi\n        /* \"#utility.yul\":266:345   */\n      tag_45\n      tag_46\n      jump\t// in\n    tag_45:\n        /* \"#utility.yul\":228:347   */\n    tag_44:\n        /* \"#utility.yul\":386:387   */\n      0x00\n        /* \"#utility.yul\":411:464   */\n      tag_47\n        /* \"#utility.yul\":456:463   */\n      dup5\n        /* \"#utility.yul\":447:453   */\n      dup3\n        /* \"#utility.yul\":436:445   */\n      dup6\n        /* \"#utility.yul\":432:454   */\n      add\n        /* \"#utility.yul\":411:464   */\n      tag_39\n      jump\t// in\n    tag_47:\n        /* \"#utility.yul\":401:464   */\n      swap2\n      pop\n        /* \"#utility.yul\":357:474   */\n      pop\n        /* \"#utility.yul\":152:481   */\n      swap3\n      swap2\n      pop\n      pop\n      jump\t// out\n        /* \"#utility.yul\":487:605   */\n    tag_48:\n        /* \"#utility.yul\":574:598   */\n      tag_50\n        /* \"#utility.yul\":592:597   */\n      dup2\n        /* \"#utility.yul\":574:598   */\n      tag_51\n      jump\t// in\n    tag_50:\n        /* \"#utility.yul\":569:572   */\n      dup3\n        /* \"#utility.yul\":562:599   */\n      mstore\n        /* \"#utility.yul\":487:605   */\n      pop\n      pop\n      jump\t// out\n        /* \"#utility.yul\":611:833   */\n    tag_10:\n        /* \"#utility.yul\":704:708   */\n      0x00\n        /* \"#utility.yul\":742:744   */\n      0x20\n        /* \"#utility.yul\":731:740   */\n      dup3\n        /* \"#utility.yul\":727:745   */\n      add\n        /* \"#utility.yul\":719:745   */\n      swap1\n      pop\n        /* \"#utility.yul\":755:826   */\n      tag_53\n        /* \"#utility.yul\":823:824   */\n      0x00\n        /* \"#utility.yul\":812:821   */\n      dup4\n        /* \"#utility.yul\":808:825   */\n      add\n        /* \"#utility.yul\":799:805   */\n      dup5\n        /* \"#utility.yul\":755:826   */\n      tag_48\n      jump\t// in\n    tag_53:\n        /* \"#utility.yul\":611:833   */\n      swap3\n      swap2\n      pop\n      pop\n      jump\t// out\n        /* \"#utility.yul\":920:1225   */\n    tag_30:\n        /* \"#utility.yul\":960:963   */\n      0x00\n        /* \"#utility.yul\":979:999   */\n      tag_57\n        /* \"#utility.yul\":997:998   */\n      dup3\n        /* \"#utility.yul\":979:999   */\n      tag_51\n      jump\t// in\n    tag_57:\n        /* \"#utility.yul\":974:999   */\n      swap2\n      pop\n        /* \"#utility.yul\":1013:1033   */\n      tag_58\n        /* \"#utility.yul\":1031:1032   */\n      dup4\n        /* \"#utility.yul\":1013:1033   */\n      tag_51\n      jump\t// in\n    tag_58:\n        /* \"#utility.yul\":1008:1033   */\n      swap3\n      pop\n        /* \"#utility.yul\":1167:1168   */\n      dup3\n        /* \"#utility.yul\":1099:1165   */\n      0xffffffffffffffffffffffffffffffffffffffffffffffffffffffffffffffff\n        /* \"#utility.yul\":1095:1169   */\n      sub\n        /* \"#utility.yul\":1092:1093   */\n      dup3\n        /* \"#utility.yul\":1089:1170   */\n      gt\n        /* \"#utility.yul\":1086:1193   */\n      iszero\n      tag_59\n      jumpi\n        /* \"#utility.yul\":1173:1191   */\n      tag_60\n      tag_61\n      jump\t// in\n    tag_60:\n        /* \"#utility.yul\":1086:1193   */\n    tag_59:\n        /* \"#utility.yul\":1217:1218   */\n      dup3\n        /* \"#utility.yul\":1214:1215   */\n      dup3\n        /* \"#utility.yul\":1210:1219   */\n      add\n        /* \"#utility.yul\":1203:1219   */\n      swap1\n      pop\n        /* \"#utility.yul\":920:1225   */\n      swap3\n      swap2\n      pop\n      pop\n      jump\t// out\n        /* \"#utility.yul\":1231:1422   */\n    tag_34:\n        /* \"#utility.yul\":1271:1275   */\n      0x00\n        /* \"#utility.yul\":1291:1311   */\n      tag_63\n        /* \"#utility.yul\":1309:1310   */\n      dup3\n        /* \"#utility.yul\":1291:1311   */\n      tag_51\n      jump\t// in\n    tag_63:\n        /* \"#utility.yul\":1286:1311   */\n      swap2\n      pop\n        /* \"#utility.yul\":1325:1345   */\n      tag_64\n        /* \"#utility.yul\":1343:1344   */\n      dup4\n        /* \"#utility.yul\":1325:1345   */\n      tag_51\n      jump\t// in\n    tag_64:\n        /* \"#utility.yul\":1320:1345   */\n      swap3\n      pop\n        /* \"#utility.yul\":1364:1365   */\n      dup3\n        /* \"#utility.yul\":1361:1362   */\n      dup3\n        /* \"#utility.yul\":1358:1366   */\n      lt\n        /* \"#utility.yul\":1355:1389   */\n      iszero\n      tag_65\n      jumpi\n        /* \"#utility.yul\":1369:1387   */\n      tag_66\n      tag_61\n      jump\t// in\n    tag_66:\n        /* \"#utility.yul\":1355:1389   */\n    tag_65:\n        /* \"#utility.yul\":1414:1415   */\n      dup3\n        /* \"#utility.yul\":1411:1412   */\n      dup3\n        /* \"#utility.yul\":1407:1416   */\n      sub\n        /* \"#utility.yul\":1399:1416   */\n      swap1\n      pop\n        /* \"#utility.yul\":1231:1422   */\n      swap3\n      swap2\n      pop\n      pop\n      jump\t// out\n        /* \"#utility.yul\":1428:1505   */\n    tag_51:\n        /* \"#utility.yul\":1465:1472   */\n      0x00\n        /* \"#utility.yul\":1494:1499   */\n      dup2\n        /* \"#utility.yul\":1483:1499   */\n      swap1\n      pop\n        /* \"#utility.yul\":1428:1505   */\n      swap2\n      swap1\n      pop\n      jump\t// out\n        /* \"#utility.yul\":1511:1691   */\n    tag_61:\n        /* \"#utility.yul\":1559:1636   */\n      0x4e487b7100000000000000000000000000000000000000000000000000000000\n        /* \"#utility.yul\":1556:1557   */\n      0x00\n        /* \"#utility.yul\":1549:1637   */\n      mstore\n        /* \"#utility.yul\":1656:1660   */\n      0x11\n        /* \"#utility.yul\":1653:1654   */\n      0x04\n        /* \"#utility.yul\":1646:1661   */\n      mstore\n        /* \"#utility.yul\":1680:1684   */\n      0x24\n        /* \"#utility.yul\":1677:1678   */\n      0x00\n        /* \"#utility.yul\":1670:1685   */\n      revert\n        /* \"#utility.yul\":1820:1937   */\n    tag_46:\n        /* \"#utility.yul\":1929:1930   */\n      0x00\n        /* \"#utility.yul\":1926:1927   */\n      dup1\n        /* \"#utility.yul\":1919:1931   */\n      revert\n        /* \"#utility.yul\":1943:2065   */\n    tag_42:\n        /* \"#utility.yul\":2016:2040   */\n      tag_73\n        /* \"#utility.yul\":2034:2039   */\n      dup2\n        /* \"#utility.yul\":2016:2040   */\n      tag_51\n      jump\t// in\n    tag_73:\n        /* \"#utility.yul\":2009:2014   */\n      dup2\n        /* \"#utility.yul\":2006:2041   */\n      eq\n        /* \"#utility.yul\":1996:2059   */\n      tag_74\n      jumpi\n        /* \"#utility.yul\":2055:2056   */\n      0x00\n        /* \"#utility.yul\":2052:2053   */\n      dup1\n        /* \"#utility.yul\":2045:2057   */\n      revert\n        /* \"#utility.yul\":1996:2059   */\n    tag_74:\n        /* \"#utility.yul\":1943:2065   */\n      pop\n      jump\t// out\n\n    auxdata: 0xa2646970667358221220d51f4c15ca7deb51444e67d092e4cab2227835cfb91ff8ef4856cd96aacd042964736f6c63430008070033\n}\n",
				"bytecode": {
					"linkReferences": {},
					"object": "608060405234801561001057600080fd5b506102dd806100206000396000f3fe608060405234801561001057600080fd5b506004361061004c5760003560e01c8063bbe1d75b14610051578063be9a65551461006f578063f6a03ebf1461008d578063fe75faab146100a9575b600080fd5b6100596100c5565b60405161006691906101ad565b60405180910390f35b6100776100cb565b60405161008491906101ad565b60405180910390f35b6100a760048036038101906100a29190610171565b6100d1565b005b6100c360048036038101906100be9190610171565b6100db565b005b60015481565b60005481565b8060008190555050565b6100e4816100ed565b60018190555050565b600080821415610101576000549050610157565b600182141561012057600160005461011991906101c8565b9050610157565b610135600283610130919061021e565b6100ed565b61014a600184610145919061021e565b6100ed565b61015491906101c8565b90505b919050565b60008135905061016b81610290565b92915050565b6000602082840312156101875761018661028b565b5b60006101958482850161015c565b91505092915050565b6101a781610252565b82525050565b60006020820190506101c2600083018461019e565b92915050565b60006101d382610252565b91506101de83610252565b9250827fffffffffffffffffffffffffffffffffffffffffffffffffffffffffffffffff038211156102135761021261025c565b5b828201905092915050565b600061022982610252565b915061023483610252565b9250828210156102475761024661025c565b5b828203905092915050565b6000819050919050565b7f4e487b7100000000000000000000000000000000000000000000000000000000600052601160045260246000fd5b600080fd5b61029981610252565b81146102a457600080fd5b5056fea2646970667358221220d51f4c15ca7deb51444e67d092e4cab2227835cfb91ff8ef4856cd96aacd042964736f6c63430008070033",
					"opcodes": "PUSH1 0x80 PUSH1 0x40 MSTORE CALLVALUE DUP1 ISZERO PUSH2 0x10 JUMPI PUSH1 0x0 DUP1 REVERT JUMPDEST POP PUSH2 0x2DD DUP1 PUSH2 0x20 PUSH1 0x0 CODECOPY PUSH1 0x0 RETURN INVALID PUSH1 0x80 PUSH1 0x40 MSTORE CALLVALUE DUP1 ISZERO PUSH2 0x10 JUMPI PUSH1 0x0 DUP1 REVERT JUMPDEST POP PUSH1 0x4 CALLDATASIZE LT PUSH2 0x4C JUMPI PUSH1 0x0 CALLDATALOAD PUSH1 0xE0 SHR DUP1 PUSH4 0xBBE1D75B EQ PUSH2 0x51 JUMPI DUP1 PUSH4 0xBE9A6555 EQ PUSH2 0x6F JUMPI DUP1 PUSH4 0xF6A03EBF EQ PUSH2 0x8D JUMPI DUP1 PUSH4 0xFE75FAAB EQ PUSH2 0xA9 JUMPI JUMPDEST PUSH1 0x0 DUP1 REVERT JUMPDEST PUSH2 0x59 PUSH2 0xC5 JUMP JUMPDEST PUSH1 0x40 MLOAD PUSH2 0x66 SWAP2 SWAP1 PUSH2 0x1AD JUMP JUMPDEST PUSH1 0x40 MLOAD DUP1 SWAP2 SUB SWAP1 RETURN JUMPDEST PUSH2 0x77 PUSH2 0xCB JUMP JUMPDEST PUSH1 0x40 MLOAD PUSH2 0x84 SWAP2 SWAP1 PUSH2 0x1AD JUMP JUMPDEST PUSH1 0x40 MLOAD DUP1 SWAP2 SUB SWAP1 RETURN JUMPDEST PUSH2 0xA7 PUSH1 0x4 DUP1 CALLDATASIZE SUB DUP2 ADD SWAP1 PUSH2 0xA2 SWAP2 SWAP1 PUSH2 0x171 JUMP JUMPDEST PUSH2 0xD1 JUMP JUMPDEST STOP JUMPDEST PUSH2 0xC3 PUSH1 0x4 DUP1 CALLDATASIZE SUB DUP2 ADD SWAP1 PUSH2 0xBE SWAP2 SWAP1 PUSH2 0x171 JUMP JUMPDEST PUSH2 0xDB JUMP JUMPDEST STOP JUMPDEST PUSH1 0x1 SLOAD DUP2 JUMP JUMPDEST PUSH1 0x0 SLOAD DUP2 JUMP JUMPDEST DUP1 PUSH1 0x0 DUP2 SWAP1 SSTORE POP POP JUMP JUMPDEST PUSH2 0xE4 DUP2 PUSH2 0xED JUMP JUMPDEST PUSH1 0x1 DUP2 SWAP1 SSTORE POP POP JUMP JUMPDEST PUSH1 0x0 DUP1 DUP3 EQ ISZERO PUSH2 0x101 JUMPI PUSH1 0x0 SLOAD SWAP1 POP PUSH2 0x157 JUMP JUMPDEST PUSH1 0x1 DUP3 EQ ISZERO PUSH2 0x120 JUMPI PUSH1 0x1 PUSH1 0x0 SLOAD PUSH2 0x119 SWAP2 SWAP1 PUSH2 0x1C8 JUMP JUMPDEST SWAP1 POP PUSH2 0x157 JUMP JUMPDEST PUSH2 0x135 PUSH1 0x2 DUP4 PUSH2 0x130 SWAP2 SWAP1 PUSH2 0x21E JUMP JUMPDEST PUSH2 0xED JUMP JUMPDEST PUSH2 0x14A PUSH1 0x1 DUP5 PUSH2 0x145 SWAP2 SWAP1 PUSH2 0x21E JUMP JUMPDEST PUSH2 0xED JUMP JUMPDEST PUSH2 0x154 SWAP2 SWAP1 PUSH2 0x1C8 JUMP JUMPDEST SWAP1 POP JUMPDEST SWAP2 SWAP1 POP JUMP JUMPDEST PUSH1 0x0 DUP2 CALLDATALOAD SWAP1 POP PUSH2 0x16B DUP2 PUSH2 0x290 JUMP JUMPDEST SWAP3 SWAP2 POP POP JUMP JUMPDEST PUSH1 0x0 PUSH1 0x20 DUP3 DUP5 SUB SLT ISZERO PUSH2 0x187 JUMPI PUSH2 0x186 PUSH2 0x28B JUMP JUMPDEST JUMPDEST PUSH1 0x0 PUSH2 0x195 DUP5 DUP3 DUP6 ADD PUSH2 0x15C JUMP JUMPDEST SWAP2 POP POP SWAP3 SWAP2 POP POP JUMP JUMPDEST PUSH2 0x1A7 DUP2 PUSH2 0x252 JUMP JUMPDEST DUP3 MSTORE POP POP JUMP JUMPDEST PUSH1 0x0 PUSH1 0x20 DUP3 ADD SWAP1 POP PUSH2 0x1C2 PUSH1 0x0 DUP4 ADD DUP5 PUSH2 0x19E JUMP JUMPDEST SWAP3 SWAP2 POP POP JUMP JUMPDEST PUSH1 0x0 PUSH2 0x1D3 DUP3 PUSH2 0x252 JUMP JUMPDEST SWAP2 POP PUSH2 0x1DE DUP4 PUSH2 0x252 JUMP JUMPDEST SWAP3 POP DUP3 PUSH32 0xFFFFFFFFFFFFFFFFFFFFFFFFFFFFFFFFFFFFFFFFFFFFFFFFFFFFFFFFFFFFFFFF SUB DUP3 GT ISZERO PUSH2 0x213 JUMPI PUSH2 0x212 PUSH2 0x25C JUMP JUMPDEST JUMPDEST DUP3 DUP3 ADD SWAP1 POP SWAP3 SWAP2 POP POP JUMP JUMPDEST PUSH1 0x0 PUSH2 0x229 DUP3 PUSH2 0x252 JUMP JUMPDEST SWAP2 POP PUSH2 0x234 DUP4 PUSH2 0x252 JUMP JUMPDEST SWAP3 POP DUP3 DUP3 LT ISZERO PUSH2 0x247 JUMPI PUSH2 0x246 PUSH2 0x25C JUMP JUMPDEST JUMPDEST DUP3 DUP3 SUB SWAP1 POP SWAP3 SWAP2 POP POP JUMP JUMPDEST PUSH1 0x0 DUP2 SWAP1 POP SWAP2 SWAP1 POP JUMP JUMPDEST PUSH32 0x4E487B7100000000000000000000000000000000000000000000000000000000 PUSH1 0x0 MSTORE PUSH1 0x11 PUSH1 0x4 MSTORE PUSH1 0x24 PUSH1 0x0 REVERT JUMPDEST PUSH1 0x0 DUP1 REVERT JUMPDEST PUSH2 0x299 DUP2 PUSH2 0x252 JUMP JUMPDEST DUP2 EQ PUSH2 0x2A4 JUMPI PUSH1 0x0 DUP1 REVERT JUMPDEST POP JUMP INVALID LOG2 PUSH5 0x6970667358 0x22 SLT KECCAK256 0xD5 0x1F 0x4C ISZERO 0xCA PUSH30 0xEB51444E67D092E4CAB2227835CFB91FF8EF4856CD96AACD042964736F6C PUSH4 0x43000807 STOP CALLER "
				},
				"gasEstimates": {
					"creation": {
						"codeDepositCost": "146600",
						"executionCost": "190",
						"totalCost": "146790"
					},
					"external": {
						"calculatedFibNumber()": "2407",
						"setFibonacci(uint256)": "infinite",
						"setStart(uint256)": "22542",
						"start()": "2429"
					},
					"internal": {
						"fibonacci(uint256)": "infinite"
					}
				},
				"methodIdentifiers": {
					"calculatedFibNumber()": "bbe1d75b",
					"setFibonacci(uint256)": "fe75faab",
					"setStart(uint256)": "f6a03ebf",
					"start()": "be9a6555"
				}
			},
			"storageLayout": {
				"storage": [
					{
						"astId": 3,
						"contract": "contracts/audits/FibonacciLib.sol:FibonacciLib",
						"label": "start",
						"offset": 0,
						"slot": "0",
						"type": "t_uint256"
					},
					{
						"astId": 5,
						"contract": "contracts/audits/FibonacciLib.sol:FibonacciLib",
						"label": "calculatedFibNumber",
						"offset": 0,
						"slot": "1",
						"type": "t_uint256"
					}
				],
				"types": {
					"t_uint256": {
						"encoding": "inplace",
						"label": "uint256",
						"numberOfBytes": "32"
					}
				}
			},
			"userdoc": {
				"kind": "user",
				"methods": {},
				"version": 1
			}
		}
	}
}